:020000042000DA
:1000000000000120910100207F03002081030020D7
:1000100083030020850300208703002000000000E8
:100020000000000000000000000000008903002024
:100030008B030020000000008D0300208F030020B0
:100040009103002093030020B52B0020D92B002022
:10005000A93400209B0300209D030020CD34002004
:10006000A1030020A30300200D150020311500205E
:10007000553A0020AB030020AD030020AF03002061
:10008000B1030020B3030020B5030020691B00204A
:10009000B9030020BB030020BD030020BF030020E4
:1000A000C1030020C3030020C50300204536002003
:1000B0003D370020CB030020CD030020CF030020DC
:1000C000D1030020D3030020D5030020D703002054
:1000D000D9030020DB030020DD030020DF03002024
:1000E000E1030020E3030020E5030020E7030020F4
:1000F000E9030020EB030020ED030020EF030020C4
:10010000F1030020F3030020F5030020F703002093
:10011000F9030020FB030020FD030020FF03002063
:100120000104002003040020990E0020F10E00209D
:10013000311000200B0400200D0400200F040020CB
:1001400011040020130400201504002017040020CF
:10015000190400201B0400201D0400201F0400209F
:10016000210400202304002025040020270400206F
:10017000290400202B0400202D0400202F0400203F
:1001800031040020330400200000000000000000C3
:100190004FF0000BDFF8BE020068DFF8B612096806
:1001A00001F0030100F01C00142801D14BF0020BF8
:1001B000002901D04BF0010BBBF1000F05D0A7487F
:1001C000A749DFF8722200F09FF8A64880470BF09D
:1001D000020ABAF1000F0CD0DFF86E02DFF86E12DF
:1001E00002680B680FB44FF000024FF0FF0302608B
:1001F0000B609D484FF000024FF00103022808D128
:10020000DFF83A120A60DFF83E120A60DFF83212B5
:100210000B60012808D1DFF82A120A60DFF82612E5
:100220000A60DFF81A120B609048002809D1904844
:100230009049914A00F030F890489149914A00F075
:100240002BF891489149924A00F026F8914892493A
:10025000DFF8E22100F058F8BBF1000F10D08F4812
:100260008F49DFF8D62100F04FF80BF0020ABAF1FF
:10027000000F05D00FBC02600B6000BFAFF3008021
:10028000DFF820020FF2030E00474FF000004FF09E
:100290000001DFF814F2FEE72DE9F841884225D08D
:1002A000B2EB010200D5FEE740EA010313F00303BD
:1002B00002D000F01DF819E04FF000039046121133
:1002C000F7D09A421CBFF0C8F0C103F10103F8D186
:1002D00008F00F08B8F1000F08D004780C7000F196
:1002E000010001F10101B8F10108F6D1BDE8F88182
:1002F00008B54FF0000303780B7000F1010001F125
:100300000101013AF7D108BD884237D000F0030659
:10031000002E14D04FF00405A5EB06044FF008079B
:1003200007FB06F8914669FA08F9002C07D080F817
:10033000009069FA07F900F10100013CF5E74FF080
:1003400000060F46091A88460911914614461546BB
:10035000B14206D018BFA0E8340206F10106B1424E
:10036000F8D108F00F08B8F1000F07D002704FEA7B
:10037000322200F10100B8F10108F4E77047FEE70E
:10038000FEE7FEE7FEE7FEE7FEE7FEE7FEE7FEE745
:10039000FEE7FEE7FEE7FEE7FEE7FEE7FEE7FEE735
:1003A000FEE7FEE7FEE7FEE7FEE7FEE7FEE7FEE725
:1003B000FEE7FEE7FEE7FEE7FEE7FEE7FEE7FEE715
:1003C000FEE7FEE7FEE7FEE7FEE7FEE7FEE7FEE705
:1003D000FEE7FEE7FEE7FEE7FEE7FEE7FEE7FEE7F5
:1003E000FEE7FEE7FEE7FEE7FEE7FEE7FEE7FEE7E5
:1003F000FEE7FEE7FEE7FEE7FEE7FEE7FEE7FEE7D5
:10040000FEE7FEE7FEE7FEE7FEE7FEE7FEE7FEE7C4
:10041000FEE7FEE7FEE7FEE7FEE7FEE7FEE7FEE7B4
:10042000FEE7FEE7FEE7FEE7FEE7FEE7FEE7FEE7A4
:10043000FEE7FEE7704700000000A2A2A2A2008033
:100440000340088003401080034030800340348024
:1004500003403880034018080240000000F00020EC
:1004600000000120553F00200000000000000000B7
:10047000000000200000002090010020B0040020B7
:10048000B0040020804500208045002080450020E9
:10049000304600203046002090490020904900203E
:1004A00000F00020A5410020090A00200000000003
:1004B0000348044B834202D0034B03B118477047F3
:1004C0003046002030460020000000000548064964
:1004D000091A891001EBD171491002D0034B03B105
:1004E00018477047304600203046002000000000CA
:1004F00010B5064C237843B9FFF7DAFF044B13B16C
:100500000448AFF300800123237010BD3046002063
:10051000000000006045002008B5054B1BB10549EF
:100520000548AFF30080BDE80840FFF7CFBF00BF2C
:1005300000000000344600206045002080B582B0F5
:1005400000AF78600B46FB707B681B681C33FA7841
:100550001146184600F0A3FD00BF0837BD4680BD18
:1005600080B582B000AF78600B46FB707B681B687B
:100570002033FA781146184600F091FD00BF083785
:10058000BD4680BD80B582B000AF78600B46FB7081
:100590007B681B681833FA781146184600F07FFD17
:1005A00000BF0837BD4680BD80B582B000AF78601F
:1005B0000B46FB701346BB707B681B681C33FA78D4
:1005C0001146184600F06BFD7B681B682033BA7833
:1005D0001146184600F063FD7B681B681833184607
:1005E00000F05FFD034618460837BD4680BD80B564
:1005F00082B000AF78600B46FB707B681B68FA78AE
:100600001146184600F04BFD00BF0837BD4680BDBF
:1006100080B586B000AF78600B46FB70FB78002B8E
:1006200002D10023FB7501E0FF23FB7500233B6132
:100630001CE03B69DBB219467868FFF791FF0023A5
:10064000FB600DE0FB68DBB219467868FFF776FFC8
:10065000FB7D19467868FFF795FFFB680133FB6067
:10066000FB68532BEEDD3B6901333B613B69052B96
:10067000DFDD00BF1837BD4680BD80B586B000AF56
:100680007860084611461A460346FB700B46BB705D
:1006900013467B7000237B61BB783B612CE07B6859
:1006A0001B6820333A691146184600F0F8FCFB78C5
:1006B000FB6018E07B681B681C33FA68114618461B
:1006C00000F0EDFC7B681B6803F118007B695A1C85
:1006D0007A611A467B6A13441B78194600F0DFFCE6
:1006E000FB680133FB60FA787B781344FA689A421E
:1006F000E0DB3B6901333B61BA7897F82030134463
:100700003A699A42CBDB00BF1837BD4680BD80B541
:1007100084B000AF78600B46FB701346BB70FB786B
:10072000FB73BB78DB08BB73BB7803F007037B73F9
:100730007B681B681C33FA7B1146184600F0AFFC3F
:100740007B681B682033BA7B1146184600F0A7FC73
:100750007B681B681833184600F0A3FC03463B7304
:100760003A7B7B7B42FA03F3DBB203F00103DBB29B
:1007700018461037BD4680BD80B584B000AF7860A4
:10078000084611461A460346FB700B46BB701346DB
:100790007B70FB78FB73BB78DB08BB73BB7803F023
:1007A00007037B737B7B012202FA03F33B737B68B5
:1007B0001B681C33FA7B1146184600F070FC7B68FE
:1007C0001B682033BA7B1146184600F068FC7B6832
:1007D0001B681833184600F064FC0346FB7297F957
:1007E0000C30DB435AB297F90B3013405BB2FB720B
:1007F0007A787B7B02FA03F35AB297F90B301343F2
:100800005BB2FB727B681B681833FA7A1146184694
:1008100000F045FC00BF1037BD4680BD80B586B0F6
:1008200000AF7860084611461A460346FB700B4637
:10083000BB7013467B7000237B61BB783B6132E069
:10084000FB78FB6026E00023BB601AE0FB68D9B2AE
:100850003B69DAB2BB68DBB21344D8B27A6A7B690F
:1008600013441B781A46BB6842FA03F3DBB203F069
:100870000103DBB202467868FFF77EFFBB680133F5
:10088000BB60BB68072BE1DD7B6901337B61FB68E3
:100890000133FB60FA787B781344FA689A42D2DB22
:1008A0003B6901333B61BA7897F8203013443A69C9
:1008B0009A42C5DB00BF1837BD4680BD80B586B003
:1008C00000AF7860084611461A460346FB700B4697
:1008D000BB7013467B7000237B61BB783B613EE0BD
:1008E000FB78FB6032E00023BB6026E0BA6A7B69DC
:1008F00013441B781A46BB6842FA03F303F0010362
:10090000002B17D0FB68D9B23B69DAB2BB68DBB207
:100910001344D8B27A6A7B6913441B781A46BB68C1
:1009200042FA03F3DBB203F00103DBB2024678685C
:10093000FFF722FFBB680133BB60BB68072BD5DD27
:100940007B6901337B61FB680133FB60FA787B785C
:100950001344FA689A42C6DB3B6901333B61BA78BB
:1009600097F8203013443A699A42B9DB00BF183730
:10097000BD4680BD80B400AF024B1846BD4680BC6A
:10098000704700BFB042002080B485B000AF7860EF
:100990000023FB600FE00C4A7B6852F82320FB68C1
:1009A00013441A78FB6801335200D1B2074AD1547C
:1009B000FB680133FB60FB68022BECDD034B184640
:1009C0001437BD4680BC7047804500204C4600204F
:1009D00080B483B000AF7860044A7B68C2F8883086
:1009E00000BF0C37BD4680BC704700BF00300140DF
:1009F00080B400AF034BD3F884301846BD4680BCAA
:100A0000704700BF0030014080B500AF00F004F82F
:100A100000F09EF8FEE7000080B582B002AF4FF410
:100A2000612000F043F81B4B1B49184600F010FCF6
:100A300002F050FF4221082002F088FF42210920E5
:100A400002F084FF082002F09DFF092002F09AFFC7
:100A500000F062F864234FF47A724FF0A0410F481F
:100A600003F0ECF80E4B01221A700E4B02221A70A2
:100A700000F03AF800F058F80B4801F04DFB08235D
:100A80000093022300220021074801F04BFC00BF25
:100A9000BD4680BD5C470020484300201047002031
:100AA00019470020184700209C47002080B582B0DD
:100AB00000AF78600A4B03227968184600F090FB7B
:100AC000074B0121184600F07BFC054B002205492D
:100AD000184600F0C7FC00BF0837BD4680BD00BF08
:100AE0005C470020710D002080B500AF074B1B78DC
:100AF00046221946064803F0D7F9064B1B782822F0
:100B00001946034803F0D0F900BF80BD1947002003
:100B1000104700201847002080B500AF5F20FFF786
:100B200057FF00BF80BD000080B500AF064B074AED
:100B30001A6001210448FFF76BFD03210248FFF70B
:100B400056FD00BF80BD00BF1447002000010050CB
:100B5000B0B596B004AF7B4A07F12C0392E80300CE
:100B6000186004331980784A07F1240392E80300DF
:100B7000186004331980754B07F114040FCB84E817
:100B80000F00734A07F10C0392E803001860043366
:100B90001980704B1B68BB606F4A3B1D1268114681
:100BA00019800233120C1A706C4A3B4612681146C7
:100BB00019800233120C1A70694B6A49184600F00A
:100BC00047FB07F12C030193012300930623012225
:100BD00013216548FFF751FD07F124030193012319
:100BE00000930623032213215F48FFF746FD07F118
:100BF00014030193022300930823022246215A483A
:100C0000FFF73BFD032214215748FFF7CDFC0346B5
:100C100087F83B300023002201215348FFF7ACFD49
:100C200000232D2253215048FFF7A6FD00231A224E
:100C30001A214D48FFF7A0FD00231C221A214A4823
:100C4000FFF79AFD01231A221D214748FFF794FD63
:100C5000012201214448FFF75AFD034687F83B3043
:100C6000002201214048FFF752FD034687F83B3040
:100C700007F12C0301930123009306230A221A2172
:100C80003948FFF7CBFD07F10C03029307F124036A
:100C900001930123009306230E221D213248FFF702
:100CA0000DFE07F1080302933B1D019301230093FE
:100CB00003230E2228212C48FFF700FE07F108032A
:100CC00002933B4601930123009303230E222C2120
:100CD0002548FFF7F3FD00237B6421233B640023B9
:100CE000FB6323E0F86BFFF74FFE78637B6CDCB2AD
:100CF0003B6CDDB2FFF73EFE034602937B6B019334
:100D00000123009305232A4621461748FFF7D6FD05
:100D10007B6C04337B647B6C502B04DD00237B6491
:100D20003B6C06333B64FB6B0133FB63FB6B232B98
:100D3000D8DD0B4B0D49184600F08AFA00BF483742
:100D4000BD46B0BD8C430020944300209C4300204E
:100D5000AC430020B4430020B8430020BC43002033
:100D60005C4700205C4300201447002074430020AF
:100D700080B594B000AF78600023FB6407F10803EE
:100D800040221946786800F0BDFAB86407F10803FC
:100D9000B96C184600F004F800BF5037BD4680BD5E
:100DA000F0B589B002AF786039606B461E463B688B
:100DB00006333B613D696B1EFB602B4619464FF0C5
:100DC00000024FF000034FF00004D40044EA5174D5
:100DD000CB002B4619464FF000024FF000034FF0B6
:100DE0000004D40044EA5174CB002B460733DB08DF
:100DF000DB00ADEB030D02AB0033BB60BB6806222A
:100E00001A70BB6802225A70214B1B681B0ADAB2A7
:100E1000BB689A701E4B1B681B0ADAB2BB68DA709B
:100E20001B4B1B68DAB2BB681A7100237B610AE0B6
:100E30007B697A681A447B6905331178BA68D154A2
:100E40007B6901337B617B693A689A42F0D83B69E0
:100E5000013BBA680421D15400210E4801F0FAFA8E
:100E6000B968AAB20023009300230A4801F0ACFB42
:100E7000074B1A683B681344054A13600021054874
:100E800001F05EFBB54600BF1C37BD46F0BD00BF9C
:100E9000584600209C47002080B582B000AFFFF785
:100EA000A7FD78607B6803F480737B607B68002B10
:100EB00011D00C4B93F90030DBB219460A48FFF70A
:100EC000A7FB084B93F90030DB435AB2054B1A706D
:100ED000064B00221A60082002F080FD00BF083790
:100EE000BD4680BD5C4600201447002054460020CB
:100EF00080B5C8B002AF0B2387F80431002387F810
:100F00000531002387F80631002387F807310023D5
:100F100087F808313E4B1B785A1CD1B23C4A1170FD
:100F2000184607F586730A22194603F077F9394AFD
:100F300007F586731946104600F08AF9FFF758FD49
:100F4000C7F81001D7F8103103F40073C7F8103157
:100F5000D7F81031002B05D12E4B2F49184600F041
:100F600077F94DE02B4B2D49184600F071F93A1DE9
:100F700007F582714FF480730093134605222848C9
:100F800001F022FB0023C7F8143135E0214B25493D
:100F9000184600F05DF907F586730A221946D7F85E
:100FA000140103F03BF91B4A07F5867319461046F6
:100FB00000F04EF9174B1C49184600F049F93A1D4C
:100FC000D7F8143113441B78184607F586730A22A4
:100FD000194603F023F90F4A07F5867319461046A0
:100FE00000F036F90B4B1149184600F031F9D7F8EB
:100FF00014310133C7F81431D7F81431FF2BC5DD94
:10100000092002F0EBFC00BF07F58C77BD4680BDE0
:101010005D4600205C470020C0430020D0430020F4
:101020009C470020E4430020EC430020F0430020D4
:1010300080B500AF0A2002F0D1FC00BF80BD016086
:101040007047006870470EB503FA01F303EA020324
:1010500001686FEA020201EA020141EA030101604C
:101060000EBD006800EA020020FA01F0704701801E
:101070007047008870470EB503FA01F303EA0203D4
:1010800001886FEA020201EA020141EA03010180DC
:101090000EBD008800EA020020FA01F070470170DE
:1010A0007047007870470EB503FA01F303EA0203B4
:1010B00001786FEA020201EA020141EA03010170CC
:1010C0000EBD007800EA020020FA01F0704700002F
:1010D00080B483B000AF0346FB71FB7903F01F02BD
:1010E000064997F907305B09012000FA02F241F83E
:1010F000232000BF0C37BD4680BC704700E100E0F4
:1011000080B483B000AF0346FB71FB7903F01F028C
:10111000074997F907305B09012000FA02F26033B2
:1011200041F8232000BF0C37BD4680BC704700BF8C
:1011300000E100E080B483B000AF78600B46FB7044
:101140007B6803F070427B685B0123F07E4323F0F1
:101150001F031343FA789200134403F100731A46F5
:101160000123136000BF0C37BD4680BC704780B4BC
:1011700083B000AF78600B46FB707B6803F0704271
:101180007B685B0123F07E4323F01F031343FA784F
:101190009200134403F100731A460023136000BF4A
:1011A0000C37BD4680BC704780B483B000AF786018
:1011B0000B46FB707B6803F070427B685B0123F099
:1011C0007E4323F01F031343FA789200134403F184
:1011D00000731B68DBB218460C37BD4680BC7047F5
:1011E00080B584B000AFF860B9601346FB71FB684E
:1011F000144A934204D0FB68134A934200D000BEC5
:10120000FB791A46B968F86800F04AFAFB681B686F
:10121000303303211846FFF7AAFFFB681B683433FD
:1012200002211846FFF7A3FFFB681B683833002133
:101230001846FFF79CFFFB68044A5A6200BF10374C
:10124000BD4680BD5C4700201C470020811A00205D
:1012500080B487B000AF7860396000237B617B6821
:10126000264A934204D07B68254A934200D000BEB0
:101270003B68002B00D100BE7B68204A934203D01C
:101280007B681F4A934233D13B68002B30D03A68C9
:101290007B6913441B78FB7327E07B681B681B7D0D
:1012A000BB737B685A7BBB7B1343DAB27B685A7390
:1012B000BB7B03F02003002BEFD000233B610EE04B
:1012C0007B681B68FA7B1A703B6901333B617B6961
:1012D00001337B613A687B6913441B78FB73FB7BAA
:1012E000002B02D03B690F2BEAD9FB7B002BD4D11A
:1012F00000BF1C37BD4680BC704700BF5C47002064
:101300001C47002080B487B000AFF860B9607A60F5
:1013100000237B610023FB74FB68274A934204D0BF
:10132000FB68264A934200D000BEBB68002B00D168
:1013300000BE7B68002B00D100BEFB681E4A9342B2
:1013400003D0FB681D4A934230D1BB68002B2DD0DF
:101350007B68002B2AD0FB681B681B7DFB74FB6835
:101360005A7BFB7C1343DAB2FB685A7315E0FB68C7
:101370001A68B9687B690B441278D2B21A707B691B
:1013800001337B61FB681B681B7DFB74FB685A7B28
:10139000FB7C1343DAB2FB685A73FB7C03F0010356
:1013A000002B03D07A697B689A42E0D37B691846A8
:1013B0001C37BD4680BC70475C4700201C4700209E
:1013C00080B582B000AF78600B467B807B68234A93
:1013D000934204D07B68224A934200D000BE7B88AF
:1013E0004FF6FF72934200D100BE7B681B4A9342C6
:1013F00003D07B681A4A93422CD17B884FF6FF7248
:10140000934227D07B6893F904301846FFF778FEA3
:101410007B681B681B79D9B27B88DBB203F00F03B2
:10142000DAB27B681B680A43D2B21A717B681B6808
:1014300093F82430D9B27B881B09DAB27B681B6829
:101440000A43D2B283F824207B6893F9043018460B
:10145000FFF73EFE00BF0837BD4680BD5C47002059
:101460001C47002080B584B000AFF860B960134617
:10147000FB71FB68234A934204D0FB68224A9342E3
:1014800000D000BEBB68002B00D100BEFB79C02B92
:1014900000D900BEFB681B4A934203D0FB681A4A7E
:1014A00093422BD1BB68002B28D0FB79C02B25D8C9
:1014B000FB68BA681A62FB681B681B7ADBB25BB216
:1014C00003F03F035AB297F9073013435AB2FB684F
:1014D0001B68D2B21A72FB6893F904301846FFF702
:1014E0000FFEFB681B68043300211846FFF722FE3D
:1014F000FB6893F904301846FFF7EAFD00BF103788
:10150000BD4680BD5C4700201C470020684620F097
:1015100007018D4689B500AF044800F0ADF900BF62
:10152000BD46BDE889408546704700BF5C47002046
:10153000684620F007018D4689B500AF044800F0E9
:101540009BF900BFBD46BDE889408546704700BF96
:101550001C47002080B588B000AF786039607B6898
:101560004B4A934204D07B684A4A934200D000BE63
:101570007B68474A934204D07B68464A934240F0D6
:1015800082807B683A689A6002F0F4FC7B68404A8B
:10159000934203D1404B1B68FB6102E03F4B1B6849
:1015A000FB61FB69DA003B68B2FBF3F3BB61BB692B
:1015B0005B087B617B699B093B613B699B017A69A5
:1015C000D31AFB603B69DB01BA69D21AFB685B0086
:1015D000D31AFA681344FB603B69B3F5803F00D32C
:1015E00000BE3B69B3F5803F4DD23B69012B2AD940
:1015F0007B681B680C3307211846FFF79BFD3B698E
:101600001A0A7B681B68D2B21A717B681B683A6938
:10161000D2B21A707B681B680C3307211846FFF79B
:10162000A6FD7B681B68303307211846FFF782FD53
:10163000FB68FF2B00D900BE7B681B68FA68D2B23A
:1016400083F83C201FE07B681B680C330721184699
:10165000FFF770FD3B691A0A7B681B68D2B21A71EA
:101660007B681B683A69D2B21A707B681B680C33BE
:1016700007211846FFF77BFD7B681B683033072185
:101680001846FFF774FD00BF2037BD4680BD00BF80
:101690005C4700201C47002014460020184600200C
:1016A00080B584B000AFF860B9601346FB71FB6889
:1016B0006D4A934204D0FB686C4A934200D000BE4E
:1016C000FB68694A934216D1FB684FF080421A606A
:1016D000FB680A221A71664B9B6C654A43F08003D3
:1016E00093640A20FFF70CFD614B9B6C604A23F06A
:1016F0008003936414E0FB685E4A1A60FB680B2267
:101700001A715B4B9B6C5A4A43F4807393640B20B1
:10171000FFF7F6FC564B9B6C554A23F48073936499
:10172000FB681B6800221A71FB681B6800221A7292
:10173000FB681B68083301211846FFF7FBFCFB68B8
:101740001B68083302211846FFF7F4FCFB681B688E
:10175000083300211846FFF7EDFCFB681B681033C7
:1017600004211846FFF703FDFB681B6810330521B1
:101770001846FFF7FCFCFB681B6834330121184650
:10178000FFF7F5FCFB681B68343300211846FFF7B0
:10179000EEFCFB681B68383301211846FFF7E7FCB5
:1017A000FB681B68303305211846FFF7E0FCFB6837
:1017B0001B68303306211846FFF7D9FCFB681B680D
:1017C000303307211846FFF7D2FCFB681B6838331B
:1017D00003211846FFF7CBFCFB681B68002283F847
:1017E0004420FB681B68002283F84820FB681B68C4
:1017F000002283F84C20B968F868FFF7ABFEFB685D
:101800001B68FA791A73FB68BA689A60FB68FA7900
:101810001A73FB6800225A61FB6800221A61FB6898
:1018200000229A61FB6800221A62FB6800225A6259
:10183000FB680022DA61FB6800229A62FB680022E2
:10184000DA62FB6800221A63FB6800225A63FB68B5
:1018500000229A63FB680022DA63FB6800225A7355
:1018600000BF1037BD4680BD5C4700201C470020EC
:10187000008003400000014080B584B000AF786074
:101880007B687D4A934204D07B687C4A934200D0B7
:1018900000BE7B68784A934204D07B68774A9342C3
:1018A00040F0DA807B681B681B7ADBB203F00F0321
:1018B000FB73FB7B0C2B00F2CD8001A252F823F0CE
:1018C000F5180020551A0020131900206D1900206A
:1018D00031190020551A00204F190020551A0020F8
:1018E000551A0020551A0020551A0020551A0020BC
:1018F000311900207B689B6A002B00D100BE7B68F9
:101900009B6A002B00F0AA807B689B6A78689847E6
:10191000A4E07B685B6A002B00D100BE7B685B6A39
:10192000002B00F09D807B685B6A7868984797E0A1
:101930007B681B6A002B00D100BE7B681B6A002BF2
:1019400000F090807B681B6A786898478AE07B6823
:10195000DB69002B00D100BE7B68DB69002B00F047
:1019600083807B68DB69786898477DE07B681B68CB
:10197000283300211846FFF717FC0346002B0CD034
:101980007B68DB6A002B00D100BE7B68DB6A002B22
:1019900003D07B68DB6A786898477B681B682833CC
:1019A00001211846FFF700FC0346002B0CD07B6892
:1019B0001B6B002B00D100BE7B681B6B002B03D080
:1019C0007B681B6B786898477B681B68283302210B
:1019D0001846FFF7E9FB0346002B0CD07B685B6BD6
:1019E000002B00D100BE7B685B6B002B03D07B68B3
:1019F0005B6B786898477B681B682833032118461F
:101A0000FFF7D2FB0346002B0CD07B689B6B002BAF
:101A100000D100BE7B689B6B002B03D07B689B6B67
:101A2000786898477B681B68283304211846FFF7BD
:101A3000BBFB0346002B19D07B68DB6B002B00D16E
:101A400000BE7B68DB6B002B10D07B68DB6B78689B
:101A500098470BE000BE0AE000BF08E000BF06E0C8
:101A600000BF04E000BF02E000BF00E000BF00BF15
:101A70001037BD4680BD00BF5C4700201C470020DA
:101A800080B586B000AF78607B68354A934204D059
:101A90007B68344A934200D000BE7B681B69002BF0
:101AA00000D100BE7B685B69002B00D100BE7B6863
:101AB0002B4A934203D07B682A4A93424CD17B68DD
:101AC0001B69002B48D07B685B69002B44D07B6886
:101AD0001B681B7DFB737B685A7BFB7B1343DAB26D
:101AE0007B685A73FB7B03F02003002B24D0102368
:101AF0003B617B685A697B689B69D31ABB60BB6892
:101B00000F2B01D8BB683B6100237B6110E07B6831
:101B10001A697B689B691A447B681B6812781A7083
:101B20007B689B695A1C7B689A617B6901337B6186
:101B30007A693B699A42EAD37B689A697B685B69F8
:101B40009A4209D17B6800225A617B681B68043382
:101B500001211846FFF70BFB00BF1837BD4680BDBB
:101B60005C4700201C47002080B582B000AF0F4BBF
:101B70005B68FB710D4B9B68DAB2FB791340FB711C
:101B8000FB7903F00203BB71BB79002B01D000F09D
:101B9000E5F8FB7903F001037B717B79002B01D021
:101BA00000F006F800BF0837BD4680BD0060014068
:101BB00080B584B000AF624B1B78022B3DD0052B63
:101BC00068D0012B40F0AA805E4B1B889BB2002B93
:101BD0002FD05D4B1A685B4B1B889BB21946104691
:101BE00000F00AFAF860574B1B889BB21A46FB6854
:101BF00093420FD2534B1B889AB2FB689BB2D31A05
:101C00009AB2504B1A80504B1A68FB6813444E4AE4
:101C1000136090E04B4B00221A804C4B1B68002B4A
:101C200003D0474B02221A7085E0454B03221A70FD
:101C300081E000BE00F0BAF97DE0444B1B68002B48
:101C400024D0434B1A68414B1B681946104600F0DC
:101C5000D3F9B8603D4B1B68BA689A420CD23B4B33
:101C60001A68BB68D31A394A1360394B1A68BB68C3
:101C70001344374A13605EE0364B9B68354A23F0C5
:101C8000010393602E4B03221A7054E000BE00F053
:101C90008DF950E02D4B1B68002B1BD12E4B1B6880
:101CA000002B14D02C4B1B68294898470246274B21
:101CB0001A60264B1B68002B0CD1264B9B68254ACB
:101CC00023F0010393601E4B03221A7002E000BE52
:101CD00000F06CF91D4B1B68002B09D11D4B9B6854
:101CE0001C4A23F001039360154B03221A7022E073
:101CF000174B1A68154B1B681946104600F07CF903
:101D00007860124B1A687B68D31A104A1360104B24
:101D10001A687B6813440E4A13600CE00D4B9B68F5
:101D20000C4A23F001039360002000F01FF9044BDC
:101D300000221A7000BF00BF1037BD4680BD00BF33
:101D40008146002064460020604600206C4600204A
:101D500068460020006001407C46002080B584B0C9
:101D600000AF7C4B1B69FB81FB8923F4FF4323F00D
:101D70007F03BB81FB89FB72774B1B78052B00F23D
:101D8000D68001A252F823F0A11D00201B1F0020C5
:101D90001B1F0020F91D0020471E0020EF1E002001
:101DA000BB89002B00F0CA80FB7AF12B06D0FB7AAE
:101DB000BB72BB7A184600F04FF9BFE0674B0022B8
:101DC0001A80674B1B68654A128892B21344FA7AEC
:101DD0001A70624B1B889BB201339AB25F4B1A8018
:101DE0005F4B1B685D4A128892B2134400221A703E
:101DF000594B04221A70A1E0BB89002B00F0A0808F
:101E0000FB7A7B72574B1B78DBB27A7A9A4215D1F8
:101E1000524B00221A80524B1B68504A128892B2D1
:101E200013447A7A1A704D4B1B889BB201339AB2D5
:101E30004A4B1A80484B04221A7081E07B7A18467C
:101E400000F00AF97CE0BB89002B06D0FB7A3B72DC
:101E50003B7A184600F000F974E0414B1A683F4B9A
:101E60001B889BB2013B13441B78F12B16D13C4BD2
:101E70001B683A4A128892B21344FA7A1A70384BA5
:101E80001A68364B1B889BB2013B13441B781846DB
:101E900000F0E2F8304B00221A7053E02F4B1B8801
:101EA0009AB2314B1B889A4210D2FB7AFB712C4BB1
:101EB0001B682A4A128892B21344FA791A70274B87
:101EC0001B889BB201339AB2244B1A80234B1B8888
:101ED0009AB2254B1B889A4234D1204B1B889BB267
:101EE000184600F043F81C4B00221A702AE0BB8908
:101EF000002B0BD11A4B1B680133FA7A1A7002209F
:101F000000F034F8144B00221A701EE0FB7ABB710B
:101F1000BB79184600F0A0F817E0BB89002B13D05E
:101F2000FB7A7B717B79184600F096F80CE0002074
:101F300000F01CF8084B00221A7006E000BF04E015
:101F400000BF02E000BF00E000BF00BF1037BD4689
:101F500080BD00BF00600140814600207646002021
:101F6000704600205E4600207446002080B582B096
:101F700000AF0346FB800A4B1B68002B0CD0084BBC
:101F80001B68084A1268F98810469847044B0022DB
:101F90001A60054B00221A7000BF0837BD4680BD8D
:101FA00078460020704600208046002080B582B030
:101FB00000AF0E4B1B78DBB2002B13D00C4B1B88F1
:101FC0009BB21846FFF7D2FF0A4B1B68094A43F041
:101FD00001031360074B1B6803F001037B607B6800
:101FE000002BF7D100BF0837BD4680BD80460020DA
:101FF000764600200060014080B485B000AF786074
:102000003960144B1B68134A23F004031360002348
:10201000FB60104B5B6803F00103BB600DE07A6866
:10202000FB6813441A780B4B1A61FB680133FB60A1
:10203000084B5B6803F00103BB60BB68002B03D057
:10204000FA683B689A42EAD3FB6818461437BD46E3
:1020500080BC70470060014080B582B000AF03468D
:10206000FB71064B1B68002B04D0044B1B68FA79EC
:102070001046984700BF0837BD4680BD8446002003
:1020800080B483B000AF0346FB71FB7903F01F02FD
:10209000064997F907305B09012000FA02F241F87E
:1020A000232000BF0C37BD4680BC704700E100E034
:1020B00080B483B000AF0346FB71FB7903F01F02CD
:1020C000074997F907305B09012000FA02F2203333
:1020D00041F8232000BF0C37BD4680BC704700BFCD
:1020E00000E100E080B483B000AF0346FB71FB79F0
:1020F00003F01F02074997F907305B09012000FA36
:1021000002F2603341F8232000BF0C37BD4680BC8B
:10211000704700BF00E100E080B584B000AF786098
:102120007B68314A934204D07B68304A934200D0A6
:1021300000BE7B6893F904301846FFF7B9FF84228C
:102140000021786802F06CF87B6801225A62002353
:10215000FB810AE0FB897A680633DB0013444FF009
:10216000FF325A60FB890133FB81FB89072BF1D9D0
:102170007B681D4A934215D17B681D4A1A607B68B3
:1021800002221A711B4B9B6C1A4A43F4007393642E
:102190000220FFF7A7FF174B9B6C164A23F400732E
:1021A000936414E07B68144A1A607B6803221A71F6
:1021B000104B9B6C0F4A43F4806393640320FFF73A
:1021C00091FF0C4B9B6C0B4A23F4806393647B68F8
:1021D0001B681A687B681B6822F000421A6000BF07
:1021E0001037BD4680BD00BF204800209C4700201E
:1021F00000100040008003400010014080B58AB00C
:1022000000AF78607B681B681B687B627B681B681B
:102210009B693B627B681B685B68FB617B681B6832
:102220009B6ABB617B681B681B6B7B617B681B685F
:102230005B6B3B617B681B68DB69FB607B68354AD5
:1022400093421DD17B68344A1A607B6802221A715E
:10225000324B9B6C314A43F4007393640220FFF7C6
:1022600041FF2E4B9B6C2D4A23F4007393647B68D3
:102270001B681A687B681B6822F000421A601CE029
:102280007B68274A1A607B6803221A71234B9B6C78
:10229000224A43F4806393640320FFF723FF1F4B1C
:1022A0009B6C1E4A23F4806393647B681B681A68E6
:1022B0007B681B6822F000421A607B6A23F00103EE
:1022C0007B627B681B687A6A1A607B681B683A6A63
:1022D0009A617B681B68FA695A607B681B681A6898
:1022E0007B681B6842F001021A607B681B68BA6950
:1022F0009A627B681B687A691A637B681B683A6913
:102300005A637B681B68FA68DA6100BF2837BD46EC
:1023100080BD00BF20480020001000400080034026
:102320000010014080B586B000AFF8607A603B6075
:102330000B46FB72FB68454A934204D0FB68444A53
:10234000934200D000BEFB7A072B00D900BE97F85D
:102350002030202B00D900BE3B68012B00D800BEE6
:102360003B68B3F5007F00D900BE3B6803F0010372
:10237000002B00D000BEFB6893F904301846FFF72D
:1023800097FEFB68002283F88020FB681B681A68B0
:10239000FB681B6822F001021A60FB681B681A6860
:1023A000FB681B6842F002021A60FB681B681A682F
:1023B000FB681B6842F001021A60FB7A072B3AD8CF
:1023C0007B68002B0BD07B68B3F1007F07D07B6864
:1023D000B3F1807F03D07B68B3F1407F0BD1FB7AF0
:1023E0007A6842F0505242F48172F9680633DB0099
:1023F0000B445A600AE0FB7A7A6842F0405242F499
:102400008172F9680633DB000B445A60FB7AFA6884
:102410000633DB00134497F820201A723B685B08F0
:10242000013B7B61FB7A7A69D1B2FA680633DB0043
:1024300013440A465A72FB6893F904301846FFF7B2
:102440001FFE00BF1837BD4680BD00BF20480020DA
:102450009C47002080B584B000AF78600B46FB70CD
:102460007B68354A934204D07B68344A934200D05B
:1024700000BE7B681B681B6803F00203022B00D0C0
:1024800000BEFB787A680633DB0013445B68B3F167
:10249000FF3F00D100BE7B6893F904301846FFF778
:1024A00007FE7B681B689B6803F00403FB60FB6806
:1024B000002B02D07868FFF7A1FE7B681B681A68C2
:1024C0007B681B6822F001021A60FB787A68126848
:1024D00079680633DB000B445B681360FB787A682D
:1024E0000633DB0013445A7A7B681B689A61FB78D9
:1024F0007A680633DB0013441A7A7B681B685A60DB
:102500007B681B681A687B681B6842F001021A60CE
:102510007B681B68D969FB7801229A407B681B683D
:102520000A43DA617B6893F904301846FFF7A8FD87
:1025300000BF1037BD4680BD204800209C470020CA
:1025400080B584B000AF78600B46FB707B681C4A96
:10255000934204D07B681B4A934200D000BE7B6844
:102560001B681B6803F00203022B00D000BE7B68CF
:1025700093F904301846FFF79BFD7B681B689B6846
:1025800003F00403FB60FB68002B02D07868FFF7C0
:1025900035FE7B681B68D969FB78012202FA03F3D8
:1025A000DA437B681B680A40DA617B6893F9043080
:1025B0001846FFF765FD00BF1037BD4680BD00BF60
:1025C000204800209C47002080B58EB000AFF86006
:1025D000B9603B601346FB800023FB8600237B85AC
:1025E000FB68744A934204D0FB68734A934200D05C
:1025F00000BEFB681B681B6803F00203022B00D0BF
:1026000000BEFA88B7F8403013447B847B8C002BE3
:1026100002D10123FB6201E07B8CFB62FB681B683B
:10262000DA6AFB681B6842F00C02DA62FB681B681E
:102630009B6803F00403FB61FB69002B02D0F86880
:10264000FFF7DCFDFB681B681A68FB681B6822F05B
:1026500001021A60FB681B681B6823F47F0222F4E6
:102660007F42FB6A1B0223F07F4323F0FF03F968DC
:10267000096813430B60FB681B6808225A60FB68FB
:102680001B681A68FB681B6842F001021A60FB684D
:102690001B689B6803F040037B6209E0FB681B68D2
:1026A0001B697B61FB681B689B6803F040037B62CE
:1026B0007B6A002BF2D00023BB8600237B86BA8E78
:1026C000FB889A420DD2BB8EBA6813441A78FB6815
:1026D0001B685A61BB8E0133BB867B8D01337B85C2
:1026E0005FE0BA8E7B8C9A425BD2FB681B6800224B
:1026F0005A61BB8E0133BB867B8D01337B8550E0F5
:10270000FB681B689B6803F040037B627B6A002BBD
:102710001BD1FB681B681B697B61FA8EFB889A42A0
:102720000DD37A8EB7F840309A4205D279697B8E04
:102730003A681344CAB21A707B8E01337B86FB8ED3
:102740000133FB867B8D013B7B85FB681B689B68A7
:1027500003F48073BB61BB69002B22D17B8D032BFB
:102760001FD8BA8EFB889A420DD2BB8EBA6813442A
:102770001A78FB681B685A61BB8E0133BB867B8D60
:1027800001337B850DE0BA8E7B8C9A4209D2FB68BF
:102790001B6800225A61BB8E0133BB867B8D0133DF
:1027A0007B85FA8E7B8C9A42AAD300BF3837BD4610
:1027B00080BD00BF204800209C47002080B485B029
:1027C00000AF78600023FB600DE07B689A687B684F
:1027D0001B6913441A787B681B685A617B681B6904
:1027E0005A1C7B681A617B681B689B6803F48073C2
:1027F000002B05D17B681A697B68DB689A42E4D3B9
:102800007B681A697B68DB689A421BD30DE07B68A2
:102810005A697B68DB6913441A787B681B685A61C4
:102820007B68DB695A1C7B68DA617B681B689B6884
:1028300003F48073002B05D17B68DA697B689B69A0
:102840009A42E4D37B685B6A002B1DD07B681A69CF
:102850007B68DB689A4217D37B68DA697B689B697F
:102860009A4211D306E07B681B6800225A61FB681C
:102870000133FB607B681B689B6803F48073002B4B
:1028800002D1FB681F2BEED900BF1437BD4680BCB8
:10289000704780B584B000AF78607B6893F8803073
:1028A000022B15D10CE07B681B681B69FB607B6801
:1028B0005B6F002B04D07B685B6FFA68104698470B
:1028C0007B681B689B6803F04003002BEBD02FE074
:1028D0007B6893F88030012B23D116E07B681B685E
:1028E0001B69FB607B681A6B7B68DB6A9A4207D2C4
:1028F000F9687B689A6A7B681B6B1344CAB21A70CA
:102900007B681B6B5A1C7B681A637B681B689B681F
:1029100003F04003002BE1D00AE07B681B681B69D1
:10292000FB607B681B689B6803F04003002BF4D0BE
:1029300000BF1037BD4680BD80B586B000AF78605F
:102940007B681B6820337B617B68984A934204D084
:102950007B68974A934200D000BE7B691B6803F0F6
:102960000203002B4ED07B6893F88030022B15D1E8
:102970000CE07B681B681B69FB607B685B6F002B4E
:1029800004D07B685B6FFA68104698477B681B68C9
:102990009B6803F04003002BEBD02FE07B6893F89B
:1029A0008030012B23D116E07B681B681B69FB601C
:1029B0007B681A6B7B68DB6A9A4207D2F9687B688E
:1029C0009A6A7B681B6B1344CAB21A707B681B6BD4
:1029D0005A1C7B681A637B681B689B6803F0400382
:1029E000002BE1D00AE07B681B681B69FB607B68F9
:1029F0001B689B6803F04003002BF4D07B681B68C6
:102A00000222DA607B691B6803F00103002B11D0FE
:102A10007B6893F88030022B05D17B681B687A684D
:102A2000926F5A6102E07868FFF7C8FE7B681B6806
:102A30000122DA607B691B6803F01003002B20D0B1
:102A40007868FFF726FF7B681B6A002B0AD07B683B
:102A50001B6A7A68906A7A68126B114698477868A0
:102A6000FFF7ACFE7B6801225A627B681B689A6A9A
:102A70007B681B6822F010029A627B681B68102238
:102A8000DA607B691B6803F00403002B0ED07B68BF
:102A90001B68DA6A7B681B6842F00402DA627868B5
:102AA000FFF7ACFB7B681B680422DA607B691B685C
:102AB00003F00803002B2DD07B681B68DA6A7B6863
:102AC0001B6842F00802DA627B6893F88030022BC0
:102AD00011D17B681B681B6823F47F0323F47F43B9
:102AE0007A68126843F4807313607B681B687A68A5
:102AF000926F5A610AE07B6893F88030012B05D110
:102B00007B6800221A617868FFF758FE7B681B68B3
:102B10000822DA607B691B6803F02003002B41D098
:102B20007868FFF7B6FE7B681B6B3B617B681B6AAE
:102B3000002B17D07B6800225A627B6800225A6102
:102B40007B6800229A617B680022DA617B681B68DF
:102B50001022DA607B681B689A6A7B681B6842F007
:102B600010029A627B6800221A617B681B68DA6A2D
:102B70007B681B6842F00C02DA627868FFF71EFE81
:102B80007B6800221A637B68DB6F002B06D07B68B2
:102B9000DB6F7A68926A3969104698477B681B68D0
:102BA0002022DA6000BF1837BD4680BD20480020D3
:102BB0009C470020684620F007018D4689B500AF8C
:102BC0000448FFF7B9FE00BFBD46BDE88940854611
:102BD000704700BF20480020684620F007018D465E
:102BE00089B500AF0448FFF7A7FE00BFBD46BDE8AA
:102BF00089408546704700BF9C47002080B483B061
:102C000000AF0346FB71FB7903F01F02074997F9F8
:102C100007305B09012000FA02F2203341F823203B
:102C200000BF0C37BD4680BC704700BF00E100E02C
:102C300080B483B000AF78607B6893F86830002B75
:102C400003D07B689B6901229A6000BF0C37BD46A8
:102C500080BC704790B585B000AF78600123FB73EE
:102C60007B68E74A934204D07B68E64A934200D0EF
:102C700000BE7B685B691B79FB72FB7ADBB2083BA9
:102C8000D02B00F2D78301A252F823F0D12F0020DD
:102C90003534002035340020353400203534002010
:102CA000353400203534002035340020D12F002069
:102CB00035340020353400203534002035340020F0
:102CC0003534002035340020353400206D300020AC
:102CD00035340020353400203534002035340020D0
:102CE0003534002035340020353400204F300020AA
:102CF00035340020353400203534002035340020B0
:102D00003534002035340020353400206D3000206B
:102D1000353400203534002035340020353400208F
:102D2000353400203534002035340020F3300020C5
:102D3000353400203534002035340020353400206F
:102D40003534002035340020353400204530002053
:102D5000353400203534002035340020353400204F
:102D60003534002035340020353400201131002066
:102D7000353400203534002035340020353400202F
:102D80003534002035340020353400205531002002
:102D9000353400203534002035340020353400200F
:102DA00035340020353400203534002073310020C4
:102DB00035340020353400203534002035340020EF
:102DC000353400203534002035340020A731002070
:102DD00035340020353400203534002035340020CF
:102DE00035340020353400203534002037320020BF
:102DF00035340020353400203534002035340020AF
:102E00003534002035340020353400202F320020A6
:102E1000353400203534002035340020353400208E
:102E2000353400203534002035340020373200207E
:102E3000353400203534002035340020353400206E
:102E40003534002035340020353400202F32002066
:102E5000353400203534002035340020353400204E
:102E60003534002035340020353400206D32002008
:102E7000353400203534002035340020353400202E
:102E80003534002035340020353400200332002052
:102E9000353400203534002035340020353400200E
:102EA0003534002035340020353400206D320020C8
:102EB00035340020353400203534002035340020EE
:102EC0003534002035340020353400200332002012
:102ED00035340020353400203534002035340020CE
:102EE000353400203534002035340020C332002032
:102EF00035340020353400203534002035340020AE
:102F0000353400203534002035340020853300204E
:102F1000353400203534002035340020353400208D
:102F2000353400203534002035340020853300202E
:102F3000353400203534002035340020353400206D
:102F4000353400203534002035340020853300200E
:102F5000353400203534002035340020353400204D
:102F6000353400203534002035340020053400206D
:102F7000353400203534002035340020353400202D
:102F8000353400203534002035340020053400204D
:102F9000353400203534002035340020353400200D
:102FA00035340020353400203534002035340020FD
:102FB00035340020353400203534002035340020ED
:102FC0003534002035340020353400205D330020B6
:102FD0007B689B6900225A617B685A687B685B69E1
:102FE000D2B21A727B689B697A68D26AC3F80021F0
:102FF0007B68DB6A002B07D17B6800229A620AE0BB
:10300000A4480020184900207B68DB6A012B02D10C
:103010007B6800229A637B6893F87130002B03D0A1
:103020007B68002283F871207B681A7A7B6893F8AA
:1030300072309A4200F01D827B6893F872207B68A0
:103040001A7216E27B689B6901225A611CE27B6856
:103050009B6901221A617B68022283F83C207B680D
:1030600000221A727868FFF7E3FD0DE27B689A6A26
:103070007B685B6A9A420CD27B681A6A7B689B6A9F
:10308000581C796888621A447B685B6912781A72E6
:10309000FAE17B681B7A032B07D17B680122DA6295
:1030A0007B689B6901225A61EEE17B6800221A72FB
:1030B0007B681B7C03F00103BB737B68BA7B83F8DE
:1030C0007020BB7B002B07D17B689B6901221A61B2
:1030D0007868FFF7ADFD07E07B6893F9113018467B
:1030E000FFF78CFD0023FB737B68002283F83C20F4
:1030F000CAE17B689B6901221A617B68022283F81E
:103100003C207B6800221A727868FFF791FDBBE1D2
:103110007B685B6B012B04D97B689B6901229A60F9
:10312000B2E17B685B6B012B04D17B689B69002259
:103130009A60A9E17B689B6901229A607B689B6920
:1031400001221A617B68002283F83C207B68002200
:103150001A7299E17B689B6901221A617B680222DD
:1031600083F83C207B6800221A727868FFF760FDC4
:103170008AE17B685A697B68196B7B689B6B5C1C76
:10318000786884630B44127AD2B21A707B689A6BA7
:103190007B685B6B013B9A42C0F06D817B689B69E9
:1031A00000229A6067E17B685A697B68196B7B68CB
:1031B0009B6B0B44127AD2B21A707B681B7C03F0B3
:1031C0000103BB737B68BA7B83F87020BB7B002B49
:1031D00007D17B689B6901221A617868FFF728FD97
:1031E00007E07B6893F911301846FFF707FD0023CD
:1031F000FB737B6800221A727B68002283F83C20F4
:1032000042E17B689B6901229A607B6800221A7206
:103210007B68002283F85C207B6893F87130002B78
:1032200000F02B817B689B6901225A6125E17B6854
:10323000012283F871207B6804221A727B680022C5
:103240009A657B680022DA607B689B695B69002B6A
:1032500007D07B689B6900225A617B68012283F852
:1032600071207B68012283F85C200DE17B681B6D77
:10327000002B1AD07B689A6D7B685B6D9A4214D2E2
:103280007B685B691B7A7B737B681A6D7B689B6DBF
:10329000581C7968886513447A7B1A707B68DB68F0
:1032A0001A027B7B1A447B68DA607B689A6D7B68C4
:1032B0005B6D9A42C0F0E3807B689B6900229A6054
:1032C000DDE07B681B7A042B31D17B689A6D7B68CB
:1032D0001B6E9A4203D17B68DA687B68DA647B688C
:1032E0005B6E002B1ED07B685B6E7A68116D7A680E
:1032F000926D92B27868984703463B733B7B002BF4
:1033000007D17868FFF794FC7B689B6901229A607B
:1033100013E07B689B6900229A607B68002283F837
:1033200068200AE07B689B6901229A6005E07B685F
:103330000022DA647868FFF77BFC7B68002283F860
:103340005C207B6893F87130002B03D07B689B690D
:1033500001225A617B6800221A7295E07B68002284
:103360001A727B680022DA647B6893F85C30DBB207
:10337000012B03D17B68022283F85C207868FFF779
:1033800057FC81E0FB7ADBB2A82B16D17B680522C3
:103390001A727B680022DA607B68012283F85C2065
:1033A0007B689B695B69002B07D07B689B69002267
:1033B0005A617B68012283F871207B68DA6C7B6834
:1033C0009B6C9A4204D37B685B69FF221A720BE004
:1033D0007B685A6C7B68DB6C581C7968C8641A443B
:1033E0007B685B6912781A727B68DA6C7B689B6C0D
:1033F0009A4246D37B689B6900229A607B680022D0
:10340000DA643EE07B680022DA647B689B69012213
:103410009A607B68002283F85C207B6893F87130A7
:10342000002B03D07B689B6901225A617B680022D4
:103430001A7229E07B689B6900225A617B6800222E
:103440001A727B680022DA647B6893F83C30DBB246
:10345000012B03D17B68022283F83C207B6893F820
:103460005C30DBB2012B0ED17B68022283F85C203A
:1034700009E000BF08E000BF06E000BF04E000BFB5
:1034800002E000BF00E000BFFB7B002B03D07B68A5
:103490009B690022DA607B685B691B79FB7200BF65
:1034A0001437BD4690BD00BF684620F007018D4629
:1034B00089B500AF0448FFF7CDFB00BFBD46BDE8AE
:1034C00089408546704700BFA4480020684620F028
:1034D00007018D4689B500AF0448FFF7BBFB00BF6D
:1034E000BD46BDE889408546704700BF18490020A9
:1034F00080B485B000AFF860B9607A60FB704D4869
:103500004D4B1A68F97813469B001344DB010344C2
:1035100003F5E27319604949474B1A6813469B004B
:1035200013449B000B440433FA681A604349424B2E
:103530001A6813469B0013449B000B440833BA6877
:103540001A603E493C4B1A6813469B0013449B008B
:103550000B440C331B683948374A11681A0C1204A3
:103560000B469B000B449B0003440C331A607B68A2
:10357000B3F5803F0FD97B68A3F58033304A1361E0
:10358000BB6803F580332E4AD360FB6803F58033B4
:103590002B4A93601AE02949274B1A6813469B006F
:1035A00013449B000B440C331B687A6892B211469B
:1035B0002248214A1268194313469B0013449B007A
:1035C00003440C3319601E4B00221A611B491A4B2D
:1035D0001A6813469B0013449B000B440C331B6872
:1035E0001648154A126843F4E00113469B00134441
:1035F0009B0003440C3319600E490F4B1A681346A5
:103600009B001344DB010B4403F5E07301221A60B5
:103610000849094B1A6813469B001344DB010B440D
:1036200003F5E67300221A6000BF1437BD4680BC64
:10363000704700BF00002842A04600200040014023
:1036400088460020684620F007018D4689B500AF06
:10365000354A364B1B6803F52873012142F82310C5
:103660003349324B1A6813469B0013449B000B44AA
:103670000C331B682E482D4A126823F4E0011346D0
:103680009B0013449B0003440C331960274B1B68B9
:103690000133264A1360254B1B68042B02D1234BB0
:1036A00000221A60234B1B69002B17D0224B1B688A
:1036B000042B03D1204B00221A6004E01E4B1B6830
:1036C00001331D4A13601B4B98681A4BD968194B7C
:1036D0001A69184B1B7DFFF70BFF1EE01449134BB3
:1036E0001A6813469B0013449B000B440C331B6861
:1036F00003F4E003002B10D10C4B00221A600E4B98
:1037000000221A600B4B01221A700A4B5B68002BD7
:1037100003D0084B5B680120984700BFBD46BDE859
:1037200089408546704700BF00002842A44600201B
:103730000040014088460020A0460020684620F056
:1037400007018D4681B583B000AF384B1B683B60E5
:103750003B6803F470633B603B68002B2FD0344917
:10376000344B1A6813469B001344DB010B4403F5EA
:1037700002731B68002B0AD02F4B02221A702E4BAB
:103780005B68002B03D02C4B5B68022098472849CC
:10379000284B1A6813469B001344DB010B4403F5C6
:1037A00003731B68002B0AD0234B03221A70224B91
:1037B0005B68002B03D0204B5B68032098471B4BB2
:1037C0001B683B603B6803F470433B603B68002B25
:1037D0000AD0194B04221A70174B5B68002B03D0D8
:1037E000154B5B680420984700237B6014E0104968
:1037F0007A6813469B001344DB010B4403F5E47322
:1038000001221A600A4A7B6803F52873012142F8F5
:1038100023107B6801337B607B68032BE7D900BFF3
:103820000C37BD46BDE881408546704700400140E9
:1038300000002842A44600208846002080B483B0BF
:1038400000AF0346FB71FB7903F01F02064997F9AD
:1038500007305B09012000FA02F241F8232000BF83
:103860000C37BD4680BC704700E100E080B483B0F7
:1038700000AF0346FB71FB7903F01F02074997F97C
:1038800007305B09012000FA02F2203341F82320BF
:1038900000BF0C37BD4680BC704700BF00E100E0B0
:1038A00080B483B000AF0346FB71FB7903F01F02C5
:1038B000074997F907305B09012000FA02F26033EB
:1038C00041F8232000BF0C37BD4680BC704700BFC5
:1038D00000E100E080B582B000AF1A4B9B6C194A42
:1038E00043F480139364174B9B6C164A43F0F073B8
:1038F000936400237B6012E0134A7B68134493F9BE
:1039000000301846FFF7B2FF0F4A7B68134493F963
:1039100000301846FFF7C4FF7B6801337B607B688B
:103920001F2BE9D9074B9B6C064A23F0F073936475
:10393000044B9B6C034A23F48013936400BF083745
:10394000BD4680BD008003407444002080B485B033
:1039500000AF03463960FB71FB79FB60FB681F2BEE
:1039600000D900BEFB681F2B05D8054AFB6852F83A
:1039700023303A681A6000BF1437BD4680BC7047D8
:10398000F443002080B584B000AF0346FB71FB799F
:10399000FB60FB681F2B00D900BEFB681F2B15D8EE
:1039A0000C4AFB6852F823301B68BB60094AFB686D
:1039B00052F82330BA6842F008021A60064AFB68DF
:1039C000134493F900301846FFF738FF00BF103753
:1039D000BD4680BDF44300207444002080B485B00F
:1039E00000AF0346FB71FB79FB60FB681F2B00D91E
:1039F00000BEFB681F2B06D8064A0121FB6801FAAE
:103A000003F3C2F88030BFF34F8F00BF1437BD46B9
:103A100080BC70470030014080B483B000AF786054
:103A20000B46FB707B6803F070427B685B0123F000
:103A30007E4323F01F031343FA789200134403F1EB
:103A400000731A460123136000BF0C37BD4680BCCB
:103A50007047000080B584B000AF0D4BD3F89C31A7
:103A6000FB60FB6803F00103BB60BB68002B01D067
:103A700000F06EF8FB6803F010037B607B68002B9E
:103A800001D000F007F800BF1037BD4680BD00BF71
:103A90000010044080B584B000AF0023FB60294BC8
:103AA000B3F964301A4613469B0013449B00283335
:103AB000244A1344BB60234BB3F964309BB20133F7
:103AC0009BB21AB21F4BA3F864201E4BB3F96430AB
:103AD000012B03DD1B4B0022A3F8642000211A48B0
:103AE000FFF79AFF194BD3F894311B0CDBB2FB6044
:103AF000144BB3F960309BB201339BB21AB2114B35
:103B0000A3F860200F4B5B6D002B13D0BB681B68C4
:103B10007B60BB685B68C3F30B03043B3B60094BF2
:103B20005B6D002B06D0074B5B6DBA681269396874
:103B300078689847FB68002BB1D100BF1037BD46AD
:103B400080BD00BFA846002094110440001004402E
:103B500080B584B000AF0023BB60364BB3F95A3058
:103B6000B3F1FF3F00D100BE324BB3F95C30B3F18B
:103B7000FF3F00D100BE2F4BB3F85A30FB812D4BD5
:103B8000B3F958309BB201339BB21AB2294BA3F858
:103B90005820284B1B6D002B0DD0264B196DB7F903
:103BA0000E20244813469B0013449B00034410330B
:103BB0001B68184688471F4BB3F95C30B7F90E20D5
:103BC0009A420CD11B4B4FF6FF72A3F85A20194BA7
:103BD0004FF6FF72A3F85C200123BB601FE0FB8956
:103BE00001339BB2FB81B7F90E30012B01DD0023BD
:103BF000FB81104AFB89A2F85A30B7F90E200D4913
:103C000013469B0013449B000B4404331B6803F0D2
:103C100000437B607B68002B01D10123BB60002146
:103C20000548FFF7F9FEBB68002BA8D000BF10378E
:103C3000BD4680BDA84600208811044080B584B0F0
:103C400000AFF860B9607A603B60FB68BA681A60E0
:103C5000FB681B68083300211846FDF720FAFB6853
:103C60001B680C3300211846FDF719FAFB681B6826
:103C700079681846FDF7E3F93B68002B00D100BED8
:103C8000FB681B68043339681846FDF7D8F9FB68F0
:103C90001B68103300211846FDF7D1F9FB681B683B
:103CA000183300211846FDF7CAF9FB681B6820335A
:103CB00000211846FDF7C3F9FB681B682833002173
:103CC0001846FDF7BCF9FB681B6830330021184625
:103CD000FDF7B5F9FB681B68383300211846FDF77E
:103CE000AEF9FB681B68403300211846FDF7A7F9C1
:103CF000FB681B68483300211846FDF7A0F9FB68F4
:103D00001B68503300211846FDF799F9FB681B68C2
:103D1000583300211846FDF792F9FB681B686033A1
:103D200000211846FDF78BF9FB681B6868330021FA
:103D30001846FDF784F9FB681B68703300211846AC
:103D4000FDF77DF9FB681B68783300211846FDF705
:103D500076F9FB681B68803300211846FDF76FF980
:103D6000FB681B68883300211846FDF768F900BF1F
:103D70001037BD4680BD000080B584B000AF7860CC
:103D80000B46FB70FB78002B00D100BEFB78102B9C
:103D900000D900BEFB78002B32D0FB78102B2FD837
:103DA000FB78194AD35CFB73FB78082B14D87B682B
:103DB0001B6808331846FDF774F90346BB73BA7BDA
:103DC000FB7B1343BB737B681B680833BA7B1146CC
:103DD0001846FDF764F913E07B681B680C3318463E
:103DE000FDF75FF90346BB73BA7BFB7B1343BB73E1
:103DF0007B681B680C33BA7B11461846FDF74FF9F8
:103E000000BF1037BD4680BD9444002080B584B00B
:103E100000AF78600B46FB70FB78002B00D100BE32
:103E2000FB78102B00D900BEFB78002B36D0FB7836
:103E3000102B33D8FB781B4AD35CFB73FB78082B21
:103E400016D87B681B6808331846FDF72AF9034625
:103E5000BB73FB7BDB43DAB2BB7B1340BB737B687A
:103E60001B680833BA7B11461846FDF718F915E0B0
:103E70007B681B680C331846FDF713F90346BB73C8
:103E8000FB7BDB43DAB2BB7B1340BB737B681B68F5
:103E90000C33BA7B11461846FDF701F900BF103705
:103EA000BD4680BD9444002080B586B000AFF86068
:103EB0000B467A60FB72FB7A002B00D100BEFB7AC6
:103EC000102B00D900BEFB7A002B3AD0FB7A102BC6
:103ED00037D87B68002B05D1FB7A1946F868FFF7C5
:103EE00095FF2EE0FB681A68FB7A184951F82330D9
:103EF000134400211846FDF7A2F8FB681A68FB7A04
:103F0000134951F82330134479681846FDF797F8A0
:103F1000FB7A0F4A52F823307B61FB681A687B6991
:103F200013441846FDF7BDF80346FB747B68DBB20B
:103F3000FA7C9A4200D000BEFB7A1946F868FFF777
:103F40001BFF00BF1837BD4680BD00BFA84400203E
:103F5000EC44002080B500AF00F0FAF8044B5B6938
:103F6000034A43F400735361FCF764FA00BF80BD59
:103F700000ED00E080B588B000AF304BD3F898304A
:103F800003F08063FB61FB69002B4CD12B4BD3F812
:103F9000983003F48053BB61BB69002B15D1284BCB
:103FA000284A1A60284B274A1A60284B254A1A606B
:103FB000274B284A1A60284B284A1A60284B214A66
:103FC0001A60284B1F4A1A6034E0274A3B1D92E8CA
:103FD000030083E80300194BD3F89C309B0903F0DE
:103FE00007037B613A1D7B6913441B78FB74FB7CE0
:103FF000012B0AD0022B0DD0002B0FD100F038F886
:10400000F860F86800F052F814E04FF4004000F057
:104010004DF80FE0154800F049F80BE0134800F0A8
:1040200045F800BF06E000F023F8F860F86800F0FB
:104030003DF8FFE700BF2037BD4680BD008003404C
:104040001046002000E1F505144600201846002027
:104050001C46002040787D012046002008AF2F003C
:1040600024460020284600203045002040420F0012
:1040700080B483B000AF0A4BD3F8503103F004038F
:104080003B603B68002B02D1064B7B6001E0064B96
:104090007B607B6818460C37BD4680BC704700BF0C
:1040A0000080034040787D0180F0FA0280B483B044
:1040B00000AF78600C4A7B6813600C4A7B68136021
:1040C0000B4A7B6813600B4B0B4A1A600B4A7B68E8
:1040D00013600B4A7B6813600A4A7B68136000BF59
:1040E0000C37BD4680BC70471046002014460020A7
:1040F000184600201C46002040787D012046002004
:10410000244600202846002080B483B000AF0E4B28
:10411000D3F84C313B603B684FF60202934204D027
:104120003B680A4A934203D005E001237B6005E027
:1041300002237B6002E000237B6000BF7B6818469F
:104140000C37BD4680BC70470080034002F8010078
:1041500080B582B000AFFFF7D7FF78607B68012B96
:1041600002D100F007F800E000BF00BF0837BD46ED
:1041700080BD000080B400AF094BD3F89830084AE6
:1041800043F48073C2F89830054BD3F89830044A52
:1041900023F08063C2F8983000BFBD4680BC7047F2
:1041A0000080034070B500260C4D0D4C641BA4101C
:1041B000A64209D100F0D4F900260A4D0A4C641B2E
:1041C000A410A64205D170BD55F8043B98470136AE
:1041D000EEE755F8043B98470136F2E778450020B2
:1041E00078450020784500207C450020931E222B36
:1041F00010B50C4604D900231C460B70204610BD98
:104200000A2A09D1002807DA2D230B700121404228
:10421000214400F00DF8F1E70021F9E7FFF7E6BFD0
:1042200003460244934200D1704703F8011BF9E7AB
:10423000F0B58BB007460C466D461C4B03F1200CC5
:104240002E4618685968083303C663453546F7D1CA
:1042500018681B7930603371931E222B4FF00001D8
:1042600004D921700C4620460BB0F0BD651EB7FB8B
:10427000F2F602FB16730DF1280C634413F8283C88
:10428000BA4201F1010005F8013F0CD90023621880
:104290002354C81A8342E6DAE05C1578E55402F844
:1042A00001090133F5E701463746E0E738450020CC
:1042B0007F7F7F7F7F0000001F111F0000021F0013
:1042C0001915120015151F0007041F0017151D00F2
:1042D0001F151D00011D03001F151F0007051F00EE
:1042E0001E051E001F150A000E1111001F110E00E1
:1042F0001F1515001F0505001F0505001F041F00E1
:10430000111F1100111F01001F041B0010101F00BE
:104310001F021F001F011E000E110E001F050200CC
:104320000E191E001F051A0012150900011F0100B9
:104330001F101F000F100F001F081F001B041B0081
:10434000071C0700191513007561727420696E69E6
:104350007469616C697A6564210A0D004E6F6B693E
:104360006120746573742073746172746564210ACA
:104370000D0000004E6F6B696120746573742066D8
:10438000696E6973686564210A0D0000007C121271
:104390007C000000007E52522C000000008804FACD
:1043A000FA0488000060114A4A116000F0F0F0F051
:1043B000F0F000007F7F7F7F1C0A1C003E2A140063
:1043C0002050696E2039206973206C6F770A0D00C8
:1043D0002050696E203920697320686967680A0D6A
:1043E000000000006164723A20000000203D2000BF
:1043F0000A0D000000300140043001400830014047
:104400000C300140103001401430014018300140A0
:104410001C30014020300140243001402830014050
:104420002C30014030300140343001403830014000
:104430003C300140403001404430014048300140B0
:104440004C30014050300140543001405830014060
:104450005C30014060300140643001406830014010
:104460006C300140703001407430014078300140C0
:104470007C30014032333435363738393A3B3C3DB5
:104480003E3F404142434445464748494A4B4C4DD4
:104490004E4F5051000102040810204080010204D8
:1044A0000810204080000000000000001000000004
:1044B000180000002000000028000000300000006C
:1044C00038000000400000004800000050000000DC
:1044D000580000006000000068000000700000004C
:1044E000780000008000000088000000000000004C
:1044F000140000001C000000240000002C0000003C
:10450000340000003C000000440000004C000000AB
:10451000540000005C000000640000006C0000001B
:10452000740000007C000000840000008C0000008B
:1045300000010001020203033031323334353637D3
:1045400038396162636465666768696A6B6C6D6E51
:104550006F707172737475767778797A00000000E5
:10456000F8B500BFF8BC08BC9E467047F8B500BF60
:10457000F8BC08BC9E46704719050020F1040020D5
:10458000B8420020BC420020C0420020C4420020AB
:10459000C8420020CC420020D0420020D44200205B
:1045A000D8420020DC420020E0420020E44200200B
:1045B000E8420020EC420020F0420020F4420020BB
:1045C000F8420020FC420020004300200443002069
:1045D000084300200C430020104300201443002017
:1045E000184300201C4300202043002024430020C7
:1045F000284300202C430020304300203443002077
:10460000384300203C430020404300204443002026
:1046100000E1F50500E1F50500E1F50540787D01D3
:1046200008AF2F0000E1F50500E1F50500000000EE
:040000052000019145
:00000001FF
