:020000042000DA
:1000000000000120910100207F03002081030020D7
:1000100083030020850300208703002000000000E8
:100020000000000000000000000000008903002024
:100030008B030020000000008D0300208F030020B0
:100040009103002093030020791D00209D1D0020B6
:100050006D2600209B0300209D0300209126002098
:10006000A1030020A3030020B10C0020D50C002028
:10007000A52B0020AB030020AD030020AF03002020
:10008000B1030020B3030020B50300200D130020AE
:10009000B9030020BB030020BD030020BF030020E4
:1000A000C1030020C3030020C5030020092800204D
:1000B00001290020CB030020CD030020CF03002026
:1000C000D1030020D3030020D5030020D703002054
:1000D000D9030020DB030020DD030020DF03002024
:1000E000E1030020E3030020E5030020E7030020F4
:1000F000E9030020EB030020ED030020EF030020C4
:10010000F1030020F3030020F5030020F703002093
:10011000F9030020FB030020FD030020FF03002063
:10012000010400200304002005040020070400202F
:10013000090400200B0400200D0400200F040020FF
:1001400011040020130400201504002017040020CF
:10015000190400201B0400201D0400201F0400209F
:10016000210400202304002025040020270400206F
:10017000290400202B0400202D0400202F0400203F
:1001800031040020330400200000000000000000C3
:100190004FF0000BDFF8BE020068DFF8B612096806
:1001A00001F0030100F01C00142801D14BF0020BF8
:1001B000002901D04BF0010BBBF1000F05D0A7487F
:1001C000A749DFF8722200F09FF8A64880470BF09D
:1001D000020ABAF1000F0CD0DFF86E02DFF86E12DF
:1001E00002680B680FB44FF000024FF0FF0302608B
:1001F0000B609D484FF000024FF00103022808D128
:10020000DFF83A120A60DFF83E120A60DFF83212B5
:100210000B60012808D1DFF82A120A60DFF82612E5
:100220000A60DFF81A120B609048002809D1904844
:100230009049914A00F030F890489149914A00F075
:100240002BF891489149924A00F026F8914892493A
:10025000DFF8E22100F058F8BBF1000F10D08F4812
:100260008F49DFF8D62100F04FF80BF0020ABAF1FF
:10027000000F05D00FBC02600B6000BFAFF3008021
:10028000DFF820020FF2030E00474FF000004FF09E
:100290000001DFF814F2FEE72DE9F841884225D08D
:1002A000B2EB010200D5FEE740EA010313F00303BD
:1002B00002D000F01DF819E04FF000039046121133
:1002C000F7D09A421CBFF0C8F0C103F10103F8D186
:1002D00008F00F08B8F1000F08D004780C7000F196
:1002E000010001F10101B8F10108F6D1BDE8F88182
:1002F00008B54FF0000303780B7000F1010001F125
:100300000101013AF7D108BD884237D000F0030659
:10031000002E14D04FF00405A5EB06044FF008079B
:1003200007FB06F8914669FA08F9002C07D080F817
:10033000009069FA07F900F10100013CF5E74FF080
:1003400000060F46091A88460911914614461546BB
:10035000B14206D018BFA0E8340206F10106B1424E
:10036000F8D108F00F08B8F1000F07D002704FEA7B
:10037000322200F10100B8F10108F4E77047FEE70E
:10038000FEE7FEE7FEE7FEE7FEE7FEE7FEE7FEE745
:10039000FEE7FEE7FEE7FEE7FEE7FEE7FEE7FEE735
:1003A000FEE7FEE7FEE7FEE7FEE7FEE7FEE7FEE725
:1003B000FEE7FEE7FEE7FEE7FEE7FEE7FEE7FEE715
:1003C000FEE7FEE7FEE7FEE7FEE7FEE7FEE7FEE705
:1003D000FEE7FEE7FEE7FEE7FEE7FEE7FEE7FEE7F5
:1003E000FEE7FEE7FEE7FEE7FEE7FEE7FEE7FEE7E5
:1003F000FEE7FEE7FEE7FEE7FEE7FEE7FEE7FEE7D5
:10040000FEE7FEE7FEE7FEE7FEE7FEE7FEE7FEE7C4
:10041000FEE7FEE7FEE7FEE7FEE7FEE7FEE7FEE7B4
:10042000FEE7FEE7FEE7FEE7FEE7FEE7FEE7FEE7A4
:10043000FEE7FEE7704700000000A2A2A2A2008033
:100440000340088003401080034030800340348024
:1004500003403880034018080240000000F00020EC
:1004600000000120A5300020000000000000000076
:10047000000000200000002090010020B0040020B7
:10048000B004002010350020103500201035002069
:1004900030350020303500208038002080380020A2
:1004A00000F00020F5320020D107002000000000FD
:1004B0000348044B834202D0034B03B118477047F3
:1004C0003035002030350020000000000548064986
:1004D000091A891001EBD171491002D0034B03B105
:1004E00018477047303500203035002000000000EC
:1004F00010B5064C237843B9FFF7DAFF044B13B16C
:100500000448AFF300800123237010BD3035002074
:1005100000000000E434002008B5054B1BB105497C
:100520000548AFF30080BDE80840FFF7CFBF00BF2C
:100530000000000034350020E434002080B582B093
:1005400000AF78600B46FB707B681B681C33FA7841
:100550001146184600F092FA00BF0837BD4680BD2C
:1005600080B582B000AF78600B46FB707B681B687B
:100570002033FA781146184600F080FA00BF083799
:10058000BD4680BD80B582B000AF78600B46FB7081
:100590007B681B681833FA781146184600F06EFA2B
:1005A00000BF0837BD4680BD80B582B000AF78601F
:1005B0000B46FB701346BB707B681B681C33FA78D4
:1005C0001146184600F05AFA7B681B682033BA7847
:1005D0001146184600F052FA7B681B68183318461B
:1005E00000F04EFA034618460837BD4680BD80B578
:1005F00082B000AF78600B46FB707B681B68FA78AE
:100600001146184600F03AFA00BF0837BD4680BDD3
:1006100080B586B000AF7860084611461A4603469A
:10062000FB700B46BB7013467B7000237B61BB786D
:100630003B612CE07B681B6820333A691146184601
:1006400000F01CFAFB78FB6018E07B681B681C3329
:10065000FA681146184600F011FA7B681B6803F12E
:1006600018007B695A1C7A611A467B6A13441B780E
:10067000194600F003FAFB680133FB60FA787B78D7
:100680001344FA689A42E0DB3B6901333B61BA7874
:1006900097F8203013443A699A42CBDB00BF1837F1
:1006A000BD4680BD80B584B000AF78600B46FB705E
:1006B0001346BB70FB78FB73BB78DB08BB73BB785E
:1006C00003F007037B737B681B681C33FA7B1146BE
:1006D000184600F0D3F97B681B682033BA7B1146BB
:1006E000184600F0CBF97B681B681833184600F0F9
:1006F000C7F903463B733A7B7B7B42FA03F3DBB2D9
:1007000003F00103DBB218461037BD4680BD80B54B
:1007100084B000AF7860084611461A460346FB7065
:100720000B46BB7013467B70FB78BB73BB78DB0852
:100730007B73BB7803F007033B733B7B012202FA18
:1007400003F3FB727B681B681C33BA7B11461846A7
:1007500000F094F97B681B6820337A7B11461846B9
:1007600000F08CF97B681B681833184600F088F994
:100770000346FB737B78002B09D197F90B30DB43E1
:100780005AB297F90F3013405BB2FB7303E0FA7B68
:10079000FB7A1343FB737B681B681833FA7B1146A3
:1007A000184600F06BF900BF1037BD4680BD000051
:1007B00080B483B000AF7860044A7B68C2F88830A8
:1007C00000BF0C37BD4680BC704700BF0030014001
:1007D00080B500AF00F016F84FF4612000F032F859
:1007E000064B0749184600F009FA00F03BF800F004
:1007F00051F800F057F800F089F8FEE74C36002079
:100800003C33002080B500AF02F046F9082002F02A
:100810007FF9092002F07CF964234FF47A724FF0DB
:10082000A041054802F0B2FA044B01221A70044BB1
:1008300002221A7000BF80BD003600200936002059
:100840000836002080B582B000AF7860044B0322E8
:100850007968184600F09AF900BF0837BD4680BD98
:100860004C36002080B500AF074B1B784622194656
:10087000064802F0C1FB064B1B78282219460348A4
:1008800002F0BAFB00BF80BD093600200036002010
:100890000836002080B500AF5F20FFF789FF00BF5A
:1008A00080BD000080B582B000AF164B164A1A60BA
:1008B00000237B601BE07B68DBB219461148FFF721
:1008C0004FFE00233B600CE03B68DBB219460D484D
:1008D000FFF734FEFF210B48FFF754FE3B6801335E
:1008E0003B603B68532BEFDD7B6801337B607B68AB
:1008F000052BE0DD03210348FFF779FE00BF083731
:10090000BD4680BD043600200001005090B58BB07C
:1009100002AF3B4A07F1180392E803001860043362
:100920001980384A07F1100392E803001860043375
:100930001980354B3C460FCB84E80F00334B3449CC
:10094000184600F05BF907F11803019301230093A7
:100950000623012213212F48FFF75AFE07F1100347
:100960000193012300930623032213212948FFF753
:100970004FFE3B46019302230093082302221C21D1
:100980002448FFF745FE032214212248FFF70CFEFE
:100990000346FB770023002201211E48FFF7B7FE24
:1009A00000232D2253211B48FFF7B1FE00231A22FA
:1009B0001A211848FFF7ABFE00231C221A21154804
:1009C000FFF7A5FE01231A221D211248FFF79FFE03
:1009D000012201210F48FFF765FE0346FB77002245
:1009E00001210C48FFF75EFE0346FB77074B0A49DF
:1009F000184600F003F900BF2437BD4690BD00BF84
:100A00008033002088330020903300204C360020B3
:100A10005033002004360020683300200160704706
:100A2000006870470EB503FA01F303EA0203016898
:100A30006FEA020201EA020141EA030101600EBD10
:100A4000006800EA020020FA01F070470180704758
:100A5000008870470EB503FA01F303EA0203018828
:100A60006FEA020201EA020141EA030101800EBDC0
:100A7000008800EA020020FA01F070470170704718
:100A8000007870470EB503FA01F303EA0203017818
:100A90006FEA020201EA020141EA030101700EBDA0
:100AA000007800EA020020FA01F0704780B483B0B9
:100AB00000AF0346FB71FB7903F01F02074997F96A
:100AC00007305B09012000FA02F2603341F823206D
:100AD00000BF0C37BD4680BC704700BF00E100E09E
:100AE00080B483B000AF78600B46FB707B6803F086
:100AF00070427B685B0123F07E4323F01F031343A6
:100B0000FA789200134403F100731A46012313602C
:100B100000BF0C37BD4680BC704780B483B000AFC7
:100B200078600B46FB707B6803F070427B685B016A
:100B300023F07E4323F01F031343FA7892001344FB
:100B400003F100731A460023136000BF0C37BD4643
:100B500080BC704780B483B000AF78600B46FB70F8
:100B60007B6803F070427B685B0123F07E4323F0D7
:100B70001F031343FA789200134403F100731B68B8
:100B8000DBB218460C37BD4680BC704780B584B0D8
:100B900000AFF860B9601346FB71FB68144A9342DA
:100BA00004D0FB68134A934200D000BEFB791A467A
:100BB000B968F86800F046F9FB681B683033032118
:100BC0001846FFF7AAFFFB681B683433022118465A
:100BD000FFF7A3FFFB681B68383300211846FFF7B7
:100BE0009CFFFB68044A5A6200BF1037BD4680BDB7
:100BF0004C3600200C3600202512002080B487B02F
:100C000000AF7860396000237B617B68264A93429D
:100C100004D07B68254A934200D000BE3B68002B7D
:100C200000D100BE7B68204A934203D07B681F4AF4
:100C3000934233D13B68002B30D03A687B69134430
:100C40001B78FB7327E07B681B681B7DBB737B688D
:100C50005A7BBB7B1343DAB27B685A73BB7B03F0CE
:100C60002003002BEFD000233B610EE07B681B6864
:100C7000FA7B1A703B6901333B617B6901337B610D
:100C80003A687B6913441B78FB73FB7B002B02D013
:100C90003B690F2BEAD9FB7B002BD4D100BF1C375B
:100CA000BD4680BC704700BF4C3600200C3600208B
:100CB000684620F007018D4689B500AF044800F072
:100CC000ADF900BFBD46BDE889408546704700BF0D
:100CD0004C360020684620F007018D4689B500AFEC
:100CE000044800F09BF900BFBD46BDE88940854639
:100CF000704700BF0C36002080B588B000AF786028
:100D000039607B684B4A934204D07B684A4A9342DD
:100D100000D000BE7B68474A934204D07B68464AB5
:100D2000934240F082807B683A689A6002F0CAF988
:100D30007B68404A934203D1404B1B68FB6102E051
:100D40003F4B1B68FB61FB69DA003B68B2FBF3F3C6
:100D5000BB61BB695B087B617B699B093B613B694C
:100D60009B017A69D31AFB603B69DB01BA69D21A2D
:100D7000FB685B00D31AFA681344FB603B69B3F568
:100D8000803F00D300BE3B69B3F5803F4DD23B6945
:100D9000012B2AD97B681B680C3307211846FFF703
:100DA0009FFE3B691A0A7B681B68D2B21A717B6886
:100DB0001B683A69D2B21A707B681B680C33072132
:100DC0001846FFF7AAFE7B681B68303307211846D8
:100DD000FFF786FEFB68FF2B00D900BE7B681B680F
:100DE000FA68D2B283F83C201FE07B681B680C33A2
:100DF00007211846FFF774FE3B691A0A7B681B68D7
:100E0000D2B21A717B681B683A69D2B21A707B68D9
:100E10001B680C3307211846FFF77FFE7B681B68B1
:100E2000303307211846FFF778FE00BF2037BD4654
:100E300080BD00BF4C3600200C3600201435002049
:100E40001835002080B584B000AFF860B960134653
:100E5000FB71FB686D4A934204D0FB686C4A934275
:100E600000D000BEFB68694A934216D1FB684FF080
:100E700080421A60FB680A221A71664B9B6C654AB5
:100E800043F0800393640A20FFF710FE614B9B6CD4
:100E9000604A23F08003936414E0FB685E4A1A60A2
:100EA000FB680B221A715B4B9B6C5A4A43F48073AC
:100EB00093640B20FFF7FAFD564B9B6C554A23F4C5
:100EC00080739364FB681B6800221A71FB681B68BF
:100ED00000221A72FB681B68083301211846FFF7CD
:100EE000FFFDFB681B68083302211846FFF7F8FD79
:100EF000FB681B68083300211846FFF7F1FDFB680B
:100F00001B68103304211846FFF707FEFB681B68B7
:100F1000103305211846FFF700FEFB681B683433C9
:100F200001211846FFF7F9FDFB681B6834330021E7
:100F30001846FFF7F2FDFB681B683833012118469D
:100F4000FFF7EBFDFB681B68303305211846FFF700
:100F5000E4FDFB681B68303306211846FFF7DDFD12
:100F6000FB681B68303307211846FFF7D6FDFB6886
:100F70001B68383303211846FFF7CFFDFB681B6859
:100F8000002283F84420FB681B68002283F8482075
:100F9000FB681B68002283F84C20B968F868FFF7EB
:100FA000ABFEFB681B68FA791A73FB68BA689A6033
:100FB000FB68FA791A73FB6800225A61FB68002209
:100FC0001A61FB6800229A61FB6800221A62FB68C2
:100FD00000225A62FB680022DA61FB6800229A62F2
:100FE000FB680022DA62FB6800221A63FB680022B9
:100FF0005A63FB6800229A63FB680022DA63FB688D
:1010000000225A7300BF1037BD4680BD4C36002009
:101010000C360020008003400000014080B584B001
:1010200000AF78607B687D4A934204D07B687C4A3D
:10103000934200D000BE7B68784A934204D07B681C
:10104000774A934240F0DA807B681B681B7ADBB2F8
:1010500003F00F03FB73FB7B0C2B00F2CD8001A28E
:1010600052F823F099100020F9110020B710002049
:1010700011110020D5100020F9110020F3100020DC
:10108000F9110020F9110020F9110020F9110020B8
:10109000F9110020D51000207B689B6A002B00D13D
:1010A00000BE7B689B6A002B00F0AA807B689B6A6D
:1010B00078689847A4E07B685B6A002B00D100BE8B
:1010C0007B685B6A002B00F09D807B685B6A7868B8
:1010D000984797E07B681B6A002B00D100BE7B68B5
:1010E0001B6A002B00F090807B681B6A7868984729
:1010F0008AE07B68DB69002B00D100BE7B68DB697E
:10110000002B00F083807B68DB69786898477DE07E
:101110007B681B68283300211846FFF71BFD034638
:10112000002B0CD07B68DB6A002B00D100BE7B68F3
:10113000DB6A002B03D07B68DB6A786898477B68A2
:101140001B68283301211846FFF704FD0346002BD6
:101150000CD07B681B6B002B00D100BE7B681B6B27
:10116000002B03D07B681B6B786898477B681B68F3
:10117000283302211846FFF7EDFC0346002B0CD064
:101180007B685B6B002B00D100BE7B685B6B002B28
:1011900003D07B685B6B786898477B681B68283353
:1011A00003211846FFF7D6FC0346002B0CD07B68C2
:1011B0009B6B002B00D100BE7B689B6B002B03D088
:1011C0007B689B6B786898477B681B682833042191
:1011D0001846FFF7BFFC0346002B19D07B68DB6B7A
:1011E000002B00D100BE7B68DB6B002B10D07B682E
:1011F000DB6B786898470BE000BE0AE000BF08E0B0
:1012000000BF06E000BF04E000BF02E000BF00E056
:1012100000BF00BF1037BD4680BD00BF4C36002068
:101220000C36002080B586B000AF78607B68354A08
:10123000934204D07B68344A934200D000BE7B685E
:101240001B69002B00D100BE7B685B69002B00D1BD
:1012500000BE7B682B4A934203D07B682A4A9342A4
:101260004CD17B681B69002B48D07B685B69002BE5
:1012700044D07B681B681B7DFB737B685A7BFB7BC0
:101280001343DAB27B685A73FB7B03F02003002B15
:1012900024D010233B617B685A697B689B69D31A11
:1012A000BB60BB680F2B01D8BB683B6100237B612F
:1012B00010E07B681A697B689B691A447B681B682D
:1012C00012781A707B689B695A1C7B689A617B69EB
:1012D00001337B617A693B699A42EAD37B689A69F8
:1012E0007B685B699A4209D17B6800225A617B68FE
:1012F0001B68043301211846FFF70FFC00BF1837A5
:10130000BD4680BD4C3600200C36002080B582B032
:1013100000AF0F4B5B68FB710D4B9B68DAB2FB793A
:101320001340FB71FB7903F00203BB71BB79002B07
:1013300001D000F0E5F8FB7903F001037B717B79C4
:10134000002B01D000F006F800BF0837BD4680BD75
:101350000060014080B584B000AF624B1B78022B67
:101360003DD0052B68D0012B40F0AA805E4B1B8836
:101370009BB2002B2FD05D4B1A685B4B1B889BB236
:101380001946104600F00AFAF860574B1B889BB2CA
:101390001A46FB6893420FD2534B1B889AB2FB68E4
:1013A0009BB2D31A9AB2504B1A80504B1A68FB6802
:1013B00013444E4A136090E04B4B00221A804C4B72
:1013C0001B68002B03D0474B02221A7085E0454B67
:1013D00003221A7081E000BE00F0BAF97DE0444BB0
:1013E0001B68002B24D0434B1A68414B1B681946DD
:1013F000104600F0D3F9B8603D4B1B68BA689A42BA
:101400000CD23B4B1A68BB68D31A394A1360394B6C
:101410001A68BB681344374A13605EE0364B9B681A
:10142000354A23F0010393602E4B03221A7054E0D7
:1014300000BE00F08DF950E02D4B1B68002B1BD136
:101440002E4B1B68002B14D02C4B1B682948984747
:101450000246274B1A60264B1B68002B0CD1264BEB
:101460009B68254A23F0010393601E4B03221A70E8
:1014700002E000BE00F06CF91D4B1B68002B09D187
:101480001D4B9B681C4A23F001039360154B0322FC
:101490001A7022E0174B1A68154B1B681946104644
:1014A00000F07CF97860124B1A687B68D31A104AF6
:1014B0001360104B1A687B6813440E4A13600CE0EB
:1014C0000D4B9B680C4A23F001039360002000F051
:1014D0001FF9044B00221A7000BF00BF1037BD4631
:1014E00080BD00BF713500205435002050350020EC
:1014F0005C35002058350020006001406C3500202C
:1015000080B584B000AF7C4B1B69FB81FB8923F461
:10151000FF4323F07F03BB81FB89FB72774B1B7872
:10152000052B00F2D68001A252F823F045150020C9
:10153000BF160020BF1600209D150020EB150020CF
:1015400093160020BB89002B00F0CA80FB7AF12B98
:1015500006D0FB7ABB72BB7A184600F04FF9BFE0A9
:10156000674B00221A80674B1B68654A128892B24B
:101570001344FA7A1A70624B1B889BB201339AB2F9
:101580005F4B1A805F4B1B685D4A128892B213440E
:1015900000221A70594B04221A70A1E0BB89002B5B
:1015A00000F0A080FB7A7B72574B1B78DBB27A7A13
:1015B0009A4215D1524B00221A80524B1B68504A56
:1015C000128892B213447A7A1A704D4B1B889BB2E0
:1015D00001339AB24A4B1A80484B04221A7081E0B8
:1015E0007B7A184600F00AF97CE0BB89002B06D014
:1015F000FB7A3B723B7A184600F000F974E0414BED
:101600001A683F4B1B889BB2013B13441B78F12B9C
:1016100016D13C4B1B683A4A128892B21344FA7AAC
:101620001A70384B1A68364B1B889BB2013B134427
:101630001B78184600F0E2F8304B00221A7053E095
:101640002F4B1B889AB2314B1B889A4210D2FB7ADF
:10165000FB712C4B1B682A4A128892B21344FA7908
:101660001A70274B1B889BB201339AB2244B1A8005
:10167000234B1B889AB2254B1B889A4234D1204BAE
:101680001B889BB2184600F043F81C4B00221A70CE
:101690002AE0BB89002B0BD11A4B1B680133FA7A65
:1016A0001A70022000F034F8144B00221A701EE069
:1016B000FB7ABB71BB79184600F0A0F817E0BB8934
:1016C000002B13D0FB7A7B717B79184600F096F8DB
:1016D0000CE0002000F01CF8084B00221A7006E015
:1016E00000BF04E000BF02E000BF00E000BF00BF99
:1016F0001037BD4680BD00BF00600140713500203D
:1017000066350020603500204C350020643500200F
:1017100080B582B000AF0346FB800A4B1B68002BEC
:101720000CD0084B1B68084A1268F9881046984785
:10173000044B00221A60054B00221A7000BF0837C4
:10174000BD4680BD68350020603500207035002022
:1017500080B582B000AF0E4B1B78DBB2002B13D0EC
:101760000C4B1B889BB21846FFF7D2FF0A4B1B6835
:10177000094A43F001031360074B1B6803F00103A0
:101780007B607B68002BF7D100BF0837BD4680BD6A
:1017900070350020663500200060014080B485B0BF
:1017A00000AF78603960144B1B68134A23F00403C0
:1017B00013600023FB60104B5B6803F00103BB6008
:1017C0000DE07A68FB6813441A780B4B1A61FB68CA
:1017D0000133FB60084B5B6803F00103BB60BB682F
:1017E000002B03D0FA683B689A42EAD3FB6818469C
:1017F0001437BD4680BC70470060014080B582B0A0
:1018000000AF0346FB71064B1B68002B04D0044B52
:101810001B68FA791046984700BF0837BD4680BD5F
:101820007435002080B483B000AF0346FB71FB79B0
:1018300003F01F02074997F907305B09012000FAFE
:1018400002F2603341F8232000BF0C37BD4680BC54
:10185000704700BF00E100E080B58AB000AF78605B
:101860007B681B681B687B627B681B689B693B62AB
:101870007B681B685B68FB617B681B689B6ABB615C
:101880007B681B681B6B7B617B681B685B6B3B61C8
:101890007B681B68DB69FB607B68354A93421DD11E
:1018A0007B68344A1A607B6802221A71324B9B6C47
:1018B000314A43F4007393640220FFF7B3FF2E4BC9
:1018C0009B6C2D4A23F4007393647B681B681A6831
:1018D0007B681B6822F000421A601CE07B68274A84
:1018E0001A607B6803221A71234B9B6C224A43F4D3
:1018F000806393640320FFF795FF1F4B9B6C1E4A88
:1019000023F4806393647B681B681A687B681B6898
:1019100022F000421A607B6A23F001037B627B683D
:101920001B687A6A1A607B681B683A6A9A617B68EE
:101930001B68FA695A607B681B681A687B681B68B9
:1019400042F001021A607B681B68BA699A627B6880
:101950001B687A691A637B681B683A695A637B68FB
:101960001B68FA68DA6100BF2837BD4680BD00BF3A
:10197000103700200010004000800340001001409C
:1019800080B485B000AF78600023FB600DE07B6819
:101990009A687B681B6913441A787B681B685A61D4
:1019A0007B681B695A1C7B681A617B681B689B6893
:1019B00003F48073002B05D17B681A697B68DB68B0
:1019C0009A42E4D37B681A697B68DB689A421BD32E
:1019D0000DE07B685A697B68DB6913441A787B6881
:1019E0001B685A617B68DB695A1C7B68DA617B681B
:1019F0001B689B6803F48073002B05D17B68DA6950
:101A00007B689B699A42E4D37B685B6A002B1DD09C
:101A10007B681A697B68DB689A4217D37B68DA694E
:101A20007B689B699A4211D306E07B681B680022A1
:101A30005A61FB680133FB607B681B689B6803F499
:101A40008073002B02D1FB681F2BEED900BF143727
:101A5000BD4680BC704780B584B000AF78607B68BD
:101A600093F88030022B15D10CE07B681B681B6952
:101A7000FB607B685B6F002B04D07B685B6FFA6850
:101A8000104698477B681B689B6803F04003002B57
:101A9000EBD02FE07B6893F88030012B23D116E048
:101AA0007B681B681B69FB607B681A6B7B68DB6A61
:101AB0009A4207D2F9687B689A6A7B681B6B134469
:101AC000CAB21A707B681B6B5A1C7B681A637B68EE
:101AD0001B689B6803F04003002BE1D00AE07B68A1
:101AE0001B681B69FB607B681B689B6803F04003F5
:101AF000002BF4D000BF1037BD4680BD80B586B046
:101B000000AF78607B681B6820337B617B68984AF4
:101B1000934204D07B68974A934200D000BE7B6911
:101B20001B6803F00203002B4ED07B6893F88030D3
:101B3000022B15D10CE07B681B681B69FB607B687E
:101B40005B6F002B04D07B685B6FFA681046984788
:101B50007B681B689B6803F04003002BEBD02FE0F1
:101B60007B6893F88030012B23D116E07B681B68DB
:101B70001B69FB607B681A6B7B68DB6A9A4207D241
:101B8000F9687B689A6A7B681B6B1344CAB21A7047
:101B90007B681B6B5A1C7B681A637B681B689B689D
:101BA00003F04003002BE1D00AE07B681B681B694F
:101BB000FB607B681B689B6803F04003002BF4D03C
:101BC0007B681B680222DA607B691B6803F00103F3
:101BD000002B11D07B6893F88030022B05D17B68F5
:101BE0001B687A68926F5A6102E07868FFF7C8FE56
:101BF0007B681B680122DA607B691B6803F01003B5
:101C0000002B20D07868FFF726FF7B681B6A002B2B
:101C10000AD07B681B6A7A68906A7A68126B1146F0
:101C200098477868FFF7ACFE7B6801225A627B68B0
:101C30001B689A6A7B681B6822F010029A627B68B4
:101C40001B681022DA607B691B6803F00403002B19
:101C50000ED07B681B68DA6A7B681B6842F004025E
:101C6000DA627868FFF7F8FD7B681B680422DA60A7
:101C70007B691B6803F00803002B2DD07B681B6871
:101C8000DA6A7B681B6842F00802DA627B6893F8C4
:101C90008030022B11D17B681B681B6823F47F0303
:101CA00023F47F437A68126843F4807313607B687F
:101CB0001B687A68926F5A610AE07B6893F88030FB
:101CC000012B05D17B6800221A617868FFF758FE66
:101CD0007B681B680822DA607B691B6803F02003BD
:101CE000002B41D07868FFF7B6FE7B681B6B3B6129
:101CF0007B681B6A002B17D07B6800225A627B68C6
:101D000000225A617B6800229A617B680022DA61B6
:101D10007B681B681022DA607B681B689A6A7B68A4
:101D20001B6842F010029A627B6800221A617B688D
:101D30001B68DA6A7B681B6842F00C02DA6278681A
:101D4000FFF71EFE7B6800221A637B68DB6F002BA7
:101D500006D07B68DB6F7A68926A396910469847CB
:101D60007B681B682022DA6000BF1837BD4680BD43
:101D7000103700208C360020684620F007018D4681
:101D800089B500AF0448FFF7B9FE00BFBD46BDE806
:101D900089408546704700BF10370020684620F014
:101DA00007018D4689B500AF0448FFF7A7FE00BFC5
:101DB000BD46BDE889408546704700BF8C3600208F
:101DC00080B483B000AF0346FB71FB7903F01F02C0
:101DD000074997F907305B09012000FA02F2203326
:101DE00041F8232000BF0C37BD4680BC704700BFC0
:101DF00000E100E080B483B000AF78607B6893F8C6
:101E00006830002B03D07B689B6901229A6000BF79
:101E10000C37BD4680BC704790B585B000AF786088
:101E20000123FB737B68E74A934204D07B68E64A50
:101E3000934200D000BE7B685B691B79FB72FB7A22
:101E4000DBB2083BD02B00F2D78301A252F823F07B
:101E500095210020F9250020F9250020F9250020F2
:101E6000F9250020F9250020F9250020F92500207A
:101E700095210020F9250020F9250020F9250020D2
:101E8000F9250020F9250020F9250020F92500205A
:101E900031220020F9250020F9250020F925002015
:101EA000F9250020F9250020F9250020F92500203A
:101EB00013220020F9250020F9250020F925002013
:101EC000F9250020F9250020F9250020F92500201A
:101ED00031220020F9250020F9250020F9250020D5
:101EE000F9250020F9250020F9250020F9250020FA
:101EF000B7220020F9250020F9250020F92500202F
:101F0000F9250020F9250020F9250020F9250020D9
:101F100009220020F9250020F9250020F9250020BC
:101F2000F9250020F9250020F9250020F9250020B9
:101F3000D5220020F9250020F9250020F9250020D0
:101F4000F9250020F9250020F9250020F925002099
:101F500019230020F9250020F9250020F92500206B
:101F6000F9250020F9250020F9250020F925002079
:101F700037230020F9250020F9250020F92500202D
:101F8000F9250020F9250020F9250020F925002059
:101F90006B230020F9250020F9250020F9250020D9
:101FA000F9250020F9250020F9250020F925002039
:101FB000FB230020F9250020F9250020F925002029
:101FC000F9250020F9250020F9250020F925002019
:101FD000F3230020F9250020F9250020F925002011
:101FE000F9250020F9250020F9250020F9250020F9
:101FF000FB230020F9250020F9250020F9250020E9
:10200000F9250020F9250020F9250020F9250020D8
:10201000F3230020F9250020F9250020F9250020D0
:10202000F9250020F9250020F9250020F9250020B8
:1020300031240020F9250020F9250020F925002071
:10204000F9250020F9250020F9250020F925002098
:10205000C7230020F9250020F9250020F9250020BC
:10206000F9250020F9250020F9250020F925002078
:1020700031240020F9250020F9250020F925002031
:10208000F9250020F9250020F9250020F925002058
:10209000C7230020F9250020F9250020F92500207C
:1020A000F9250020F9250020F9250020F925002038
:1020B00087240020F9250020F9250020F92500209B
:1020C000F9250020F9250020F9250020F925002018
:1020D00049250020F9250020F9250020F9250020B8
:1020E000F9250020F9250020F9250020F9250020F8
:1020F00049250020F9250020F9250020F925002098
:10210000F9250020F9250020F9250020F9250020D7
:1021100049250020F9250020F9250020F925002077
:10212000F9250020F9250020F9250020F9250020B7
:10213000C9250020F9250020F9250020F9250020D7
:10214000F9250020F9250020F9250020F925002097
:10215000C9250020F9250020F9250020F9250020B7
:10216000F9250020F9250020F9250020F925002077
:10217000F9250020F9250020F9250020F925002067
:10218000F9250020F9250020F9250020F925002057
:10219000212500207B689B6900225A617B685A6870
:1021A0007B685B69D2B21A727B689B697A68D26A73
:1021B000C3F800217B68DB6A002B07D17B68002213
:1021C0009A620AE094370020083800207B68DB6AB6
:1021D000012B02D17B6800229A637B6893F87130EF
:1021E000002B03D07B68002283F871207B681A7A69
:1021F0007B6893F872309A4200F01D827B6893F8F6
:1022000072207B681A7216E27B689B6901225A6110
:102210001CE27B689B6901221A617B68022283F8B9
:102220003C207B6800221A727868FFF7E3FD0DE21C
:102230007B689A6A7B685B6A9A420CD27B681A6AEE
:102240007B689B6A581C796888621A447B685B6962
:1022500012781A72FAE17B681B7A032B07D17B682C
:102260000122DA627B689B6901225A61EEE17B6898
:1022700000221A727B681B7C03F00103BB737B682E
:10228000BA7B83F87020BB7B002B07D17B689B69EE
:1022900001221A617868FFF7ADFD07E07B6893F9CA
:1022A00011301846FFF78CFD0023FB737B6800227A
:1022B00083F83C20CAE17B689B6901221A617B6834
:1022C000022283F83C207B6800221A727868FFF7AC
:1022D00091FDBBE17B685B6B012B04D97B689B693B
:1022E00001229A60B2E17B685B6B012B04D17B68B1
:1022F0009B6900229A60A9E17B689B6901229A6030
:102300007B689B6901221A617B68002283F83C206C
:102310007B6800221A7299E17B689B6901221A612D
:102320007B68022283F83C207B6800221A7278685E
:10233000FFF760FD8AE17B685A697B68196B7B68EF
:102340009B6B5C1C786884630B44127AD2B21A705F
:102350007B689A6B7B685B6B013B9A42C0F06D8136
:102360007B689B6900229A6067E17B685A697B6899
:10237000196B7B689B6B0B44127AD2B21A707B6824
:102380001B7C03F00103BB737B68BA7B83F870206E
:10239000BB7B002B07D17B689B6901221A6178689F
:1023A000FFF728FD07E07B6893F911301846FFF727
:1023B00007FD0023FB737B6800221A727B680022F2
:1023C00083F83C2042E17B689B6901229A607B682C
:1023D00000221A727B68002283F85C207B6893F8E5
:1023E0007130002B00F02B817B689B6901225A61C0
:1023F00025E17B68012283F871207B6804221A7230
:102400007B6800229A657B680022DA607B689B69A2
:102410005B69002B07D07B689B6900225A617B684F
:10242000012283F871207B68012283F85C200DE192
:102430007B681B6D002B1AD07B689A6D7B685B6D87
:102440009A4214D27B685B691B7A7B737B681A6D36
:102450007B689B6D581C7968886513447A7B1A7079
:102460007B68DB681A027B7B1A447B68DA607B68D6
:102470009A6D7B685B6D9A42C0F0E3807B689B69D4
:1024800000229A60DDE07B681B7A042B31D17B68E7
:102490009A6D7B681B6E9A4203D17B68DA687B6811
:1024A000DA647B685B6E002B1ED07B685B6E7A689B
:1024B000116D7A68926D92B27868984703463B73C3
:1024C0003B7B002B07D17868FFF794FC7B689B6906
:1024D00001229A6013E07B689B6900229A607B6806
:1024E000002283F868200AE07B689B6901229A60D9
:1024F00005E07B680022DA647868FFF77BFC7B6884
:10250000002283F85C207B6893F87130002B03D0A5
:102510007B689B6901225A617B6800221A7295E0F0
:102520007B6800221A727B680022DA647B6893F869
:102530005C30DBB2012B03D17B68022283F85C2084
:102540007868FFF757FC81E0FB7ADBB2A82B16D145
:102550007B6805221A727B680022DA607B680122A0
:1025600083F85C207B689B695B69002B07D07B68E4
:102570009B6900225A617B68012283F871207B6885
:10258000DA6C7B689B6C9A4204D37B685B69FF22A0
:102590001A720BE07B685A6C7B68DB6C581C79689C
:1025A000C8641A447B685B6912781A727B68DA6CBB
:1025B0007B689B6C9A4246D37B689B6900229A6039
:1025C0007B680022DA643EE07B680022DA647B6884
:1025D0009B6901229A607B68002283F85C207B68FB
:1025E00093F87130002B03D07B689B6901225A61FC
:1025F0007B6800221A7229E07B689B6900225A617D
:102600007B6800221A727B680022DA647B6893F888
:102610003C30DBB2012B03D17B68022283F83C20E3
:102620007B6893F85C30DBB2012B0ED17B68022211
:1026300083F85C2009E000BF08E000BF06E000BFAF
:1026400004E000BF02E000BF00E000BFFB7B002B06
:1026500003D07B689B690022DA607B685B691B7929
:10266000FB7200BF1437BD4690BD00BF684620F026
:1026700007018D4689B500AF0448FFF7CDFB00BFC9
:10268000BD46BDE889408546704700BF94370020AD
:10269000684620F007018D4689B500AF0448FFF772
:1026A000BBFB00BFBD46BDE889408546704700BF03
:1026B0000838002080B485B000AFF860B9607A6057
:1026C000FB704D484D4B1A68F97813469B00134434
:1026D000DB01034403F5E27319604949474B1A686B
:1026E00013469B0013449B000B440433FA681A60A2
:1026F0004349424B1A6813469B0013449B000B440A
:102700000833BA681A603E493C4B1A6813469B006E
:1027100013449B000B440C331B683948374A11683B
:102720001A0C12040B469B000B449B0003440C3311
:102730001A607B68B3F5803F0FD97B68A3F58033BF
:10274000304A1361BB6803F580332E4AD360FB68BF
:1027500003F580332B4A93601AE02949274B1A6806
:1027600013469B0013449B000B440C331B687A6890
:1027700092B211462248214A1268194313469B001F
:1027800013449B0003440C3319601E4B00221A6152
:102790001B491A4B1A6813469B0013449B000B44B9
:1027A0000C331B681648154A126843F4E0011346BF
:1027B0009B0013449B0003440C3319600E490F4BDC
:1027C0001A6813469B001344DB010B4403F5E073C6
:1027D00001221A600849094B1A6813469B001344EA
:1027E000DB010B4403F5E67300221A6000BF1437C7
:1027F000BD4680BC704700BF0000284290350020D5
:102800000040014078350020684620F007018D46E1
:1028100089B500AF354A364B1B6803F52873012193
:1028200042F823103349324B1A6813469B00134475
:102830009B000B440C331B682E482D4A126823F46E
:10284000E00113469B0013449B0003440C331960C2
:10285000274B1B680133264A1360254B1B68042B4A
:1028600002D1234B00221A60234B1B69002B17D087
:10287000224B1B68042B03D1204B00221A6004E07A
:102880001E4B1B6801331D4A13601B4B98681A4B83
:10289000D968194B1A69184B1B7DFFF70BFF1EE017
:1028A0001449134B1A6813469B0013449B000B44B6
:1028B0000C331B6803F4E003002B10D10C4B0022F7
:1028C0001A600E4B00221A600B4B01221A700A4B41
:1028D0005B68002B03D0084B5B680120984700BF62
:1028E000BD46BDE889408546704700BF00002842CC
:1028F00094350020004001407835002090350020BC
:10290000684620F007018D4681B583B000AF384B93
:102910001B683B603B6803F470633B603B68002BC3
:102920002FD03449344B1A6813469B001344DB0103
:102930000B4403F502731B68002B0AD02F4B0222B5
:102940001A702E4B5B68002B03D02C4B5B68022067
:1029500098472849284B1A6813469B001344DB010B
:102960000B4403F503731B68002B0AD0234B03228F
:102970001A70224B5B68002B03D0204B5B6803204E
:1029800098471B4B1B683B603B6803F470433B60FC
:102990003B68002B0AD0194B04221A70174B5B6856
:1029A000002B03D0154B5B680420984700237B6005
:1029B00014E010497A6813469B001344DB010B4472
:1029C00003F5E47301221A600A4A7B6803F5287351
:1029D000012142F823107B6801337B607B68032B65
:1029E000E7D900BF0C37BD46BDE88140854670473A
:1029F0000040014000002842943500207835002036
:102A000080B483B000AF0346FB71FB7903F01F0273
:102A1000064997F907305B09012000FA02F241F8F4
:102A2000232000BF0C37BD4680BC704700E100E0AA
:102A300080B483B000AF0346FB71FB7903F01F0243
:102A4000074997F907305B09012000FA02F22033A9
:102A500041F8232000BF0C37BD4680BC704700BF43
:102A600000E100E080B483B000AF0346FB71FB7966
:102A700003F01F02074997F907305B09012000FAAC
:102A800002F2603341F8232000BF0C37BD4680BC02
:102A9000704700BF00E100E080B582B000AF1A4B84
:102AA0009B6C194A43F480139364174B9B6C164A32
:102AB00043F0F073936400237B6012E0134A7B6859
:102AC000134493F900301846FFF7B2FF0F4A7B68B2
:102AD000134493F900301846FFF7C4FF7B680133B5
:102AE0007B607B681F2BE9D9074B9B6C064A23F060
:102AF000F0739364044B9B6C034A23F48013936438
:102B000000BF0837BD4680BD008003402034002050
:102B100080B584B000AF0346FB71FB79FB60FB68B6
:102B20001F2B00D900BEFB681F2B15D80C4AFB6871
:102B300052F823301B68BB60094AFB6852F8233007
:102B4000BA6842F008021A60064AFB68134493F917
:102B500000301846FFF754FF00BF1037BD4680BD58
:102B6000A03300202034002080B483B000AF786010
:102B70000B46FB707B6803F070427B685B0123F0BF
:102B80007E4323F01F031343FA789200134403F1AA
:102B900000731A460123136000BF0C37BD4680BC8A
:102BA0007047000080B584B000AF0D4BD3F89C3166
:102BB000FB60FB6803F00103BB60BB68002B01D026
:102BC00000F06EF8FB6803F010037B607B68002B5D
:102BD00001D000F007F800BF1037BD4680BD00BF30
:102BE0000010044080B584B000AF0023FB60294B87
:102BF000B3F964301A4613469B0013449B002833F4
:102C0000244A1344BB60234BB3F964309BB20133B5
:102C10009BB21AB21F4BA3F864201E4BB3F9643069
:102C2000012B03DD1B4B0022A3F8642000211A486E
:102C3000FFF79AFF194BD3F894311B0CDBB2FB6002
:102C4000144BB3F960309BB201339BB21AB2114BF3
:102C5000A3F860200F4B5B6D002B13D0BB681B6883
:102C60007B60BB685B68C3F30B03043B3B60094BB1
:102C70005B6D002B06D0074B5B6DBA681269396833
:102C800078689847FB68002BB1D100BF1037BD466C
:102C900080BD00BF9835002094110440001004400E
:102CA00080B584B000AF0023BB60364BB3F95A3017
:102CB000B3F1FF3F00D100BE324BB3F95C30B3F14A
:102CC000FF3F00D100BE2F4BB3F85A30FB812D4B94
:102CD000B3F958309BB201339BB21AB2294BA3F817
:102CE0005820284B1B6D002B0DD0264B196DB7F9C2
:102CF0000E20244813469B0013449B0003441033CA
:102D00001B68184688471F4BB3F95C30B7F90E2093
:102D10009A420CD11B4B4FF6FF72A3F85A20194B65
:102D20004FF6FF72A3F85C200123BB601FE0FB8914
:102D300001339BB2FB81B7F90E30012B01DD00237B
:102D4000FB81104AFB89A2F85A30B7F90E200D49D1
:102D500013469B0013449B000B4404331B6803F091
:102D600000437B607B68002B01D10123BB60002105
:102D70000548FFF7F9FEBB68002BA8D000BF10374D
:102D8000BD4680BD983500208811044080B584B0D0
:102D900000AFF860B9607A603B60FB68BA681A609F
:102DA000FB681B68083300211846FDF767FEFB68C7
:102DB0001B680C3300211846FDF760FEFB681B689A
:102DC00079681846FDF72AFE3B68002B00D100BE4B
:102DD000FB681B68043339681846FDF71FFEFB6863
:102DE0001B68103300211846FDF718FEFB681B68AE
:102DF000183300211846FDF711FEFB681B682033CD
:102E000000211846FDF70AFEFB681B6828330021E5
:102E10001846FDF703FEFB681B6830330021184697
:102E2000FDF7FCFDFB681B68383300211846FDF7F1
:102E3000F5FDFB681B68403300211846FDF7EEFDE9
:102E4000FB681B68483300211846FDF7E7FDFB6867
:102E50001B68503300211846FDF7E0FDFB681B6836
:102E6000583300211846FDF7D9FDFB681B68603315
:102E700000211846FDF7D2FDFB681B68683300216E
:102E80001846FDF7CBFDFB681B6870330021184620
:102E9000FDF7C4FDFB681B68783300211846FDF779
:102EA000BDFDFB681B68803300211846FDF7B6FDA9
:102EB000FB681B68883300211846FDF7AFFD00BF93
:102EC0001037BD4680BD000080B584B000AF78608B
:102ED0000B46FB70FB78002B00D100BEFB78102B5B
:102EE00000D900BEFB78002B32D0FB78102B2FD8F6
:102EF000FB78194AD35CFB73FB78082B14D87B68EA
:102F00001B6808331846FDF7BBFD0346BB73BA7B4D
:102F1000FB7B1343BB737B681B680833BA7B11468A
:102F20001846FDF7ABFD13E07B681B680C331846B1
:102F3000FDF7A6FD0346BB73BA7BFB7B1343BB7354
:102F40007B681B680C33BA7B11461846FDF796FD6B
:102F500000BF1037BD4680BD4034002080B584B02E
:102F600000AF78600B46FB70FB78002B00D100BEF1
:102F7000FB78102B00D900BEFB78002B36D0FB78F5
:102F8000102B33D8FB781B4AD35CFB73FB78082BE0
:102F900016D87B681B6808331846FDF771FD034699
:102FA000BB73FB7BDB43DAB2BB7B1340BB737B6839
:102FB0001B680833BA7B11461846FDF75FFD15E024
:102FC0007B681B680C331846FDF75AFD0346BB733C
:102FD000FB7BDB43DAB2BB7B1340BB737B681B68B4
:102FE0000C33BA7B11461846FDF748FD00BF103779
:102FF000BD4680BD4034002080B586B000AFF8608B
:103000000B467A60FB72FB7A002B00D100BEFB7A84
:10301000102B00D900BEFB7A002B3AD0FB7A102B84
:1030200037D87B68002B05D1FB7A1946F868FFF783
:1030300095FF2EE0FB681A68FB7A184951F8233097
:10304000134400211846FDF7E9FCFB681A68FB7A77
:10305000134951F82330134479681846FDF7DEFC14
:10306000FB7A0F4A52F823307B61FB681A687B6950
:1030700013441846FDF704FD0346FB747B68DBB27E
:10308000FA7C9A4200D000BEFB7A1946F868FFF736
:103090001BFF00BF1837BD4680BD00BF5434002061
:1030A0009834002080B500AF00F0FAF8044B5B695B
:1030B000034A43F400735361FDF7BCF900BF80BDC0
:1030C00000ED00E080B588B000AF304BD3F8983009
:1030D00003F08063FB61FB69002B4CD12B4BD3F8D1
:1030E000983003F48053BB61BB69002B15D1284B8A
:1030F000284A1A60284B274A1A60284B254A1A602A
:10310000274B284A1A60284B284A1A60284B214A24
:103110001A60284B1F4A1A6034E0274A3B1D92E888
:10312000030083E80300194BD3F89C309B0903F09C
:1031300007037B613A1D7B6913441B78FB74FB7C9E
:10314000012B0AD0022B0DD0002B0FD100F038F844
:10315000F860F86800F052F814E04FF4004000F016
:103160004DF80FE0154800F049F80BE0134800F067
:1031700045F800BF06E000F023F8F860F86800F0BA
:103180003DF8FFE700BF2037BD4680BD008003400B
:103190001035002000E1F505143500201835002019
:1031A0001C35002040787D012035002008AF2F001D
:1031B0002435002028350020DC34002040420F0058
:1031C00080B483B000AF0A4BD3F8503103F004034E
:1031D0003B603B68002B02D1064B7B6001E0064B55
:1031E0007B607B6818460C37BD4680BC704700BFCB
:1031F0000080034040787D0180F0FA0280B483B003
:1032000000AF78600C4A7B6813600C4A7B681360DF
:103210000B4A7B6813600B4B0B4A1A600B4A7B68A6
:1032200013600B4A7B6813600A4A7B68136000BF17
:103230000C37BD4680BC7047103500201435002087
:10324000183500201C35002040787D0120350020F5
:10325000243500202835002080B483B000AF0E4B09
:10326000D3F84C313B603B684FF60202934204D0E6
:103270003B680A4A934203D005E001237B6005E0E6
:1032800002237B6002E000237B6000BF7B6818465E
:103290000C37BD4680BC70470080034002F8010037
:1032A00080B582B000AFFFF7D7FF78607B68012B55
:1032B00002D100F007F800E000BF00BF0837BD46AC
:1032C00080BD000080B400AF094BD3F89830084AA5
:1032D00043F48073C2F89830054BD3F89830044A11
:1032E00023F08063C2F8983000BFBD4680BC7047B1
:1032F0000080034070B500260C4D0D4C641BA410DB
:10330000A64209D100F0EEF800260A4D0A4C641BD3
:10331000A410A64205D170BD55F8043B984701366C
:10332000EEE755F8043B98470136F2E7FC340020FD
:10333000FC340020FC3400200035002075617274DC
:1033400020696E697469616C697A6564210A0D008F
:103350004E6F6B696120746573742073746172744D
:103360006564210A0D0000004E6F6B696120746571
:1033700073742066696E6973686564210A0D0000C4
:10338000007C12127C000000007E52522C000000D3
:10339000008804FAFA0488000060114A4A116000AB
:1033A0000030014004300140083001400C30014041
:1033B0001030014014300140183001401C300140F1
:1033C0002030014024300140283001402C300140A1
:1033D0003030014034300140383001403C30014051
:1033E0004030014044300140483001404C30014001
:1033F0005030014054300140583001405C300140B1
:103400006030014064300140683001406C30014060
:103410007030014074300140783001407C30014010
:1034200032333435363738393A3B3C3D3E3F404104
:1034300042434445464748494A4B4C4D4E4F5051F4
:1034400000010204081020408001020408102040FE
:1034500080000000000000001000000018000000C4
:1034600020000000280000003000000038000000AC
:10347000400000004800000050000000580000001C
:10348000600000006800000070000000780000008C
:103490008000000088000000000000001400000010
:1034A0001C000000240000002C000000340000007C
:1034B0003C000000440000004C00000054000000EC
:1034C0005C000000640000006C000000740000005C
:1034D0007C000000840000008C000000000100015E
:1034E00002020303F8B500BFF8BC08BC9E46704753
:1034F000F8B500BFF8BC08BC9E467047190500200F
:10350000F1040020000000000000000000000000A6
:1035100000E1F50500E1F50500E1F50540787D01E4
:1035200008AF2F0000E1F50500E1F50500000000FF
:040000052000019145
:00000001FF
