:020000042000DA
:1000000000000120910100207F03002081030020D7
:1000100083030020850300208703002000000000E8
:100020000000000000000000000000008903002024
:100030008B030020000000008D0300208F030020B0
:1000400091030020930300200D3100203131002066
:10005000013A00209B0300209D030020253A002048
:10006000A1030020A3030020B1190020D51900200E
:10007000BD490020AB030020AD030020AF030020EA
:10008000B1030020B3030020B50300200D200020A1
:10009000B9030020BB030020BD030020BF030020E4
:1000A000C1030020C3030020C50300209D3B0020A6
:1000B000953C0020CB030020CD030020CF0300207F
:1000C000D1030020D3030020D5030020D703002054
:1000D000D9030020DB030020DD030020DF03002024
:1000E000E1030020E3030020E5030020E7030020F4
:1000F000E9030020EB030020ED030020EF030020C4
:10010000F1030020F3030020F5030020F703002093
:10011000F9030020FB030020FD030020FF03002063
:1001200001040020030400200D130020A51300206B
:10013000D51400200B0400200D0400200F04002023
:1001400011040020130400201504002017040020CF
:10015000190400201B0400201D0400201F0400209F
:10016000210400202304002025040020270400206F
:10017000290400202B0400202D0400202F0400203F
:1001800031040020330400200000000000000000C3
:100190004FF0000BDFF8BE020068DFF8B612096806
:1001A00001F0030100F01C00142801D14BF0020BF8
:1001B000002901D04BF0010BBBF1000F05D0A7487F
:1001C000A749DFF8722200F09FF8A64880470BF09D
:1001D000020ABAF1000F0CD0DFF86E02DFF86E12DF
:1001E00002680B680FB44FF000024FF0FF0302608B
:1001F0000B609D484FF000024FF00103022808D128
:10020000DFF83A120A60DFF83E120A60DFF83212B5
:100210000B60012808D1DFF82A120A60DFF82612E5
:100220000A60DFF81A120B609048002809D1904844
:100230009049914A00F030F890489149914A00F075
:100240002BF891489149924A00F026F8914892493A
:10025000DFF8E22100F058F8BBF1000F10D08F4812
:100260008F49DFF8D62100F04FF80BF0020ABAF1FF
:10027000000F05D00FBC02600B6000BFAFF3008021
:10028000DFF820020FF2030E00474FF000004FF09E
:100290000001DFF814F2FEE72DE9F841884225D08D
:1002A000B2EB010200D5FEE740EA010313F00303BD
:1002B00002D000F01DF819E04FF000039046121133
:1002C000F7D09A421CBFF0C8F0C103F10103F8D186
:1002D00008F00F08B8F1000F08D004780C7000F196
:1002E000010001F10101B8F10108F6D1BDE8F88182
:1002F00008B54FF0000303780B7000F1010001F125
:100300000101013AF7D108BD884237D000F0030659
:10031000002E14D04FF00405A5EB06044FF008079B
:1003200007FB06F8914669FA08F9002C07D080F817
:10033000009069FA07F900F10100013CF5E74FF080
:1003400000060F46091A88460911914614461546BB
:10035000B14206D018BFA0E8340206F10106B1424E
:10036000F8D108F00F08B8F1000F07D002704FEA7B
:10037000322200F10100B8F10108F4E77047FEE70E
:10038000FEE7FEE7FEE7FEE7FEE7FEE7FEE7FEE745
:10039000FEE7FEE7FEE7FEE7FEE7FEE7FEE7FEE735
:1003A000FEE7FEE7FEE7FEE7FEE7FEE7FEE7FEE725
:1003B000FEE7FEE7FEE7FEE7FEE7FEE7FEE7FEE715
:1003C000FEE7FEE7FEE7FEE7FEE7FEE7FEE7FEE705
:1003D000FEE7FEE7FEE7FEE7FEE7FEE7FEE7FEE7F5
:1003E000FEE7FEE7FEE7FEE7FEE7FEE7FEE7FEE7E5
:1003F000FEE7FEE7FEE7FEE7FEE7FEE7FEE7FEE7D5
:10040000FEE7FEE7FEE7FEE7FEE7FEE7FEE7FEE7C4
:10041000FEE7FEE7FEE7FEE7FEE7FEE7FEE7FEE7B4
:10042000FEE7FEE7FEE7FEE7FEE7FEE7FEE7FEE7A4
:10043000FEE7FEE7704700000000A2A2A2A2008033
:100440000340088003401080034030800340348024
:1004500003403880034018080240000000F00020EC
:1004600000000120C9510020000000000000000031
:10047000000000200000002090010020B0040020B7
:10048000B0040020206200202062002020620020B2
:100490003063002030630020C06C0020C06C00205E
:1004A00000F0002019540020850C002000000000FE
:1004B0000348044B834202D0034B03B118477047F3
:1004C000306300203063002000000000054806492A
:1004D000091A891001EBD171491002D0034B03B105
:1004E0001847704730630020306300200000000090
:1004F00010B5064C237843B9FFF7DAFF044B13B16C
:100500000448AFF300800123237010BD3063002046
:1005100000000000F861002008B5054B1BB105493B
:100520000548AFF30080BDE80840FFF7CFBF00BF2C
:100530000000000034630020F861002080B584B022
:1005400000AF0346FB71174AFB791370154B1B78FC
:100550000021184604F036F90346FB81FB896FEA57
:1005600043436FEA5343FB810E4B1B78FA8900210A
:10057000184604F0F5F80B4B1B780021184604F0E0
:1005800021F90346FB81FB8923F40063FB81054BC2
:100590001B78FA890021184604F0E2F800BF1037F2
:1005A000BD4680BD4C63002080B588B000AF786048
:1005B000304A07F1080392E8030083E803002E4B5A
:1005C0001B780421184604F0FDF80346FB83FB8BDF
:1005D00023F4F073FB837B687B610023BB6116E02F
:1005E0007B6903F001033B613B69002B09D0BB69C8
:1005F0005B0007F12002134433F8182CFB8B1343E4
:10060000FB837B695B087B61BB690133BB61BB69B1
:10061000032BE5D9184B1B78FA8B0421184604F0FC
:100620009FF8154B1B780921184604F0CBF80346B8
:10063000FB83FB8B23F44073FB837B6803F0100385
:10064000002B03D0FB8B43F40073FB837B6803F028
:100650002003002B03D0FB8B43F48073FB83064BFA
:100660001B78FA8B0921184604F07AF800BF20376E
:10067000BD4680BD9C5D00204C63002080B582B0EB
:1006800000AF1D4B3B601D4B1B7800221F211846FD
:1006900004F066F8194B1B780021184604F092F814
:1006A0000346FB80FB8843F49053FB80134B1B787D
:1006B000FA880021184604F053F8104B1B780121EA
:1006C000184604F07FF80346FB80FB8803F0200304
:1006D000BB803B68013B3B60BB88002B02D13B6881
:1006E000002BEAD1FB884FF6FF729342E5D000BFA2
:1006F0000837BD4680BD00BF40420F004C6300205C
:1007000080B586B000AF786039602A4B1B78012134
:10071000184604F057F80346BB82BB8A03F0040373
:100720007B827B8A002B3ED00123FB75214B1B78FB
:1007300000221F21184604F013F81E4B1B781C21C1
:10074000184604F03FF80346BB82BB8A03F020033F
:100750003B82BB8A03F010039BB243F00803FB818A
:100760003B8A002B03D13B6800221A7002E03B68F1
:1007700001221A70FB89082B08D0102B02D0002B05
:1007800008D00BE07B6802221A700EE07B68012221
:100790001A700AE07B6800221A7006E07B68032268
:1007A0001A7000BF01E00023FB75FB7D1846183767
:1007B000BD4680BD4C63002080B582B000AF78603C
:1007C0000B46FB707B681B681C33FA781146184691
:1007D00000F0B7FE00BF0837BD4680BD80B582B0CF
:1007E00000AF78600B46FB707B681B682033FA789B
:1007F0001146184600F0A5FE00BF0837BD4680BD73
:1008000080B582B000AF78600B46FB707B681B68D8
:100810001833FA781146184600F093FE00BF0837E7
:10082000BD4680BD80B582B000AF78600B46FB70DE
:100830001346BB707B681B681C33FA781146184658
:1008400000F07FFE7B681B682033BA78114618469B
:1008500000F077FE7B681B681833184600F073FEC3
:10086000034618460837BD4680BD80B582B000AF4C
:1008700078600B46FB707B681B68FA781146184657
:1008800000F05FFE00BF0837BD4680BD80B586B072
:1008900000AF78600B46FB70FB78002B02D1002381
:1008A000FB7501E0FF23FB7500233B611CE03B6906
:1008B000DBB219467868FFF791FF0023FB600DE07B
:1008C000FB68DBB219467868FFF776FFFB7D1946B7
:1008D0007868FFF795FFFB680133FB60FB68532BDB
:1008E000EEDD3B6901333B613B69052BDFDD00BF7A
:1008F0001837BD4680BD80B586B000AF7860084629
:1009000011461A460346FB700B46BB7013467B70BC
:1009100000237B61BB783B612CE07B681B68203344
:100920003A691146184600F00CFEFB78FB6018E0AF
:100930007B681B681C33FA681146184600F001FEFC
:100940007B681B6803F118007B695A1C7A611A46A0
:100950007B6A13441B78194600F0F3FDFB680133F2
:10096000FB60FA787B781344FA689A42E0DB3B69D3
:1009700001333B61BA7897F8203013443A699A42C0
:10098000CBDB00BF1837BD4680BD80B584B000AF5B
:1009900078600B46FB701346BB70FB78FB73BB782B
:1009A000DB08BB73BB7803F007037B737B681B68B2
:1009B0001C33FA7B1146184600F0C3FD7B681B68A8
:1009C0002033BA7B1146184600F0BBFD7B681B68DC
:1009D0001833184600F0B7FD03463B733A7B7B7B28
:1009E00042FA03F3DBB203F00103DBB2184610371F
:1009F000BD4680BD80B584B000AF78600846114622
:100A00001A460346FB700B46BB7013467B70FB789F
:100A1000FB73BB78DB08BB73BB7803F007037B7306
:100A20007B7B012202FA03F33B737B681B681C3358
:100A3000FA7B1146184600F084FD7B681B68203362
:100A4000BA7B1146184600F07CFD7B681B681833A2
:100A5000184600F078FD0346FB7297F90C30DB4333
:100A60005AB297F90B3013405BB2FB727A787B7BFA
:100A700002FA03F35AB297F90B3013435BB2FB72DD
:100A80007B681B681833FA7A1146184600F059FD46
:100A900000BF1037BD4680BD80B586B000AF78601E
:100AA000084611461A460346FB700B46BB701346B8
:100AB0007B7000237B61BB783B6132E0FB78FB609D
:100AC00026E00023BB601AE0FB68D9B23B69DAB2CA
:100AD000BB68DBB21344D8B27A6A7B6913441B78D3
:100AE0001A46BB6842FA03F3DBB203F00103DBB240
:100AF00002467868FFF77EFFBB680133BB60BB68C6
:100B0000072BE1DD7B6901337B61FB680133FB600F
:100B1000FA787B781344FA689A42D2DB3B69013356
:100B20003B61BA7897F8203013443A699A42C5DBA2
:100B300000BF1837BD4680BD80B586B000AF786075
:100B4000084611461A460346FB700B46BB70134617
:100B50007B7000237B61BB783B613EE0FB78FB60F0
:100B600032E00023BB6026E0BA6A7B6913441B783D
:100B70001A46BB6842FA03F303F00103002B17D0B7
:100B8000FB68D9B23B69DAB2BB68DBB21344D8B2B6
:100B90007A6A7B6913441B781A46BB6842FA03F3EE
:100BA000DBB203F00103DBB202467868FFF722FFF5
:100BB000BB680133BB60BB68072BD5DD7B690133A4
:100BC0007B61FB680133FB60FA787B781344FA6839
:100BD0009A42C6DB3B6901333B61BA7897F8203013
:100BE00013443A699A42B9DB00BF1837BD4680BD4D
:100BF00080B400AF024B1846BD4680BC704700BFB2
:100C0000A45D002080B485B000AF78600023FB6055
:100C10000FE00C4A7B6852F82320FB6813441A78D3
:100C2000FB6801335200D1B2074AD154FB6801334B
:100C3000FB60FB68022BECDD034B18461437BD4606
:100C400080BC7047206200205063002080B483B0D5
:100C500000AF7860044A7B68C2F8883000BF0C3768
:100C6000BD4680BC704700BF0030014080B400AF7B
:100C7000034BD3F884301846BD4680BC704700BF94
:100C80000030014080B500AF00F004F800F0BEF87D
:100C9000FEE7000080B582B002AF4C4B03224FF458
:100CA0006121184600F0EEFC484B0121184600F087
:100CB000D9FD464B00224649184600F025FE434B1D
:100CC0004449184600F016FD03F0B0F84221082010
:100CD00003F0E8F84221092003F0E4F8082003F0CB
:100CE000FDF8092003F0FAF85F20FFF7AFFF374B5C
:100CF0003949184600F0FEFC64234FF47A724FF035
:100D0000A041364804F075F80123462219463348BD
:100D100004F0A4F9022328221946304804F09EF971
:100D20002A4B2F49184600F0E5FC2E4B2E4A1A603C
:100D300001212C48FFF7AAFD03212A48FFF795FD62
:100D4000224B2A49184600F0D5FC294801F036FC10
:100D500008230093042300220021254801F034FDDC
:100D60001A4B2449184600F0C5FC234803F0A0FAAA
:100D70002222214B1A7122221F4B5A7122221E4B12
:100D80009A7122221C4BDA7122221B4B1A722222E8
:100D9000194B5A72184B04221A60174B00229A7290
:100DA000154803F087F90021144803F069FD144841
:100DB00003F024FE134803F02FFE044B124918469B
:100DC00000F098FC00BFBD4680BD00BF806A0020D7
:100DD000F51000203C5E0020505E00200C6A0020D0
:100DE000645E00203C6A002000010050785E002014
:100DF000C06A0020905E0020106A00205C63002022
:100E00001D12002035120020A45E0020B0B596B05F
:100E100004AF7B4A07F12C0392E803001860043307
:100E20001980784A07F1240392E80300186004331C
:100E30001980754B07F114040FCB84E80F00734A37
:100E400007F10C0392E80300186004331980704B1B
:100E50001B68BB606F4A3B1D126811461980023344
:100E6000120C1A706C4A3B46126811461980023304
:100E7000120C1A70694B6A49184600F03BFC07F1E6
:100E80002C030193012300930623012213216548BB
:100E9000FFF731FD07F1240301930123009306239B
:100EA000032213215F48FFF726FD07F11403019386
:100EB000022300930823022246215A48FFF71BFD14
:100EC000032214215748FFF7ADFC034687F83B3057
:100ED0000023002201215348FFF78CFD00232D221F
:100EE00053215048FFF786FD00231A221A214D484E
:100EF000FFF780FD00231C221A214A48FFF77AFDE4
:100F000001231A221D214748FFF774FD0122012108
:100F10004448FFF73AFD034687F83B3000220121A1
:100F20004048FFF732FD034687F83B3007F12C03BA
:100F300001930123009306230A221A213948FFF75F
:100F4000ABFD07F10C03029307F124030193012386
:100F5000009306230E221D213248FFF7EDFD07F115
:100F6000080302933B1D01930123009303230E22E8
:100F700028212C48FFF7E0FD07F1080302933B46C8
:100F800001930123009303230E222C212548FFF710
:100F9000D3FD00237B6421233B640023FB6323E018
:100FA000F86BFFF72FFE78637B6CDCB23B6CDDB235
:100FB000FFF71EFE034602937B6B01930123009310
:100FC00005232A4621461748FFF7B6FD7B6C0433FC
:100FD0007B647B6C502B04DD00237B643B6C06330D
:100FE0003B64FB6B0133FB63FB6B232BD8DD0B4BAB
:100FF0000D49184600F07EFB00BF4837BD46B0BD26
:10100000E85E0020F05E0020F85E0020085F00200F
:10101000105F0020145F0020185F0020806A00200D
:10102000B85E00203C6A0020D05E002080B582B00F
:1010300000AF7A1DBB1D11461846FFF761FB034642
:10104000FB71224B2249184600F054FBFB79012B1F
:1010500032D11E4B1F49184600F04CFBBB79012BC7
:1010600009D0022B0DD0002B11D1184B1A4918466C
:1010700000F040FB11E0154B1849184600F03AFB10
:101080000BE0124B1649184600F034FB05E00F4BFD
:101090001449184600F02EFB00BF7B79012B05D1C7
:1010A0000A4B1149184600F025FB0AE0074B0F498F
:1010B000184600F01FFB04E0044B0D49184600F0F1
:1010C00019FB00BF0837BD4680BD00BF806A002005
:1010D0001C5F0020285F0020305F00203C5F002064
:1010E0004C5F00205C5F0020685F0020785F00207C
:1010F000885F002080B594B000AF78600023FB6467
:1011000007F1080340221946786800F04DFBB864E7
:1011100007F10803B96C184600F004F800BF503717
:10112000BD4680BDF0B58BB002AF786039606B46CC
:101130001E460423BB61BA693B6813447B617D6929
:101140006B1E3B612B4619464FF000024FF0000327
:101150004FF00004D40044EA5174CB002B461946EA
:101160004FF000024FF000034FF00004D40044EAB7
:101170005174CB002B460733DB08DB00ADEB030DCE
:1011800002AB0033FB60FB6802221A70214B1B6824
:101190001B0CDAB2FB685A701E4B1B681B0ADAB2D2
:1011A000FB689A701B4B1B68DAB2FB68DA7000238D
:1011B000FB610BE0FB697A681A44F969BB690B446F
:1011C0001178FA68D154FB690133FB61FB693A6815
:1011D0009A42EFD80021104801F08EFB06210E48FC
:1011E00001F044FCF968AAB20023009300230A48E6
:1011F00001F096FC074B1A683B681344054A1360DC
:101200000021054801F0EEFBB54600BF2437BD467E
:10121000F0BD00BF48690020C06A002080B483B0E0
:1012200000AF78607B6800221A6000BF0C37BD46B3
:1012300080BC704780B5A4B000AFF860B9607A6038
:10124000F86800F039F80346012B21D1BB6807F19B
:101250001000134A802104F0E9F9124B1249184694
:1012600000F048FA0F4B1149184600F043FA0D4AB6
:1012700007F110031946104600F03CFA094B0C49DF
:10128000184600F037FA074B0749184600F032FAC3
:101290000021084803F0F4FA00BF9037BD4680BD36
:1012A000905F0020806A0020A85F0020C45F0020BB
:1012B000E05F00205C63002080B483B000AF786002
:1012C0007B681E331B78A92B1AD17B681F331B78D0
:1012D000FE2B15D17B6820331B78FF2B10D17B6848
:1012E00021331B78FF2B0BD17B6824331B78BE2B5B
:1012F00006D17B6825331B78EF2B01D1012300E059
:10130000002318460C37BD4680BC704780B584B0BA
:1013100002AFFFF7ABFC78607B6803F480737B60FF
:101320007B68002B2DD01B4B93F90030DBB21946A4
:101330001948FFF7ABFA174B93F90030DB435AB269
:10134000144B1A70154B00221A600021144801F04A
:10135000D3FA20233B7000237B700023BB70002353
:10136000FB7006210E4801F081FB394600230093F3
:10137000002304220A4801F0D3FB0021084801F0B1
:1013800031FBFFF753FE082002F0D4FD00BF083701
:10139000BD4680BD4C6900203C6A00205863002097
:1013A000C06A002080B58CB002AF0B233B750023D0
:1013B0007B750023BB750023FB7500233B763D4BFB
:1013C0001B785A1CD1B23B4A1170184607F11C0316
:1013D0000A22194604F05CF8374A07F11C03194643
:1013E000104600F087F9FFF741FC38623B6A03F4CE
:1013F00000733B623B6A002B05D12F4B2F491846E7
:1014000000F078F94EE02C4B2D49184600F072F9A7
:1014100000212C4801F070FA3A1D07F11401102345
:10142000009313460522274801F07AFB00237B62D4
:1014300031E0214B2449184600F05CF907F11C0308
:101440000A221946786A04F023F81B4A07F11C03A4
:101450001946104600F04EF9174B1C49184600F08B
:1014600049F93A1D7B6A13441B78184607F11C039F
:101470000A22194604F00CF80F4A07F11C0319461A
:10148000104600F037F90C4B1149184600F032F9BC
:101490007B6A01337B627B6A0F2BCAD90021094822
:1014A00001F0A0FA092002F045FD00BF2837BD4633
:1014B00080BD00BF4D690020806A0020F05F0020E1
:1014C00000600020C06A0020146000201C60002022
:1014D0002060002080B500AF0A2002F02BFD00BF85
:1014E00080BD01607047006870470EB503FA01F3D4
:1014F00003EA020301686FEA020201EA020141EA1B
:10150000030101600EBD006800EA020020FA01F04C
:10151000704701807047008870470EB503FA01F3E9
:1015200003EA020301886FEA020201EA020141EACA
:10153000030101800EBD008800EA020020FA01F0DC
:10154000704701707047007870470EB503FA01F3D9
:1015500003EA020301786FEA020201EA020141EAAA
:10156000030101700EBD007800EA020020FA01F0CC
:101570007047000080B483B000AF0346FB71FB7975
:1015800003F01F02064997F907305B09012000FAB2
:1015900002F241F8232000BF0C37BD4680BC7047E3
:1015A00000E100E080B483B000AF0346FB71FB793B
:1015B00003F01F02074997F907305B09012000FA81
:1015C00002F2603341F8232000BF0C37BD4680BCD7
:1015D000704700BF00E100E080B483B000AF7860E6
:1015E0000B46FB707B6803F070427B685B0123F065
:1015F0007E4323F01F031343FA789200134403F150
:1016000000731A460123136000BF0C37BD4680BC2F
:10161000704780B483B000AF78600B46FB707B6886
:1016200003F070427B685B0123F07E4323F01F03CD
:101630001343FA789200134403F100731A4600230F
:10164000136000BF0C37BD4680BC704780B483B0C8
:1016500000AF78600B46FB707B6803F070427B68DC
:101660005B0123F07E4323F01F031343FA789200BB
:10167000134403F100731B68DBB218460C37BD46F8
:1016800080BC704780B584B000AFF860B960134685
:10169000FB71FB68144A934204D0FB68134A9342DF
:1016A00000D000BEFB791A46B968F86800F04AFA23
:1016B000FB681B68303303211846FFF7AAFFFB685D
:1016C0001B68343302211846FFF7A3FFFB681B6831
:1016D000383300211846FFF79CFFFB68044A5A6222
:1016E00000BF1037BD4680BD806A0020406A0020E0
:1016F000251F002080B487B000AF786039600023D8
:101700007B617B68264A934204D07B68254A9342DA
:1017100000D000BE3B68002B00D100BE7B68204A91
:10172000934203D07B681F4A934233D13B68002B1E
:1017300030D03A687B6913441B78FB7327E07B68E1
:101740001B681B7DBB737B685A7BBB7B1343DAB280
:101750007B685A73BB7B03F02003002BEFD0002380
:101760003B610EE07B681B68FA7B1A703B690133B2
:101770003B617B6901337B613A687B6913441B7869
:10178000FB73FB7B002B02D03B690F2BEAD9FB7B61
:10179000002BD4D100BF1C37BD4680BC704700BFB2
:1017A000806A0020406A002080B487B000AFF860F3
:1017B000B9607A6000237B610023FB74FB68274AD1
:1017C000934204D0FB68264A934200D000BEBB6817
:1017D000002B00D100BE7B68002B00D100BEFB684F
:1017E0001E4A934203D0FB681D4A934230D1BB6826
:1017F000002B2DD07B68002B2AD0FB681B681B7D3B
:10180000FB74FB685A7BFB7C1343DAB2FB685A73A8
:1018100015E0FB681A68B9687B690B441278D2B28C
:101820001A707B6901337B61FB681B681B7DFB744D
:10183000FB685A7BFB7C1343DAB2FB685A73FB7C70
:1018400003F00103002B03D07A697B689A42E0D34E
:101850007B6918461C37BD4680BC7047806A0020F3
:10186000406A002080B582B000AF78600B467B8074
:101870007B68234A934204D07B68224A934200D07B
:1018800000BE7B884FF6FF72934200D100BE7B689A
:101890001B4A934203D07B681A4A93422CD17B881F
:1018A0004FF6FF72934227D07B6893F904301846B5
:1018B000FFF778FE7B681B681B79D9B27B88DBB2A7
:1018C00003F00F03DAB27B681B680A43D2B21A71C5
:1018D0007B681B6893F82430D9B27B881B09DAB285
:1018E0007B681B680A43D2B283F824207B6893F993
:1018F00004301846FFF73EFE00BF0837BD4680BDE6
:10190000806A0020406A002080B584B000AFF86093
:10191000B9601346FB71FB68234A934204D0FB680D
:10192000224A934200D000BEBB68002B00D100BE0B
:10193000FB79C02B00D900BEFB681B4A934203D041
:10194000FB681A4A93422BD1BB68002B28D0FB7945
:10195000C02B25D8FB68BA681A62FB681B681B7A23
:10196000DBB25BB203F03F035AB297F9073013437F
:101970005AB2FB681B68D2B21A72FB6893F9043042
:101980001846FFF70FFEFB681B680433002118465A
:10199000FFF722FEFB6893F904301846FFF7EAFDD3
:1019A00000BF1037BD4680BD806A0020406A00201D
:1019B000684620F007018D4689B500AF044800F065
:1019C000ADF900BFBD46BDE889408546704700BF00
:1019D000806A0020684620F007018D4689B500AF77
:1019E000044800F09BF900BFBD46BDE8894085462C
:1019F000704700BF406A002080B588B000AF7860B3
:101A000039607B684B4A934204D07B684A4A9342D0
:101A100000D000BE7B68474A934204D07B68464AA8
:101A2000934240F082807B683A689A6003F0DCFB66
:101A30007B68404A934203D1404B1B68FB6102E044
:101A40003F4B1B68FB61FB69DA003B68B2FBF3F3B9
:101A5000BB61BB695B087B617B699B093B613B693F
:101A60009B017A69D31AFB603B69DB01BA69D21A20
:101A7000FB685B00D31AFA681344FB603B69B3F55B
:101A8000803F00D300BE3B69B3F5803F4DD23B6938
:101A9000012B2AD97B681B680C3307211846FFF7F6
:101AA0009BFD3B691A0A7B681B68D2B21A717B687E
:101AB0001B683A69D2B21A707B681B680C33072125
:101AC0001846FFF7A6FD7B681B68303307211846D0
:101AD000FFF782FDFB68FF2B00D900BE7B681B6807
:101AE000FA68D2B283F83C201FE07B681B680C3395
:101AF00007211846FFF770FD3B691A0A7B681B68CF
:101B0000D2B21A717B681B683A69D2B21A707B68CC
:101B10001B680C3307211846FFF77BFD7B681B68A9
:101B2000303307211846FFF774FD00BF2037BD464C
:101B300080BD00BF806A0020406A0020B46200209F
:101B4000B862002080B584B000AFF860B960134679
:101B5000FB71FB686D4A934204D0FB686C4A934268
:101B600000D000BEFB68694A934216D1FB684FF073
:101B700080421A60FB680A221A71664B9B6C654AA8
:101B800043F0800393640A20FFF70CFD614B9B6CCC
:101B9000604A23F08003936414E0FB685E4A1A6095
:101BA000FB680B221A715B4B9B6C5A4A43F480739F
:101BB00093640B20FFF7F6FC564B9B6C554A23F4BD
:101BC00080739364FB681B6800221A71FB681B68B2
:101BD00000221A72FB681B68083301211846FFF7C0
:101BE000FBFCFB681B68083302211846FFF7F4FC76
:101BF000FB681B68083300211846FFF7EDFCFB6803
:101C00001B68103304211846FFF703FDFB681B68AF
:101C1000103305211846FFF7FCFCFB681B683433C2
:101C200001211846FFF7F5FCFB681B6834330021DF
:101C30001846FFF7EEFCFB681B6838330121184695
:101C4000FFF7E7FCFB681B68303305211846FFF7F8
:101C5000E0FCFB681B68303306211846FFF7D9FC0F
:101C6000FB681B68303307211846FFF7D2FCFB687E
:101C70001B68383303211846FFF7CBFCFB681B6851
:101C8000002283F84420FB681B68002283F8482068
:101C9000FB681B68002283F84C20B968F868FFF7DE
:101CA000ABFEFB681B68FA791A73FB68BA689A6026
:101CB000FB68FA791A73FB6800225A61FB680022FC
:101CC0001A61FB6800229A61FB6800221A62FB68B5
:101CD00000225A62FB680022DA61FB6800229A62E5
:101CE000FB680022DA62FB6800221A63FB680022AC
:101CF0005A63FB6800229A63FB680022DA63FB6880
:101D000000225A7300BF1037BD4680BD806A002094
:101D1000406A0020008003400000014080B584B08C
:101D200000AF78607B687D4A934204D07B687C4A30
:101D3000934200D000BE7B68784A934204D07B680F
:101D4000774A934240F0DA807B681B681B7ADBB2EB
:101D500003F00F03FB73FB7B0C2B00F2CD8001A281
:101D600052F823F0991D0020F91E0020B71D002015
:101D7000111E0020D51D0020F91E0020F31D00209B
:101D8000F91E0020F91E0020F91E0020F91E002077
:101D9000F91E0020D51D00207B689B6A002B00D116
:101DA00000BE7B689B6A002B00F0AA807B689B6A60
:101DB00078689847A4E07B685B6A002B00D100BE7E
:101DC0007B685B6A002B00F09D807B685B6A7868AB
:101DD000984797E07B681B6A002B00D100BE7B68A8
:101DE0001B6A002B00F090807B681B6A786898471C
:101DF0008AE07B68DB69002B00D100BE7B68DB6971
:101E0000002B00F083807B68DB69786898477DE071
:101E10007B681B68283300211846FFF717FC034630
:101E2000002B0CD07B68DB6A002B00D100BE7B68E6
:101E3000DB6A002B03D07B68DB6A786898477B6895
:101E40001B68283301211846FFF700FC0346002BCE
:101E50000CD07B681B6B002B00D100BE7B681B6B1A
:101E6000002B03D07B681B6B786898477B681B68E6
:101E7000283302211846FFF7E9FB0346002B0CD05C
:101E80007B685B6B002B00D100BE7B685B6B002B1B
:101E900003D07B685B6B786898477B681B68283346
:101EA00003211846FFF7D2FB0346002B0CD07B68BA
:101EB0009B6B002B00D100BE7B689B6B002B03D07B
:101EC0007B689B6B786898477B681B682833042184
:101ED0001846FFF7BBFB0346002B19D07B68DB6B72
:101EE000002B00D100BE7B68DB6B002B10D07B6821
:101EF000DB6B786898470BE000BE0AE000BF08E0A3
:101F000000BF06E000BF04E000BF02E000BF00E049
:101F100000BF00BF1037BD4680BD00BF806A0020F3
:101F2000406A002080B586B000AF78607B68354A93
:101F3000934204D07B68344A934200D000BE7B6851
:101F40001B69002B00D100BE7B685B69002B00D1B0
:101F500000BE7B682B4A934203D07B682A4A934297
:101F60004CD17B681B69002B48D07B685B69002BD8
:101F700044D07B681B681B7DFB737B685A7BFB7BB3
:101F80001343DAB27B685A73FB7B03F02003002B08
:101F900024D010233B617B685A697B689B69D31A04
:101FA000BB60BB680F2B01D8BB683B6100237B6122
:101FB00010E07B681A697B689B691A447B681B6820
:101FC00012781A707B689B695A1C7B689A617B69DE
:101FD00001337B617A693B699A42EAD37B689A69EB
:101FE0007B685B699A4209D17B6800225A617B68F1
:101FF0001B68043301211846FFF70BFB00BF18379D
:10200000BD4680BD806A0020406A002080B582B055
:1020100000AF0F4B5B68FB710D4B9B68DAB2FB792D
:102020001340FB71FB7903F00203BB71BB79002BFA
:1020300001D000F0E5F8FB7903F001037B717B79B7
:10204000002B01D000F006F800BF0837BD4680BD68
:102050000060014080B584B000AF624B1B78022B5A
:102060003DD0052B68D0012B40F0AA805E4B1B8829
:102070009BB2002B2FD05D4B1A685B4B1B889BB229
:102080001946104600F00AFAF860574B1B889BB2BD
:102090001A46FB6893420FD2534B1B889AB2FB68D7
:1020A0009BB2D31A9AB2504B1A80504B1A68FB68F5
:1020B00013444E4A136090E04B4B00221A804C4B65
:1020C0001B68002B03D0474B02221A7085E0454B5A
:1020D00003221A7081E000BE00F0BAF97DE0444BA3
:1020E0001B68002B24D0434B1A68414B1B681946D0
:1020F000104600F0D3F9B8603D4B1B68BA689A42AD
:102100000CD23B4B1A68BB68D31A394A1360394B5F
:102110001A68BB681344374A13605EE0364B9B680D
:10212000354A23F0010393602E4B03221A7054E0CA
:1021300000BE00F08DF950E02D4B1B68002B1BD129
:102140002E4B1B68002B14D02C4B1B68294898473A
:102150000246274B1A60264B1B68002B0CD1264BDE
:102160009B68254A23F0010393601E4B03221A70DB
:1021700002E000BE00F06CF91D4B1B68002B09D17A
:102180001D4B9B681C4A23F001039360154B0322EF
:102190001A7022E0174B1A68154B1B681946104637
:1021A00000F07CF97860124B1A687B68D31A104AE9
:1021B0001360104B1A687B6813440E4A13600CE0DE
:1021C0000D4B9B680C4A23F001039360002000F044
:1021D0001FF9044B00221A7000BF00BF1037BD4624
:1021E00080BD00BF71690020546900205069002043
:1021F0005C69002058690020006001406C69002083
:1022000080B584B000AF7C4B1B69FB81FB8923F454
:10221000FF4323F07F03BB81FB89FB72774B1B7865
:10222000052B00F2D68001A252F823F045220020AF
:10223000BF230020BF2300209D220020EB2200208E
:1022400093230020BB89002B00F0CA80FB7AF12B7E
:1022500006D0FB7ABB72BB7A184600F04FF9BFE09C
:10226000674B00221A80674B1B68654A128892B23E
:102270001344FA7A1A70624B1B889BB201339AB2EC
:102280005F4B1A805F4B1B685D4A128892B2134401
:1022900000221A70594B04221A70A1E0BB89002B4E
:1022A00000F0A080FB7A7B72574B1B78DBB27A7A06
:1022B0009A4215D1524B00221A80524B1B68504A49
:1022C000128892B213447A7A1A704D4B1B889BB2D3
:1022D00001339AB24A4B1A80484B04221A7081E0AB
:1022E0007B7A184600F00AF97CE0BB89002B06D007
:1022F000FB7A3B723B7A184600F000F974E0414BE0
:102300001A683F4B1B889BB2013B13441B78F12B8F
:1023100016D13C4B1B683A4A128892B21344FA7A9F
:102320001A70384B1A68364B1B889BB2013B13441A
:102330001B78184600F0E2F8304B00221A7053E088
:102340002F4B1B889AB2314B1B889A4210D2FB7AD2
:10235000FB712C4B1B682A4A128892B21344FA79FB
:102360001A70274B1B889BB201339AB2244B1A80F8
:10237000234B1B889AB2254B1B889A4234D1204BA1
:102380001B889BB2184600F043F81C4B00221A70C1
:102390002AE0BB89002B0BD11A4B1B680133FA7A58
:1023A0001A70022000F034F8144B00221A701EE05C
:1023B000FB7ABB71BB79184600F0A0F817E0BB8927
:1023C000002B13D0FB7A7B717B79184600F096F8CE
:1023D0000CE0002000F01CF8084B00221A7006E008
:1023E00000BF04E000BF02E000BF00E000BF00BF8C
:1023F0001037BD4680BD00BF0060014071690020FC
:1024000066690020606900204E6900206469002030
:1024100080B582B000AF0346FB800A4B1B68002BDF
:102420000CD0084B1B68084A1268F9881046984778
:10243000044B00221A60054B00221A7000BF0837B7
:10244000BD4680BD68690020606900207069002079
:1024500080B582B000AF0E4B1B78DBB2002B13D0DF
:102460000C4B1B889BB21846FFF7D2FF0A4B1B6828
:10247000094A43F001031360074B1B6803F0010393
:102480007B607B68002BF7D100BF0837BD4680BD5D
:1024900070690020666900200060014080B485B04A
:1024A00000AF78603960144B1B68134A23F00403B3
:1024B00013600023FB60104B5B6803F00103BB60FB
:1024C0000DE07A68FB6813441A780B4B1A61FB68BD
:1024D0000133FB60084B5B6803F00103BB60BB6822
:1024E000002B03D0FA683B689A42EAD3FB6818468F
:1024F0001437BD4680BC70470060014080B582B093
:1025000000AF0346FB71064B1B68002B04D0044B45
:102510001B68FA791046984700BF0837BD4680BD52
:102520007469002080B483B000AF0346FB71FB796F
:1025300003F01F02064997F907305B09012000FAF2
:1025400002F241F8232000BF0C37BD4680BC704723
:1025500000E100E080B483B000AF0346FB71FB797B
:1025600003F01F02074997F907305B09012000FAC1
:1025700002F2203341F8232000BF0C37BD4680BC57
:10258000704700BF00E100E080B483B000AF0346B5
:10259000FB71FB7903F01F02074997F907305B09CC
:1025A000012000FA02F2603341F8232000BF0C370B
:1025B000BD4680BC704700BF00E100E080B584B03C
:1025C00000AF78607B68314A934204D07B68304A20
:1025D000934200D000BE7B6893F904301846FFF7A1
:1025E000B9FF84220021786802F062FF7B68012233
:1025F0005A620023FB810AE0FB897A680633DB001C
:1026000013444FF0FF325A60FB890133FB81FB8991
:10261000072BF1D97B681D4A934215D17B681D4A6F
:102620001A607B6802221A711B4B9B6C1A4A43F496
:10263000007393640220FFF7A7FF174B9B6C164AA9
:1026400023F40073936414E07B68144A1A607B6877
:1026500003221A71104B9B6C0F4A43F480639364FE
:102660000320FFF791FF0C4B9B6C0B4A23F4806314
:1026700093647B681B681A687B681B6822F00042C1
:102680001A6000BF1037BD4680BD00BF446B0020FC
:10269000C06A00200010004000800340001001408C
:1026A00080B58AB000AF78607B681B681B687B626E
:1026B0007B681B689B693B627B681B685B68FB618E
:1026C0007B681B689B6ABB617B681B681B6B7B61BB
:1026D0007B681B685B6B3B617B681B68DB69FB602D
:1026E0007B68354A93421DD17B68344A1A607B6807
:1026F00002221A71324B9B6C314A43F4007393648B
:102700000220FFF741FF2E4B9B6C2D4A23F40073F0
:1027100093647B681B681A687B681B6822F0004220
:102720001A601CE07B68274A1A607B6803221A71D2
:10273000234B9B6C224A43F4806393640320FFF78E
:1027400023FF1F4B9B6C1E4A23F4806393647B68BA
:102750001B681A687B681B6822F000421A607B6A5B
:1027600023F001037B627B681B687A6A1A607B68CE
:102770001B683A6A9A617B681B68FA695A607B68D1
:102780001B681A687B681B6842F001021A607B684C
:102790001B68BA699A627B681B687A691A637B68EE
:1027A0001B683A695A637B681B68FA68DA6100BF84
:1027B0002837BD4680BD00BF446B0020001000409C
:1027C000008003400010014080B586B000AFF86083
:1027D0007A603B600B46FB72FB68454A934204D02B
:1027E000FB68444A934200D000BEFB7A072B00D915
:1027F00000BE97F82030202B00D900BE3B68012B8B
:1028000000D800BE3B68B3F5007F00D900BE3B682E
:1028100003F00103002B00D000BEFB6893F90430E5
:102820001846FFF797FEFB68002283F88020FB68BC
:102830001B681A68FB681B6822F001021A60FB68BB
:102840001B681A68FB681B6842F002021A60FB688A
:102850001B681A68FB681B6842F001021A60FB7A69
:10286000072B3AD87B68002B0BD07B68B3F1007F35
:1028700007D07B68B3F1807F03D07B68B3F1407FE2
:102880000BD1FB7A7A6842F0505242F48172F968B7
:102890000633DB000B445A600AE0FB7A7A6842F0A8
:1028A000405242F48172F9680633DB000B445A60EF
:1028B000FB7AFA680633DB00134497F820201A727B
:1028C0003B685B08013B7B61FB7A7A69D1B2FA68AD
:1028D0000633DB0013440A465A72FB6893F904304E
:1028E0001846FFF71FFE00BF1837BD4680BD00BF6A
:1028F000446B0020C06A002080B584B000AF7860CF
:102900000B46FB707B68354A934204D07B68344A9F
:10291000934200D000BE7B681B681B6803F0020373
:10292000022B00D000BEFB787A680633DB0013442C
:102930005B68B3F1FF3F00D100BE7B6893F90430C0
:102940001846FFF707FE7B681B689B6803F00403CB
:10295000FB60FB68002B02D07868FFF7A1FE7B6864
:102960001B681A687B681B6822F001021A60FB78FA
:102970007A68126879680633DB000B445B68136081
:10298000FB787A680633DB0013445A7A7B681B684D
:102990009A61FB787A680633DB0013441A7A7B6805
:1029A0001B685A607B681B681A687B681B6842F06A
:1029B00001021A607B681B68D969FB7801229A4082
:1029C0007B681B680A43DA617B6893F90430184618
:1029D000FFF7A8FD00BF1037BD4680BD446B002047
:1029E000C06A002080B584B000AF78600B46FB70F1
:1029F0007B681C4A934204D07B681B4A934200D0F8
:102A000000BE7B681B681B6803F00203022B00D02A
:102A100000BE7B6893F904301846FFF79BFD7B6886
:102A20001B689B6803F00403FB60FB68002B02D06B
:102A30007868FFF735FE7B681B68D969FB7801224F
:102A400002FA03F3DA437B681B680A40DA617B68A9
:102A500093F904301846FFF765FD00BF1037BD46F7
:102A600080BD00BF446B0020C06A002080B485B0E8
:102A700000AF786039607B68274A934204D07B6856
:102A8000264A934200D000BE7B681B681B6803F097
:102A90000203022B00D000BE7B681B681B6823F476
:102AA0007F0323F47F437A68126843F480731360D2
:102AB0007B681B68DA6A7B681B6842F00C02DA628A
:102AC0007B681B683A685A617B681B689B6803F0E7
:102AD0000103BB6005E07B681B689B6803F0010392
:102AE000BB60BB68002BF6D07B681B689B6803F05B
:102AF0000203FB6005E07B681B689B6803F0020330
:102B0000FB60FB68002BF6D07B681B681B691846CE
:102B10001437BD4680BC7047446B0020C06A00205B
:102B200080B58EB000AFF860B9603B601346FB80A3
:102B30000023FB8600237B85FB68744A934204D004
:102B4000FB68734A934200D000BEFB681B681B6899
:102B500003F00203022B00D000BEFA88B7F8403021
:102B600013447B847B8C002B02D10123FB6201E0A8
:102B70007B8CFB62FB681B68DA6AFB681B6842F0AF
:102B80000C02DA62FB681B689B6803F00403FB61BC
:102B9000FB69002B02D0F868FFF782FDFB681B6819
:102BA0001A68FB681B6822F001021A60FB681B6848
:102BB0001B6823F47F0222F47F42FB6A1B0223F08E
:102BC0007F4323F0FF03F968096813430B60FB6838
:102BD0001B6808225A60FB681B681A68FB681B6840
:102BE00042F001021A60FB681B689B6803F0400317
:102BF0007B6209E0FB681B681B697B61FB681B68E3
:102C00009B6803F040037B627B6A002BF2D00023B9
:102C1000BB8600237B86BA8EFB889A420DD2BB8E80
:102C2000BA6813441A78FB681B685A61BB8E01337B
:102C3000BB867B8D01337B855FE0BA8E7B8C9A42AD
:102C40005BD2FB681B6800225A61BB8E0133BB86D6
:102C50007B8D01337B8550E0FB681B689B6803F02C
:102C600040037B627B6A002B1BD1FB681B681B69DE
:102C70007B61FA8EFB889A420DD37A8EB7F840308A
:102C80009A4205D279697B8E3A681344CAB21A70A7
:102C90007B8E01337B86FB8E0133FB867B8D013B74
:102CA0007B85FB681B689B6803F48073BB61BB6911
:102CB000002B22D17B8D032B1FD8BA8EFB889A4222
:102CC0000DD2BB8EBA6813441A78FB681B685A6130
:102CD000BB8E0133BB867B8D01337B850DE0BA8EC5
:102CE0007B8C9A4209D2FB681B6800225A61BB8E1A
:102CF0000133BB867B8D01337B85FA8E7B8C9A42B8
:102D0000AAD300BF3837BD4680BD00BF446B00204A
:102D1000C06A002080B485B000AF78600023FB60FB
:102D20000DE07B689A687B681B6913441A787B689E
:102D30001B685A617B681B695A1C7B681A617B6837
:102D40001B689B6803F48073002B05D17B681A69AC
:102D50007B68DB689A42E4D37B681A697B68DB682E
:102D60009A421BD30DE07B685A697B68DB69134488
:102D70001A787B681B685A617B68DB695A1C7B6820
:102D8000DA617B681B689B6803F48073002B05D1B4
:102D90007B68DA697B689B699A42E4D37B685B6AEB
:102DA000002B1DD07B681A697B68DB689A4217D3B9
:102DB0007B68DA697B689B699A4211D306E07B687D
:102DC0001B6800225A61FB680133FB607B681B684B
:102DD0009B6803F48073002B02D1FB681F2BEED994
:102DE00000BF1437BD4680BC704780B584B000AFCB
:102DF00078607B6893F88030022B15D10CE07B68FB
:102E00001B681B69FB607B685B6F002B04D07B68D1
:102E10005B6FFA68104698477B681B689B6803F0F5
:102E20004003002BEBD02FE07B6893F88030012B20
:102E300023D116E07B681B681B69FB607B681A6BFB
:102E40007B68DB6A9A4207D2F9687B689A6A7B687A
:102E50001B6B1344CAB21A707B681B6B5A1C7B68CD
:102E60001A637B681B689B6803F04003002BE1D06A
:102E70000AE07B681B681B69FB607B681B689B68BA
:102E800003F04003002BF4D000BF1037BD4680BDD7
:102E900080B586B000AF78607B681B6820337B61AB
:102EA0007B68984A934204D07B68974A934200D04B
:102EB00000BE7B691B6803F00203002B4ED07B68C9
:102EC00093F88030022B15D10CE07B681B681B69DE
:102ED000FB607B685B6F002B04D07B685B6FFA68DC
:102EE000104698477B681B689B6803F04003002BE3
:102EF000EBD02FE07B6893F88030012B23D116E0D4
:102F00007B681B681B69FB607B681A6B7B68DB6AEC
:102F10009A4207D2F9687B689A6A7B681B6B1344F4
:102F2000CAB21A707B681B6B5A1C7B681A637B6879
:102F30001B689B6803F04003002BE1D00AE07B682C
:102F40001B681B69FB607B681B689B6803F0400380
:102F5000002BF4D07B681B680222DA607B691B6857
:102F600003F00103002B11D07B6893F88030022B13
:102F700005D17B681B687A68926F5A6102E07868B5
:102F8000FFF7C8FE7B681B680122DA607B691B685B
:102F900003F01003002B20D07868FFF726FF7B6832
:102FA0001B6A002B0AD07B681B6A7A68906A7A6871
:102FB000126B114698477868FFF7ACFE7B680122D8
:102FC0005A627B681B689A6A7B681B6822F0100251
:102FD0009A627B681B681022DA607B691B6803F0C9
:102FE0000403002B0ED07B681B68DA6A7B681B68C1
:102FF00042F00402DA627868FFF752FB7B681B68D4
:103000000422DA607B691B6803F00803002B2DD0D3
:103010007B681B68DA6A7B681B6842F00802DA6228
:103020007B6893F88030022B11D17B681B681B688A
:1030300023F47F0323F47F437A68126843F4807398
:1030400013607B681B687A68926F5A610AE07B683C
:1030500093F88030012B05D17B6800221A617868D3
:10306000FFF758FE7B681B680822DA607B691B68E3
:1030700003F02003002B41D07868FFF7B6FE7B6891
:103080001B6B3B617B681B6A002B17D07B6800229F
:103090005A627B6800225A617B6800229A617B68D1
:1030A0000022DA617B681B681022DA607B681B688B
:1030B0009A6A7B681B6842F010029A627B68002261
:1030C0001A617B681B68DA6A7B681B6842F00C0235
:1030D000DA627868FFF71EFE7B6800221A637B685D
:1030E000DB6F002B06D07B68DB6F7A68926A3969E8
:1030F000104698477B681B682022DA6000BF1837AB
:10310000BD4680BD446B0020C06A0020684620F0A8
:1031100007018D4689B500AF0448FFF7B9FE00BF2F
:10312000BD46BDE889408546704700BF446B00201E
:10313000684620F007018D4689B500AF0448FFF7C7
:10314000A7FE00BFBD46BDE889408546704700BF69
:10315000C06A002080B483B000AF0346FB71FB79E6
:1031600003F01F02074997F907305B09012000FAB5
:1031700002F2203341F8232000BF0C37BD4680BC4B
:10318000704700BF00E100E080B483B000AF78601A
:103190007B6893F86830002B03D07B689B69012221
:1031A0009A6000BF0C37BD4680BC704790B585B0B3
:1031B00000AF78600123FB737B68E74A934204D039
:1031C0007B68E64A934200D000BE7B685B691B794E
:1031D000FB72FB7ADBB2083BD02B00F2D78301A253
:1031E00052F823F0293500208D3900208D39002038
:1031F0008D3900208D3900208D3900208D39002037
:103200008D390020293500208D3900208D3900208E
:103210008D3900208D3900208D3900208D39002016
:103220008D390020C53500208D3900208D390020D2
:103230008D3900208D3900208D3900208D390020F6
:103240008D390020A73500208D3900208D390020D0
:103250008D3900208D3900208D3900208D390020D6
:103260008D390020C53500208D3900208D39002092
:103270008D3900208D3900208D3900208D390020B6
:103280008D3900204B3600208D3900208D390020EB
:103290008D3900208D3900208D3900208D39002096
:1032A0008D3900209D3500208D3900208D3900207A
:1032B0008D3900208D3900208D3900208D39002076
:1032C0008D390020693600208D3900208D3900208D
:1032D0008D3900208D3900208D3900208D39002056
:1032E0008D390020AD3600208D3900208D39002029
:1032F0008D3900208D3900208D3900208D39002036
:103300008D390020CB3600208D3900208D390020EA
:103310008D3900208D3900208D3900208D39002015
:103320008D390020FF3600208D3900208D39002096
:103330008D3900208D3900208D3900208D390020F5
:103340008D3900208F3700208D3900208D390020E5
:103350008D3900208D3900208D3900208D390020D5
:103360008D390020873700208D3900208D390020CD
:103370008D3900208D3900208D3900208D390020B5
:103380008D3900208F3700208D3900208D390020A5
:103390008D3900208D3900208D3900208D39002095
:1033A0008D390020873700208D3900208D3900208D
:1033B0008D3900208D3900208D3900208D39002075
:1033C0008D390020C53700208D3900208D3900202F
:1033D0008D3900208D3900208D3900208D39002055
:1033E0008D3900205B3700208D3900208D39002079
:1033F0008D3900208D3900208D3900208D39002035
:103400008D390020C53700208D3900208D390020EE
:103410008D3900208D3900208D3900208D39002014
:103420008D3900205B3700208D3900208D39002038
:103430008D3900208D3900208D3900208D390020F4
:103440008D3900201B3800208D3900208D39002057
:103450008D3900208D3900208D3900208D390020D4
:103460008D390020DD3800208D3900208D39002075
:103470008D3900208D3900208D3900208D390020B4
:103480008D390020DD3800208D3900208D39002055
:103490008D3900208D3900208D3900208D39002094
:1034A0008D390020DD3800208D3900208D39002035
:1034B0008D3900208D3900208D3900208D39002074
:1034C0008D3900205D3900208D3900208D39002094
:1034D0008D3900208D3900208D3900208D39002054
:1034E0008D3900205D3900208D3900208D39002074
:1034F0008D3900208D3900208D3900208D39002034
:103500008D3900208D3900208D3900208D39002023
:103510008D3900208D3900208D3900208D39002013
:103520008D390020B53800207B689B6900225A61E4
:103530007B685A687B685B69D2B21A727B689B6948
:103540007A68D26AC3F800217B68DB6A002B07D156
:103550007B6800229A620AE0C86B00203C6C002065
:103560007B68DB6A012B02D17B6800229A637B684F
:1035700093F87130002B03D07B68002283F8712010
:103580007B681A7A7B6893F872309A4200F01D8249
:103590007B6893F872207B681A7216E27B689B69DD
:1035A00001225A611CE27B689B6901221A617B68D7
:1035B000022283F83C207B6800221A727868FFF7A9
:1035C000E3FD0DE27B689A6A7B685B6A9A420CD2E3
:1035D0007B681A6A7B689B6A581C796888621A44FF
:1035E0007B685B6912781A72FAE17B681B7A032B9D
:1035F00007D17B680122DA627B689B6901225A61EC
:10360000EEE17B6800221A727B681B7C03F00103E9
:10361000BB737B68BA7B83F87020BB7B002B07D120
:103620007B689B6901221A617868FFF7ADFD07E0AE
:103630007B6893F911301846FFF78CFD0023FB736C
:103640007B68002283F83C20CAE17B689B690122E9
:103650001A617B68022283F83C207B6800221A7280
:103660007868FFF791FDBBE17B685B6B012B04D9A8
:103670007B689B6901229A60B2E17B685B6B012BDE
:1036800004D17B689B6900229A60A9E17B689B69F1
:1036900001229A607B689B6901221A617B68002283
:1036A00083F83C207B6800221A7299E17B689B6951
:1036B00001221A617B68022283F83C207B68002289
:1036C0001A727868FFF760FD8AE17B685A697B6847
:1036D000196B7B689B6B5C1C786884630B44127A63
:1036E000D2B21A707B689A6B7B685B6B013B9A4223
:1036F000C0F06D817B689B6900229A6067E17B68FE
:103700005A697B68196B7B689B6B0B44127AD2B247
:103710001A707B681B7C03F00103BB737B68BA7B68
:1037200083F87020BB7B002B07D17B689B6901224B
:103730001A617868FFF728FD07E07B6893F911307C
:103740001846FFF707FD0023FB737B6800221A72FF
:103750007B68002283F83C2042E17B689B69012260
:103760009A607B6800221A727B68002283F85C20D2
:103770007B6893F87130002B00F02B817B689B698C
:1037800001225A6125E17B68012283F871207B6860
:1037900004221A727B6800229A657B680022DA6034
:1037A0007B689B695B69002B07D07B689B69002263
:1037B0005A617B68012283F871207B68012283F8BB
:1037C0005C200DE17B681B6D002B1AD07B689A6D25
:1037D0007B685B6D9A4214D27B685B691B7A7B7352
:1037E0007B681A6D7B689B6D581C796888651344EB
:1037F0007A7B1A707B68DB681A027B7B1A447B68D1
:10380000DA607B689A6D7B685B6D9A42C0F0E380FA
:103810007B689B6900229A60DDE07B681B7A042B41
:1038200031D17B689A6D7B681B6E9A4203D17B68AD
:10383000DA687B68DA647B685B6E002B1ED07B687D
:103840005B6E7A68116D7A68926D92B2786898476B
:1038500003463B733B7B002B07D17868FFF794FC52
:103860007B689B6901229A6013E07B689B69002258
:103870009A607B68002283F868200AE07B689B6975
:1038800001229A6005E07B680022DA647868FFF71D
:103890007BFC7B68002283F85C207B6893F87130A6
:1038A000002B03D07B689B6901225A617B68002250
:1038B0001A7295E07B6800221A727B680022DA6433
:1038C0007B6893F85C30DBB2012B03D17B6802226A
:1038D00083F85C207868FFF757FC81E0FB7ADBB265
:1038E000A82B16D17B6805221A727B680022DA6049
:1038F0007B68012283F85C207B689B695B69002BF5
:1039000007D07B689B6900225A617B68012283F89B
:1039100071207B68DA6C7B689B6C9A4204D37B686D
:103920005B69FF221A720BE07B685A6C7B68DB6C68
:10393000581C7968C8641A447B685B6912781A72EB
:103940007B68DA6C7B689B6C9A4246D37B689B6988
:1039500000229A607B680022DA643EE07B680022E5
:10396000DA647B689B6901229A607B68002283F895
:103970005C207B6893F87130002B03D07B689B69D7
:1039800001225A617B6800221A7229E07B689B69D8
:1039900000225A617B6800221A727B680022DA6476
:1039A0007B6893F83C30DBB2012B03D17B680222A9
:1039B00083F83C207B6893F85C30DBB2012B0ED19E
:1039C0007B68022283F85C2009E000BF08E000BFAA
:1039D00006E000BF04E000BF02E000BF00E000BF5F
:1039E000FB7B002B03D07B689B690022DA607B683D
:1039F0005B691B79FB7200BF1437BD4690BD00BFE9
:103A0000684620F007018D4689B500AF0448FFF7EE
:103A1000CDFB00BFBD46BDE889408546704700BF6D
:103A2000C86B0020684620F007018D4689B500AFBD
:103A30000448FFF7BBFB00BFBD46BDE88940854693
:103A4000704700BF3C6C002080B485B000AFF860C8
:103A5000B9607A60FB704D484D4B1A68F97813468F
:103A60009B001344DB01034403F5E27319604949E9
:103A7000474B1A6813469B0013449B000B440433C6
:103A8000FA681A604349424B1A6813469B00134474
:103A90009B000B440833BA681A603E493C4B1A68D5
:103AA00013469B0013449B000B440C331B6839489E
:103AB000374A11681A0C12040B469B000B449B00FA
:103AC00003440C331A607B68B3F5803F0FD97B68E1
:103AD000A3F58033304A1361BB6803F580332E4A67
:103AE000D360FB6803F580332B4A93601AE02949C1
:103AF000274B1A6813469B0013449B000B440C335E
:103B00001B687A6892B211462248214A126819430A
:103B100013469B0013449B0003440C3319601E4B57
:103B200000221A611B491A4B1A6813469B00134462
:103B30009B000B440C331B681648154A126843F46B
:103B4000E00113469B0013449B0003440C331960AF
:103B50000E490F4B1A6813469B001344DB010B44BC
:103B600003F5E07301221A600849094B1A681346ED
:103B70009B001344DB010B4403F5E67300221A603B
:103B800000BF1437BD4680BC704700BF000028420C
:103B9000906900200040014078690020684620F0CC
:103BA00007018D4689B500AF354A364B1B6803F5D2
:103BB0002873012142F823103349324B1A68134607
:103BC0009B0013449B000B440C331B682E482D4A6A
:103BD000126823F4E00113469B0013449B00034446
:103BE0000C331960274B1B680133264A1360254BA1
:103BF0001B68042B02D1234B00221A60234B1B6944
:103C0000002B17D0224B1B68042B03D1204B002222
:103C10001A6004E01E4B1B6801331D4A13601B4BE6
:103C200098681A4BD968194B1A69184B1B7DFFF716
:103C30000BFF1EE01449134B1A6813469B001344F4
:103C40009B000B440C331B6803F4E003002B10D1E2
:103C50000C4B00221A600E4B00221A600B4B012203
:103C60001A700A4B5B68002B03D0084B5B6801207D
:103C7000984700BFBD46BDE889408546704700BFF4
:103C8000000028429469002000400140786900202B
:103C900090690020684620F007018D4681B583B009
:103CA00000AF384B1B683B603B6803F470633B60BC
:103CB0003B68002B2FD03449344B1A6813469B00C5
:103CC0001344DB010B4403F502731B68002B0AD07D
:103CD0002F4B02221A702E4B5B68002B03D02C4B0B
:103CE0005B68022098472849284B1A6813469B00B6
:103CF0001344DB010B4403F503731B68002B0AD04C
:103D0000234B03221A70224B5B68002B03D0204BFD
:103D10005B68032098471B4B1B683B603B6803F4C0
:103D200070433B603B68002B0AD0194B04221A7089
:103D3000174B5B68002B03D0154B5B68042098473A
:103D400000237B6014E010497A6813469B001344FB
:103D5000DB010B4403F5E47301221A600A4A7B6815
:103D600003F52873012142F823107B6801337B603F
:103D70007B68032BE7D900BF0C37BD46BDE8814007
:103D800085467047004001400000284294690020A9
:103D90007869002080B483B000AF0346FB71FB79E3
:103DA00003F01F02064997F907305B09012000FA6A
:103DB00002F241F8232000BF0C37BD4680BC70479B
:103DC00000E100E080B483B000AF0346FB71FB79F3
:103DD00003F01F02074997F907305B09012000FA39
:103DE00002F2203341F8232000BF0C37BD4680BCCF
:103DF000704700BF00E100E080B483B000AF03462D
:103E0000FB71FB7903F01F02074997F907305B0943
:103E1000012000FA02F2603341F8232000BF0C3782
:103E2000BD4680BC704700BF00E100E080B582B0B5
:103E300000AF1A4B9B6C194A43F480139364174BE1
:103E40009B6C164A43F0F073936400237B6012E08E
:103E5000134A7B68134493F900301846FFF7B2FF0A
:103E60000F4A7B68134493F900301846FFF7C4FFEC
:103E70007B6801337B607B681F2BE9D9074B9B6C08
:103E8000064A23F0F0739364044B9B6C034A23F4BB
:103E90008013936400BF0837BD4680BD0080034097
:103EA000A460002080B485B000AF03463960FB7188
:103EB000FB79FB60FB681F2B00D900BEFB681F2B42
:103EC00005D8054AFB6852F823303A681A6000BFEB
:103ED0001437BD4680BC70472460002080B584B094
:103EE00000AF0346FB71FB79FB60FB681F2B00D919
:103EF00000BEFB681F2B15D80C4AFB6852F8233014
:103F00001B68BB60094AFB6852F82330BA6842F06C
:103F100008021A60064AFB68134493F900301846F9
:103F2000FFF738FF00BF1037BD4680BD246000207A
:103F3000A460002080B485B000AF0346FB71FB791C
:103F4000FB60FB681F2B00D900BEFB681F2B06D847
:103F5000064A0121FB6801FA03F3C2F88030BFF37F
:103F60004F8F00BF1437BD4680BC70470030014002
:103F700080B483B000AF0346FB71FB7903F01F02EE
:103F8000064997F907305B09012000FA02F241F86F
:103F9000232000BF0C37BD4680BC704700E100E025
:103FA00080B483B000AF0346FB71FB7903F01F02BE
:103FB000074997F907305B09012000FA02F2203324
:103FC00041F8232000BF0C37BD4680BC704700BFBE
:103FD00000E100E080B483B000AF0346FB71FB79E1
:103FE00003F01F02074997F907305B09012000FA27
:103FF00002F2603341F8232000BF0C37BD4680BC7D
:10400000704700BF00E100E080B483B000AF78608B
:104010000B46FB707B6803F070427B685B0123F00A
:104020007E4323F01F031343FA789200134403F1F5
:1040300000731A460123136000BF0C37BD4680BCD5
:10404000704780B483B000AF78600B46FB707B682C
:1040500003F070427B685B0123F07E4323F01F0373
:104060001343FA789200134403F100731A460023B5
:10407000136000BF0C37BD4680BC704780B483B06E
:1040800000AF78600B46FB707B6803F070427B6882
:104090005B0123F07E4323F01F031343FA78920061
:1040A000134403F100731B68DBB218460C37BD469E
:1040B00080BC704780B582B000AF78607B68002B11
:1040C00000D100BE7B68002B78D00C20FFF768FF82
:1040D0003C4B9B6C3B4A43F0100393640C20FFF76E
:1040E00079FF384B9B6C374A23F01003936400F040
:1040F00059F9786800F088F97B680433184600F0B5
:1041000011FE00F06BFD00F0B9FD2F4B4FF6FF7272
:10411000A3F85A202C4B4FF6FF72A3F85C202A4BD1
:104120000022A3F85E20284B0222A3F85820264B39
:104130000222A3F86020244B0022A3F86220224B25
:104140004FF6FF72A3F864201F4B00221A651E4B26
:1041500000225A657B689B7AFF2B05D100F020FE78
:1041600003461A467B689A727B689B7A1846FCF76E
:10417000E5F97B681B681846FCF716FAFCF77EFA2F
:1041800000F028F80F4B0022C3F8AC200D4B0122A1
:10419000C3F8AC210B4B0022C3F8AC2100210B4823
:1041A000FFF732FF02210948FFF72EFF00210848E0
:1041B000FFF72AFF04210648FFF726FF00BF083754
:1041C000BD4680BD00800340986900200010044077
:1041D0009811044080B582B000AF7A1DBB1D114616
:1041E0001846FCF78DFA0346FB71FB79002B57D07C
:1041F000BB79012B06D12C4B9B6B2B4A43F48033AC
:10420000936305E0284B9B6B274A23F48033936329
:10421000BB79022B0CD1244B5B68234A23F44073F7
:104220005360214B5B68204A43F4007353600BE0FA
:104230001D4B5B681C4A23F4407353601A4B5B6848
:10424000194A43F480735360BB79002B01D10123D9
:10425000BB71164BD3F88C3023F00303BA791146A7
:10426000124A0B43C2F88C307B79002B0CD10E4BD9
:104270005B680D4A23F0010353600B4BDB6D0A4A68
:1042800043F48003D3650BE0074B5B68064A43F0B9
:1042900001035360044BDB6D034A23F48003D365B1
:1042A00000BF0837BD4680BD0010044000800340B9
:1042B00080B483B000AF78607B68002B00D100BE73
:1042C0007B68002B67D07B683F221A607B68FF22E7
:1042D0009A727B680122DA727B6801221A737B680A
:1042E00007225A737B6800229A737B680122DA7373
:1042F0007B6801221A747B6801225A747B68002251
:10430000DA747B6801221A757B6801225A757B6812
:1043100050229A757B686022DA757B680F221A76C4
:104320007B6800225A767B6800229A767B6800229E
:10433000DA767B6800221A777B680A225A777B68D4
:1043400007229A777B680022DA777B684FF4C06295
:104350001A847B6844F260025A847B6837229A840C
:104360007B6800229A620E4B1A787B681A710C4B9C
:104370005A787B685A710A4B9A787B689A71084B15
:10438000DA787B68DA71064B1A797B681A72044B0B
:104390005A797B685A7200BF0C37BD4680BC7047A3
:1043A000C460002080B500AF10211448FFF72CFE38
:1043B00011211248FFF728FE12211048FFF724FEB2
:1043C00013210E48FFF720FE1F210D48FFF71CFEAA
:1043D00000210C48FFF718FE01210A48FFF714FEE0
:1043E00002210848FFF710FE03210648FFF70CFEE4
:1043F00004210448FFF708FE00BF80BD0010044000
:10440000381004404810044080B584B000AF786094
:104410007B68DB7A012B04D07B68DB7A002B00D031
:1044200000BE7B681B7B012B04D07B681B7B002BB1
:1044300000D000BE7B685B7B0F2B00D900BE7B6881
:104440009B7B012B04D07B689B7B002B00D000BEA4
:104450007B68DB7B012B04D07B68DB7B002B00D0EF
:1044600000BE7B681B7C012B04D07B681B7C002B6F
:1044700000D000BE7B685B7C012B04D07B685B7C3A
:10448000002B00D000BE7B68DB7C012B04D07B6856
:10449000DB7C002B00D000BE7B681B7D012B04D091
:1044A0007B681B7D002B00D000BE7B685B7D012BF1
:1044B00004D07B685B7D002B00D000BE7B68DB7D79
:1044C0005BB2002B00DA00BE7B681B7E1F2B00D97D
:1044D00000BE7B685B7E012B04D07B685B7E002B7B
:1044E00000D000BE7B689B7E012B04D07B689B7E46
:1044F000002B00D000BE7B68DB7E012B04D07B68E4
:10450000DB7E002B00D000BE7B681B7F012B04D01C
:104510007B681B7F002B00D000BE7B685B7F0F2B6E
:1045200000D900BE7B689B7F072B00D900BE7B684B
:10453000DB7F012B04D07B68DB7F002B00D000BE2B
:104540007B681B8CB3F5C06F00D900BE7B689B8C69
:10455000B3F5806F00D300BE7B68DB7A012B04D1FA
:1045600003217748FFF750FD03E003217448FFF76C
:1045700068FD7B681B7B012B04D104217048FFF789
:1045800043FD03E004216E48FFF75BFD7B689B7FE2
:1045900003F00703FB607B68DB7F012B03D1FB6823
:1045A00043F01003FB60674AFB681362654B1B68AE
:1045B000644A23F0004323F4702313601F216248F0
:1045C000FFF73FFD5F4B9B6C5E4A23F01F03936434
:1045D0007B68DB7C012B03D14FF48073FB6001E02F
:1045E0000023FB607B681B7D012B03D1FB6843F03C
:1045F0002003FB607B685B7D012B03D1FB6843F0EC
:104600001003FB604F4AFB6813600123FB607B686B
:104610005B7C012B03D1FB6843F00203FB607B68EA
:104620001B7C012B03D1FB6843F00403FB607B6818
:10463000DB7B012B03D1FB6843F01003FB607B683D
:104640009B7B012B03D1FB6843F02003FB60FB68DD
:1046500043F40073FB607B685B7B1B03FA681343C6
:10466000FB60384AFB6853607B68DB7DFB607B68DE
:104670009B7D1B02FA681343FB607B685B8C1B0409
:10468000FA681343FB602F4AFB6893607B689B8C3E
:104690001A4640F2FF231340FB607B681B7E1B031E
:1046A000FA681343FB607B685B7E012B03D1FB68D8
:1046B00043F48033FB607B689B7E012B03D1FB6856
:1046C00043F40033FB607B68DB7E012B03D1FB6886
:1046D00043F48023FB607B681B7F012B03D1FB68C5
:1046E00043F40023FB607B685B7F1B05FA68134380
:1046F000FB60144AFB68D3607B681A8C114B1A610B
:10470000104B4FF4F8529A640E4B104ADA640D4B7A
:104710000F4A1A650B4B0F4A5A650A4B4FF6FF7248
:104720009A65084B0C4ADA650423FB600B4AFB6868
:104730009B00C2F88C3000BF1037BD4680BD00BF63
:104740003880034000100440381004400000FF0F80
:1047500080010004FFFF5802E7EF0F0000800340D4
:1047600080B483B000AF0346FB710B46BB711346A8
:10477000BB80FB791F2B00D900BEBB791F2B00D952
:1047800000BEFB791F2B15D8BB791F2B12D80C4B01
:104790005B6B03F00103002BF9D1FB79084A1B0284
:1047A0009362074B9A6ABB79054913438B62044AAB
:1047B000BB88D36200BF0C37BD4680BC704700BFCA
:1047C0000010044080B586B000AF03460A46FB7176
:1047D0001346BB71274B7B6100237B82FB791F2B28
:1047E00000D900BEBB791F2B00D900BEFB791F2B5F
:1047F00036D8BB791F2B33D81F4B5B6B03F00103FB
:10480000002BF9D1FB791C4A1B0293621A4B9A6A5E
:10481000BB79194913438B6200211848FFF7F4FB59
:104820007B69013B7B61144B5B6B03F00403FB6012
:10483000114B5B6B03F00103BB607B69002B05D060
:10484000BB68002BECD1FB68002BE9D17B69002B06
:1048500000D100BE7B69002B02D0074B1B6B7B8213
:1048600000210648FFF7EDFB7B8A18461837BD4646
:1048700080BD00BFA0860100001004402410044049
:1048800080B584B000AF786039600023FB730C20E2
:10489000FFF786FB7B68002B00D100BE7B6803F02E
:1048A0000303002B00D000BE404BB3F96030002B57
:1048B00074DD3E4BB3F960309BB2013B9BB21AB240
:1048C0003A4BA3F86020394BB3F86230BB81B7F99B
:1048D0000C20364913469B0013449B000B4428339D
:1048E0007A681A60B7F90C20304913469B001344CC
:1048F0009B000B4438333A681A60B7F90C202B49F7
:1049000013469B0013449B000B442C331B68B7F9E0
:104910000C2043F00041254813469B0013449B00A4
:1049200003442C33196000212148FFF7A7FB0346FD
:10493000002B17D11D4ABB89A2F86430B7F90C20AF
:1049400013469B0013449B002833184A1A44194B02
:10495000C3F8902102211848FFF756FB00211448A4
:10496000FFF752FB114BB3F962309BB201339BB29C
:104970001AB20E4BA3F862200C4BB3F96230012B34
:1049800003DD0A4B0022A3F8622003210A48FFF747
:1049900075FB0346002B01D10123FB730C20FFF7AD
:1049A000E7FAFB7B18461037BD4680BD98690020AA
:1049B0008C110440001004409411044080B584B070
:1049C00000AF0D4BD3F89C31FB60FB6803F0010393
:1049D000BB60BB68002B01D000F08AF8FB6803F0D5
:1049E00010037B607B68002B01D000F023F800BF30
:1049F0001037BD4680BD00BF0010044080B483B0B6
:104A000000AF7860034A7B68136500BF0C37BD4672
:104A100080BC70479869002080B483B000AF786094
:104A2000034A7B68536500BF0C37BD4680BC7047A6
:104A30009869002080B584B000AF0023FB60294B4B
:104A4000B3F964301A4613469B0013449B00283385
:104A5000244A1344BB60234BB3F964309BB2013347
:104A60009BB21AB21F4BA3F864201E4BB3F96430FB
:104A7000012B03DD1B4B0022A3F8642000211A4800
:104A8000FFF7C2FA194BD3F894311B0CDBB2FB6071
:104A9000144BB3F960309BB201339BB21AB2114B85
:104AA000A3F860200F4B5B6D002B13D0BB681B6815
:104AB0007B60BB685B68C3F30B03043B3B60094B43
:104AC0005B6D002B06D0074B5B6DBA6812693968C5
:104AD00078689847FB68002BB1D100BF1037BD46FE
:104AE00080BD00BF9869002094110440001004406C
:104AF00080B584B000AF0023BB60364BB3F95A30A9
:104B0000B3F1FF3F00D100BE324BB3F95C30B3F1DB
:104B1000FF3F00D100BE2F4BB3F85A30FB812D4B25
:104B2000B3F958309BB201339BB21AB2294BA3F8A8
:104B30005820284B1B6D002B0DD0264B196DB7F953
:104B40000E20244813469B0013449B00034410335B
:104B50001B68184688471F4BB3F95C30B7F90E2025
:104B60009A420CD11B4B4FF6FF72A3F85A20194BF7
:104B70004FF6FF72A3F85C200123BB601FE0FB89A6
:104B800001339BB2FB81B7F90E30012B01DD00230D
:104B9000FB81104AFB89A2F85A30B7F90E200D4963
:104BA00013469B0013449B000B4404331B6803F023
:104BB00000437B607B68002B01D10123BB60002197
:104BC0000548FFF721FABB68002BA8D000BF1037BB
:104BD000BD4680BD986900208811044080B483B030
:104BE00000AF00237B603FE023497A6813469B00B7
:104BF00013449B000B4400221A601F497A68134635
:104C00009B0013449B000B4404334FF000421A6096
:104C10007B68012B0AD118497A6813469B0013441C
:104C20009B000B440833144A1A6010E07B685A1C3E
:104C300013469B0013449B000F4A99180E487A684C
:104C400013469B0013449B000344083319600A4930
:104C50007A6813469B0013449B000B440C337A681C
:104C60001A607B6801337B607B68012BBCDD00BF71
:104C70000C37BD4680BC70479869002080B483B073
:104C800000AF00237B6040E024497A6813469B0014
:104C900013449B000B44283300221A601F497A6892
:104CA00013469B0013449B000B442C3300221A60D4
:104CB0007B68012B0AD119497A6813469B0013447B
:104CC0009B000B443033164A1A6011E07B685A1C73
:104CD00013469B0013449B002833104A99180F4831
:104CE0007A6813469B0013449B00034430331960D9
:104CF0000A497A6813469B0013449B000B443433E3
:104D00007A681A607B6801337B607B68012BBBDDAE
:104D100000BF0C37BD4680BC704700BF98690020BB
:104D2000C069002080B485B000AF78607B68002B3C
:104D300000D100BE7B68002B2AD07B6805331B782E
:104D40001B06FB607B6804331B781B04FA68134363
:104D5000FB607B6803331B781B02FA681343FB601C
:104D60007B6802331B781A46FB681343FB600B4ACF
:104D7000FB6813647B6801331B781B06FB607B6850
:104D80001B781B04FA681343FB60044AFB685364F6
:104D900000BF1437BD4680BC704700BF0010044000
:104DA00080B584B000AF0023FB734FF6FF73FB8028
:104DB00002237B717A79FB7B11461846FFF702FDCF
:104DC00003467B807A88FB889A4202D00123BB602D
:104DD00004E00023BB60FB7B0133FB73FB7B1F2BD9
:104DE00002D8BB68002BE5D0FB7B18461037BD46C8
:104DF00080BD80B584B000AFF860B9607A603B6078
:104E0000FB68BA681A60FB681B6808330021184603
:104E1000FCF797FBFB681B680C3300211846FCF776
:104E200090FBFB681B6879681846FCF75AFB3B68E7
:104E3000002B00D100BEFB681B680433396818469C
:104E4000FCF74FFBFB681B68103300211846FCF78A
:104E500048FBFB681B68183300211846FCF741FB30
:104E6000FB681B68203300211846FCF73AFBFB68FF
:104E70001B68283300211846FCF733FBFB681B68CE
:104E8000303300211846FCF72CFBFB681B683833D5
:104E900000211846FCF725FBFB681B684033002106
:104EA0001846FCF71EFBFB681B68483300211846B8
:104EB000FCF717FBFB681B68503300211846FCF712
:104EC00010FBFB681B68583300211846FCF709FBF0
:104ED000FB681B68603300211846FCF702FBFB6887
:104EE0001B68683300211846FCF7FBFAFB681B6857
:104EF000703300211846FCF7F4FAFB681B6878331E
:104F000000211846FCF7EDFAFB681B68803300218E
:104F10001846FCF7E6FAFB681B6888330021184640
:104F2000FCF7DFFA00BF1037BD4680BD80B584B006
:104F300000AF78600B46FB70FB78002B00D100BE01
:104F4000FB78102B00D900BEFB78002B32D0FB7809
:104F5000102B2FD8FB78194AD35CFB73FB78082BF6
:104F600014D87B681B6808331846FCF7ECFA034634
:104F7000BB73BA7BFB7B1343BB737B681B68083333
:104F8000BA7B11461846FCF7DCFA13E07B681B6815
:104F90000C331846FCF7D7FA0346BB73BA7BFB7B8E
:104FA0001343BB737B681B680C33BA7B11461846EE
:104FB000FCF7C7FA00BF1037BD4680BDCC600020AB
:104FC00080B584B000AF78600B46FB70FB78002B97
:104FD00000D100BEFB78102B00D900BEFB78002B5F
:104FE00036D0FB78102B33D8FB781B4AD35CFB738D
:104FF000FB78082B16D87B681B6808331846FCF72B
:10500000A2FA0346BB73FB7BDB43DAB2BB7B1340E4
:10501000BB737B681B680833BA7B11461846FCF7E4
:1050200090FA15E07B681B680C331846FCF78BFA86
:105030000346BB73FB7BDB43DAB2BB7B1340BB7322
:105040007B681B680C33BA7B11461846FCF779FA6B
:1050500000BF1037BD4680BDCC60002080B586B053
:1050600000AFF8600B467A60FB72FB7A002B00D130
:1050700000BEFB7A102B00D900BEFB7A002B3AD081
:10508000FB7A102B37D87B68002B05D1FB7A1946A9
:10509000F868FFF795FF2EE0FB681A68FB7A18495D
:1050A00051F82330134400211846FCF71AFAFB6824
:1050B0001A68FB7A134951F823301344796818466B
:1050C000FCF70FFAFB7A0F4A52F823307B61FB683A
:1050D0001A687B6913441846FCF735FA0346FB74DB
:1050E0007B68DBB2FA7C9A4200D000BEFB7A19469C
:1050F000F868FFF71BFF00BF1837BD4680BD00BF33
:10510000E06000202461002080B483B000AF7860AC
:10511000FEE780B485B000AFF860B9607A603B60AC
:10512000002318461437BD4680BC704780B586B052
:1051300000AF78601F4B1B68002B02D11D4B1E4A2D
:105140001A601C4B1B687B61EFF308833B61194BB2
:105150001B683A699A420FD9164B1A687B68134448
:105160003A699A421AD21923144A01210020FFF702
:10517000D0FF0120FFF7C8FF114BFB600D4B1A68F1
:105180007B681344FA689A4208D219230D4A012118
:105190000020FFF7BEFF0120FFF7B6FF054B1A689E
:1051A0007B681344034A13607B6918461837BD4671
:1051B00080BD00BF006A0020C06C00206861002034
:1051C00000F000208461002080B500AF00F0FAF804
:1051D000044B5B69034A43F400735361FBF72AF9FC
:1051E00000BF80BD00ED00E080B588B000AF304B5F
:1051F000D3F8983003F08063FB61FB69002B4CD13E
:105200002B4BD3F8983003F48053BB61BB69002B60
:1052100015D1284B284A1A60284B274A1A60284B78
:10522000254A1A60274B284A1A60284B284A1A60D8
:10523000284B214A1A60284B1F4A1A6034E0274A3B
:105240003B1D92E8030083E80300194BD3F89C3020
:105250009B0903F007037B613A1D7B6913441B78AC
:10526000FB74FB7C012B0AD0022B0DD0002B0FD13D
:1052700000F038F8F860F86800F052F814E04FF4E5
:10528000004000F04DF80FE0154800F049F80BE041
:10529000134800F045F800BF06E000F023F8F8607E
:1052A000F86800F03DF8FFE700BF2037BD4680BD3D
:1052B00000800340B062002000E1F505B4620020E8
:1052C000B8620020BC62002040787D01C0620020EE
:1052D00008AF2F00C4620020C8620020986100203F
:1052E00040420F0080B483B000AF0A4BD3F8503176
:1052F00003F004033B603B68002B02D1064B7B604C
:1053000001E0064B7B607B6818460C37BD4680BCCD
:10531000704700BF0080034040787D0180F0FA02B2
:1053200080B483B000AF78600C4A7B6813600C4A8D
:105330007B6813600B4A7B6813600B4B0B4A1A6047
:105340000B4A7B6813600B4A7B6813600A4A7B68D0
:10535000136000BF0C37BD4680BC7047B0620020B0
:10536000B4620020B8620020BC62002040787D0159
:10537000C0620020C4620020C862002080B483B0F4
:1053800000AF0E4BD3F84C313B603B684FF6020246
:10539000934204D03B680A4A934203D005E00123BC
:1053A0007B6005E002237B6002E000237B6000BF9E
:1053B0007B6818460C37BD4680BC704700800340B0
:1053C00002F8010080B582B000AFFFF7D7FF786028
:1053D0007B68012B02D100F007F800E000BF00BF9E
:1053E0000837BD4680BD000080B400AF094BD3F83C
:1053F0009830084A43F48073C2F89830054BD3F8CC
:105400009830044A23F08063C2F8983000BFBD464C
:1054100080BC70470080034070B500260C4D0D4CD9
:10542000641BA410A64209D100F0E6FE00260A4D36
:105430000A4C641BA410A64205D170BD55F8043B6C
:1054400098470136EEE755F8043B98470136F2E7F6
:105450001062002010620020106200201462002000
:10546000931E222B10B50C4604D900231C460B704A
:10547000204610BD0A2A09D1002807DA2D230B7017
:1054800001214042214400F005F9F1E70021F9E74C
:10549000FFF7E6BF0A44914200F1FF3300D17047A5
:1054A00010B511F8014B914203F8014FF9D110BD2D
:1054B00003460244934200D1704703F8011BF9E709
:1054C00038B50546002943D051F8043C0C1F002B89
:1054D000B8BFE41800F01EF91E4A1368104633B92D
:1054E000636014602846BDE8384000F019B9A34253
:1054F0000BD921686218934201BF1A685B68521881
:10550000226063600460EDE713465A680AB1A24264
:10551000FAD919685818A0420BD1206801445818CC
:1055200082421960DED110685268014419605A60E5
:10553000D8E702D90C232B60D4E7206821188A42CF
:1055400001BF116852680918216062605C60C9E798
:1055500038BD00BF046A0020F8B5CD1C25F0030556
:1055600008350C2D38BF0C25002D064601DBA9425D
:1055700003D90C2333600020F8BD00F0CBF821499B
:105580000A6814469CB9204F3B6823B9214630462F
:1055900000F03CF838602946304600F037F8431CEC
:1055A00023D10C233046336000F0BAF8E3E72368D8
:1055B0005B1B17D40B2B03D923601C44256004E02C
:1055C0006368A2420CBF0B605360304600F0A8F83D
:1055D00004F10B00231D20F00700C21ACCD01B1AC7
:1055E000A350C9E722466468CCE7C41C24F0030436
:1055F000A042E3D0211A304600F008F80130DDD196
:10560000CFE700BF046A0020086A002038B50023F5
:10561000054C054608462360FFF788FD431C02D170
:10562000236803B12B6038BDB06C00200CB430B5DA
:10563000174B0C1E9DB01D6808DA8B234FF0FF300E
:105640002B601DB0BDE8304002B070474FF40273CC
:10565000ADF814300CBF234604F1FF3304930793D5
:105660004FF6FF7302900690ADF81630209A21ABEA
:1056700002A92846019300F0B5F8431CBCBF8B2358
:105680002B60002CDDD00022029B1A70D9E700BFEE
:10569000CC620020F0B58BB007460C466D461C4B23
:1056A00003F1200C2E4618685968083303C6634579
:1056B0003546F7D118681B7930603371931E222B61
:1056C0004FF0000104D921700C4620460BB0F0BD0C
:1056D000651EB7FBF2F602FB16730DF1280C63444E
:1056E00013F8283CBA4201F1010005F8013F0CD93A
:1056F000002362182354C81A8342E6DAE05C157866
:10570000E55402F801090133F5E701463746E0E7C1
:10571000A0610020014800F0E9BA00BFB86C002089
:10572000014800F0E4BA00BFB86C00202DE9F04752
:105730008E6882469E420C469146984638D8B1F80B
:105740000CC01CF4906F31D062692568096902EBC6
:1057500042026F1A02EBD272013355103B449D4254
:1057600038BF1D461CF4806F30D02946FFF7F4FE89
:10577000064650B90C234FF0FF30CAF80030A38919
:1057800043F04003A381BDE8F0873A462169FFF763
:1057900081FEA38923F4906343F08003A3812661F3
:1057A0003E44266046466561ED1BA560464500D92E
:1057B000464632464946206800F0A8FAA368002011
:1057C0009B1BA36023681E442660DCE72A4600F08A
:1057D000B7FA06460028E2D121695046FFF770FE6D
:1057E000C8E700002DE9F04F1E468B899DB01B06CF
:1057F00007460D4614460ED50B6963B94021FFF7E5
:10580000ABFE2860286120B90C233B604FF0FF30CD
:10581000C9E040236B610023099320238DF82930D0
:1058200030234FF0010ADFF898918DF82A30039663
:1058300023461E4613F8012B0AB1252AF9D1B6EBEF
:10584000040B0BD05B46224629463846FFF76EFF15
:10585000013000F0A380099B5B4409933378002B4F
:1058600000F09C8000234FF0FF32CDE90523013684
:10587000049307938DF853301A933446052214F895
:10588000011B4F4800F034FA049BC0B9D90644BF4D
:1058900020228DF853201A0744BF2B228DF8532065
:1058A00032782A2A13D0344600200A26079A214645
:1058B00011F8013B303B092B4BD970B914E0A0EB38
:1058C00009000AFA00F0184304902646D5E7039A27
:1058D000111D12680391002A01DB079204E0524275
:1058E00043F002030792049323782E2B0CD16378A4
:1058F0002A2B33D1039B02341A1D1B680392002B01
:10590000B8BF4FF0FF3305932E4E03222178304667
:1059100000F0EEF938B14023801B03FA00F0049B3D
:1059200001340343049314F8011B062226488DF822
:10593000281000F0DDF9002838D0244B13BB039B5E
:10594000073323F0070308330393099B4344099368
:105950006EE706FB023201200C46A8E700230A2668
:10596000194601340593204610F8012B303A092AD4
:1059700003D9002BC8D00591C6E706FB01210123FE
:105980000446F0E703AB00932A46114B04A93846BE
:10599000AFF30080B0F1FF3F8046D6D1AB895B0604
:1059A0003FF534AF09981DB0BDE8F08F03AB00930D
:1059B0002A46074B04A9384600F082F8EAE700BF00
:1059C000C5610020CB610020CF61002000000000F5
:1059D0002D5700202DE9F04791461F468A680B6934
:1059E00006469342B8BF1346C9F8003091F84320E9
:1059F0000C46DDF8208012B10133C9F8003023686D
:105A0000990642BFD9F800300233C9F80030256842
:105A100015F0060507D104F1190AE368D9F800204A
:105A20009B1AAB4229DC94F843302268003318BF3C
:105A3000012392062ED404F1430239463046C04772
:105A4000013021D02368E56803F00603042B18BF5A
:105A50000025D9F800204FF0000908BFAD1AA3684F
:105A6000226908BF25EAE5759342C4BF9B1AED1869
:105A70001A344D451AD1002008E001235246394618
:105A80003046C047013003D14FF0FF30BDE8F0870A
:105A90000135C2E73020E11881F843005A1C94F820
:105AA00045102244023382F84310C4E70123224602
:105AB00039463046C0470130E6D009F10109D8E740
:105AC0002DE9F04306460C4601F14300097E85B0FE
:105AD0006E29984617460C9B00F0BB8024D863299A
