:020000042000DA
:1000000000000120910100207F03002081030020D7
:1000100083030020850300208703002000000000E8
:100020000000000000000000000000008903002024
:100030008B030020000000008D0300208F030020B0
:100040009103002093030020952C0020B92C002060
:10005000893500209B0300209D030020AD35002042
:10006000A1030020A3030020391500205D15002006
:10007000353B0020AB030020AD030020AF03002080
:10008000B1030020B3030020B5030020951B00201E
:10009000B9030020BB030020BD030020BF030020E4
:1000A000C1030020C3030020C50300202537002022
:1000B0001D380020CB030020CD030020CF030020FB
:1000C000D1030020D3030020D5030020D703002054
:1000D000D9030020DB030020DD030020DF03002024
:1000E000E1030020E3030020E5030020E7030020F4
:1000F000E9030020EB030020ED030020EF030020C4
:10010000F1030020F3030020F5030020F703002093
:10011000F9030020FB030020FD030020FF03002063
:100120000104002003040020990E00202D0F002060
:100130005D1000200B0400200D0400200F0400209F
:1001400011040020130400201504002017040020CF
:10015000190400201B0400201D0400201F0400209F
:10016000210400202304002025040020270400206F
:10017000290400202B0400202D0400202F0400203F
:1001800031040020330400200000000000000000C3
:100190004FF0000BDFF8BE020068DFF8B612096806
:1001A00001F0030100F01C00142801D14BF0020BF8
:1001B000002901D04BF0010BBBF1000F05D0A7487F
:1001C000A749DFF8722200F09FF8A64880470BF09D
:1001D000020ABAF1000F0CD0DFF86E02DFF86E12DF
:1001E00002680B680FB44FF000024FF0FF0302608B
:1001F0000B609D484FF000024FF00103022808D128
:10020000DFF83A120A60DFF83E120A60DFF83212B5
:100210000B60012808D1DFF82A120A60DFF82612E5
:100220000A60DFF81A120B609048002809D1904844
:100230009049914A00F030F890489149914A00F075
:100240002BF891489149924A00F026F8914892493A
:10025000DFF8E22100F058F8BBF1000F10D08F4812
:100260008F49DFF8D62100F04FF80BF0020ABAF1FF
:10027000000F05D00FBC02600B6000BFAFF3008021
:10028000DFF820020FF2030E00474FF000004FF09E
:100290000001DFF814F2FEE72DE9F841884225D08D
:1002A000B2EB010200D5FEE740EA010313F00303BD
:1002B00002D000F01DF819E04FF000039046121133
:1002C000F7D09A421CBFF0C8F0C103F10103F8D186
:1002D00008F00F08B8F1000F08D004780C7000F196
:1002E000010001F10101B8F10108F6D1BDE8F88182
:1002F00008B54FF0000303780B7000F1010001F125
:100300000101013AF7D108BD884237D000F0030659
:10031000002E14D04FF00405A5EB06044FF008079B
:1003200007FB06F8914669FA08F9002C07D080F817
:10033000009069FA07F900F10100013CF5E74FF080
:1003400000060F46091A88460911914614461546BB
:10035000B14206D018BFA0E8340206F10106B1424E
:10036000F8D108F00F08B8F1000F07D002704FEA7B
:10037000322200F10100B8F10108F4E77047FEE70E
:10038000FEE7FEE7FEE7FEE7FEE7FEE7FEE7FEE745
:10039000FEE7FEE7FEE7FEE7FEE7FEE7FEE7FEE735
:1003A000FEE7FEE7FEE7FEE7FEE7FEE7FEE7FEE725
:1003B000FEE7FEE7FEE7FEE7FEE7FEE7FEE7FEE715
:1003C000FEE7FEE7FEE7FEE7FEE7FEE7FEE7FEE705
:1003D000FEE7FEE7FEE7FEE7FEE7FEE7FEE7FEE7F5
:1003E000FEE7FEE7FEE7FEE7FEE7FEE7FEE7FEE7E5
:1003F000FEE7FEE7FEE7FEE7FEE7FEE7FEE7FEE7D5
:10040000FEE7FEE7FEE7FEE7FEE7FEE7FEE7FEE7C4
:10041000FEE7FEE7FEE7FEE7FEE7FEE7FEE7FEE7B4
:10042000FEE7FEE7FEE7FEE7FEE7FEE7FEE7FEE7A4
:10043000FEE7FEE7704700000000A2A2A2A2008033
:100440000340088003401080034030800340348024
:1004500003403880034018080240000000F00020EC
:1004600000000120354000200000000000000000D6
:10047000000000200000002090010020B0040020B7
:10048000B004002060460020604600206046002046
:100490001047002010470020704A0020704A0020BA
:1004A00000F0002085420020090A00200000000022
:1004B0000348044B834202D0034B03B118477047F3
:1004C00010470020104700200000000005480649A2
:1004D000091A891001EBD171491002D0034B03B105
:1004E0001847704710470020104700200000000008
:1004F00010B5064C237843B9FFF7DAFF044B13B16C
:100500000448AFF300800123237010BD1047002082
:10051000000000004046002008B5054B1BB105490E
:100520000548AFF30080BDE80840FFF7CFBF00BF2C
:1005300000000000144700204046002080B582B033
:1005400000AF78600B46FB707B681B681C33FA7841
:100550001146184600F0B9FD00BF0837BD4680BD02
:1005600080B582B000AF78600B46FB707B681B687B
:100570002033FA781146184600F0A7FD00BF08376F
:10058000BD4680BD80B582B000AF78600B46FB7081
:100590007B681B681833FA781146184600F095FD01
:1005A00000BF0837BD4680BD80B582B000AF78601F
:1005B0000B46FB701346BB707B681B681C33FA78D4
:1005C0001146184600F081FD7B681B682033BA781D
:1005D0001146184600F079FD7B681B6818331846F1
:1005E00000F075FD034618460837BD4680BD80B54E
:1005F00082B000AF78600B46FB707B681B68FA78AE
:100600001146184600F061FD00BF0837BD4680BDA9
:1006100080B586B000AF78600B46FB70FB78002B8E
:1006200002D10023FB7501E0FF23FB7500233B6132
:100630001CE03B69DBB219467868FFF791FF0023A5
:10064000FB600DE0FB68DBB219467868FFF776FFC8
:10065000FB7D19467868FFF795FFFB680133FB6067
:10066000FB68532BEEDD3B6901333B613B69052B96
:10067000DFDD00BF1837BD4680BD80B586B000AF56
:100680007860084611461A460346FB700B46BB705D
:1006900013467B7000237B61BB783B612CE07B6859
:1006A0001B6820333A691146184600F00EFDFB78AE
:1006B000FB6018E07B681B681C33FA68114618461B
:1006C00000F003FD7B681B6803F118007B695A1C6E
:1006D0007A611A467B6A13441B78194600F0F5FCD0
:1006E000FB680133FB60FA787B781344FA689A421E
:1006F000E0DB3B6901333B61BA7897F82030134463
:100700003A699A42CBDB00BF1837BD4680BD80B541
:1007100084B000AF78600B46FB701346BB70FB786B
:10072000FB73BB78DB08BB73BB7803F007037B73F9
:100730007B681B681C33FA7B1146184600F0C5FC29
:100740007B681B682033BA7B1146184600F0BDFC5D
:100750007B681B681833184600F0B9FC03463B73EE
:100760003A7B7B7B42FA03F3DBB203F00103DBB29B
:1007700018461037BD4680BD80B584B000AF7860A4
:10078000084611461A460346FB700B46BB701346DB
:100790007B70FB78FB73BB78DB08BB73BB7803F023
:1007A00007037B737B7B012202FA03F33B737B68B5
:1007B0001B681C33FA7B1146184600F086FC7B68E8
:1007C0001B682033BA7B1146184600F07EFC7B681C
:1007D0001B681833184600F07AFC0346FB7297F941
:1007E0000C30DB435AB297F90B3013405BB2FB720B
:1007F0007A787B7B02FA03F35AB297F90B301343F2
:100800005BB2FB727B681B681833FA7A1146184694
:1008100000F05BFC00BF1037BD4680BD80B586B0E0
:1008200000AF7860084611461A460346FB700B4637
:10083000BB7013467B7000237B61BB783B6132E069
:10084000FB78FB6026E00023BB601AE0FB68D9B2AE
:100850003B69DAB2BB68DBB21344D8B27A6A7B690F
:1008600013441B781A46BB6842FA03F3DBB203F069
:100870000103DBB202467868FFF77EFFBB680133F5
:10088000BB60BB68072BE1DD7B6901337B61FB68E3
:100890000133FB60FA787B781344FA689A42D2DB22
:1008A0003B6901333B61BA7897F8203013443A69C9
:1008B0009A42C5DB00BF1837BD4680BD80B586B003
:1008C00000AF7860084611461A460346FB700B4697
:1008D000BB7013467B7000237B61BB783B613EE0BD
:1008E000FB78FB6032E00023BB6026E0BA6A7B69DC
:1008F00013441B781A46BB6842FA03F303F0010362
:10090000002B17D0FB68D9B23B69DAB2BB68DBB207
:100910001344D8B27A6A7B6913441B781A46BB68C1
:1009200042FA03F3DBB203F00103DBB2024678685C
:10093000FFF722FFBB680133BB60BB68072BD5DD27
:100940007B6901337B61FB680133FB60FA787B785C
:100950001344FA689A42C6DB3B6901333B61BA78BB
:1009600097F8203013443A699A42B9DB00BF183730
:10097000BD4680BD80B400AF024B1846BD4680BC6A
:10098000704700BF9043002080B485B000AF78600E
:100990000023FB600FE00C4A7B6852F82320FB68C1
:1009A00013441A78FB6801335200D1B2074AD1547C
:1009B000FB680133FB60FB68022BECDD034B184640
:1009C0001437BD4680BC7047604600202C4700208D
:1009D00080B483B000AF7860044A7B68C2F8883086
:1009E00000BF0C37BD4680BC704700BF00300140DF
:1009F00080B400AF034BD3F884301846BD4680BCAA
:100A0000704700BF0030014080B500AF00F004F82F
:100A100000F09EF8FEE7000080B582B002AF4FF410
:100A2000612000F043F81B4B1B49184600F026FCE0
:100A300002F0C0FF4221082002F0F8FF4221092005
:100A400002F0F4FF082003F00DF8092003F00AF883
:100A500000F062F864234FF47A724FF0A0410F481F
:100A600003F05CF90E4B01221A700E4B02221A7031
:100A700000F03AF800F058F80B4801F063FB082347
:100A80000093042300220021074801F061FC00BF0D
:100A9000BD4680BD3C48002028440020F04700208F
:100AA000F9470020F84700207C48002080B582B03C
:100AB00000AF78600A4B03227968184600F0A6FB65
:100AC000074B0121184600F091FC054B0022054917
:100AD000184600F0DDFC00BF0837BD4680BD00BFF2
:100AE0003C480020710D002080B500AF074B1B78FB
:100AF00046221946064803F047FA064B1B7828227F
:100B00001946034803F040FA00BF80BDF9470020B2
:100B1000F0470020F847002080B500AF5F20FFF7C6
:100B200057FF00BF80BD000080B500AF064B074AED
:100B30001A6001210448FFF76BFD03210248FFF70B
:100B400056FD00BF80BD00BFF447002000010050EB
:100B5000B0B596B004AF7B4A07F12C0392E80300CE
:100B6000186004331980784A07F1240392E80300DF
:100B7000186004331980754B07F114040FCB84E817
:100B80000F00734A07F10C0392E803001860043366
:100B90001980704B1B68BB606F4A3B1D1268114681
:100BA00019800233120C1A706C4A3B4612681146C7
:100BB00019800233120C1A70694B6A49184600F00A
:100BC0005DFB07F12C03019301230093062301220F
:100BD00013216548FFF751FD07F124030193012319
:100BE00000930623032213215F48FFF746FD07F118
:100BF00014030193022300930823022246215A483A
:100C0000FFF73BFD032214215748FFF7CDFC0346B5
:100C100087F83B300023002201215348FFF7ACFD49
:100C200000232D2253215048FFF7A6FD00231A224E
:100C30001A214D48FFF7A0FD00231C221A214A4823
:100C4000FFF79AFD01231A221D214748FFF794FD63
:100C5000012201214448FFF75AFD034687F83B3043
:100C6000002201214048FFF752FD034687F83B3040
:100C700007F12C0301930123009306230A221A2172
:100C80003948FFF7CBFD07F10C03029307F124036A
:100C900001930123009306230E221D213248FFF702
:100CA0000DFE07F1080302933B1D019301230093FE
:100CB00003230E2228212C48FFF700FE07F108032A
:100CC00002933B4601930123009303230E222C2120
:100CD0002548FFF7F3FD00237B6421233B640023B9
:100CE000FB6323E0F86BFFF74FFE78637B6CDCB2AD
:100CF0003B6CDDB2FFF73EFE034602937B6B019334
:100D00000123009305232A4621461748FFF7D6FD05
:100D10007B6C04337B647B6C502B04DD00237B6491
:100D20003B6C06333B64FB6B0133FB63FB6B232B98
:100D3000D8DD0B4B0D49184600F0A0FA00BF48372C
:100D4000BD46B0BD6C440020744400207C440020AB
:100D50008C44002094440020984400209C440020AF
:100D60003C4800203C440020F4470020544400202C
:100D700080B594B000AF78600023FB6407F10803EE
:100D800040221946786800F0D3FAB86407F10803E6
:100D9000B96C184600F004F800BF5037BD4680BD5E
:100DA000F0B58BB002AF786039606B461E46042305
:100DB000BB61BA693B6813447B617D696B1E3B6113
:100DC0002B4619464FF000024FF000034FF000048D
:100DD000D40044EA5174CB002B4619464FF0000270
:100DE0004FF000034FF00004D40044EA5174CB00EC
:100DF0002B460733DB08DB00ADEB030D02AB003302
:100E0000FB60FB6802221A70214B1B681B0CDAB2D4
:100E1000FB685A701E4B1B681B0ADAB2FB689A709B
:100E20001B4B1B68DAB2FB68DA700023FB610BE036
:100E3000FB697A681A44F969BB690B441178FA684E
:100E4000D154FB690133FB61FB693A689A42EFD8E0
:100E50000021104801F014FB06210E4801F0CAFBE6
:100E6000F968AAB20023009300230A4801F01CFC91
:100E7000074B1A683B681344054A13600021054874
:100E800001F074FBB54600BF2437BD46F0BD00BF7E
:100E9000384700207C48002080B584B002AFFFF7BF
:100EA000A7FD78607B6803F480737B607B68002B10
:100EB0002DD01A4B93F90030DBB219461848FFF7D2
:100EC000A7FB164B93F90030DB435AB2134B1A7051
:100ED000144B00221A600021134801F0D1FA20239C
:100EE0003B7000237B700023BB700023FB70062146
:100EF0000D4801F07FFB39460023009300230422B4
:100F0000094801F0D1FB0021074801F02FFB082020
:100F100002F0D4FD00BF0837BD4680BD3C4700202D
:100F2000F4470020344700207C48002080B58CB076
:100F300002AF0B233B7500237B750023BB75002399
:100F4000FB7500233B763D4B1B785A1CD1B23B4AC4
:100F50001170184607F11C030A22194603F0CEF956
:100F6000374A07F11C031946104600F087F9FFF7CE
:100F70003FFD38623B6A03F400733B623B6A002B1F
:100F800005D12F4B2F49184600F078F94EE02C4B35
:100F90002D49184600F072F900212C4801F070FA32
:100FA0003A1D07F114011023009313460522274828
:100FB00001F07AFB00237B6231E0214B2449184683
:100FC00000F05CF907F11C030A221946786A03F065
:100FD00095F91B4A07F11C031946104600F04EF91B
:100FE000174B1C49184600F049F93A1D7B6A134417
:100FF0001B78184607F11C030A22194603F07EF9F4
:101000000F4A07F11C031946104600F037F90C4B44
:101010001149184600F032F97B6A01337B627B6A22
:101020000F2BCAD90021094801F0A0FA092002F0CB
:1010300045FD00BF2837BD4680BD00BF3D470020AD
:101040003C480020A0440020B04400207C48002000
:10105000C4440020CC440020D044002080B500AF20
:101060000A2002F02BFD00BF80BD016070470068C0
:1010700070470EB503FA01F303EA020301686FEA51
:10108000020201EA020141EA030101600EBD0068AB
:1010900000EA020020FA01F07047018070470088E2
:1010A00070470EB503FA01F303EA020301886FEA01
:1010B000020201EA020141EA030101800EBD00883B
:1010C00000EA020020FA01F07047017070470078D2
:1010D00070470EB503FA01F303EA020301786FEAE1
:1010E000020201EA020141EA030101700EBD00782B
:1010F00000EA020020FA01F07047000080B483B0DB
:1011000000AF0346FB71FB7903F01F02064997F914
:1011100007305B09012000FA02F241F8232000BFEA
:101120000C37BD4680BC704700E100E080B483B05E
:1011300000AF0346FB71FB7903F01F02074997F9E3
:1011400007305B09012000FA02F2603341F82320E6
:1011500000BF0C37BD4680BC704700BF00E100E017
:1011600080B483B000AF78600B46FB707B6803F0FF
:1011700070427B685B0123F07E4323F01F0313431F
:10118000FA789200134403F100731A4601231360A6
:1011900000BF0C37BD4680BC704780B483B000AF41
:1011A00078600B46FB707B6803F070427B685B01E4
:1011B00023F07E4323F01F031343FA789200134475
:1011C00003F100731A460023136000BF0C37BD46BD
:1011D00080BC704780B483B000AF78600B46FB7072
:1011E0007B6803F070427B685B0123F07E4323F051
:1011F0001F031343FA789200134403F100731B6832
:10120000DBB218460C37BD4680BC704780B584B051
:1012100000AFF860B9601346FB71FB68144A934253
:1012200004D0FB68134A934200D000BEFB791A46F3
:10123000B968F86800F04AFAFB681B68303303218C
:101240001846FFF7AAFFFB681B68343302211846D3
:10125000FFF7A3FFFB681B68383300211846FFF730
:101260009CFFFB68044A5A6200BF1037BD4680BD30
:101270003C480020FC470020AD1A002080B487B015
:1012800000AF7860396000237B617B68264A934217
:1012900004D07B68254A934200D000BE3B68002BF7
:1012A00000D100BE7B68204A934203D07B681F4A6E
:1012B000934233D13B68002B30D03A687B691344AA
:1012C0001B78FB7327E07B681B681B7DBB737B6807
:1012D0005A7BBB7B1343DAB27B685A73BB7B03F048
:1012E0002003002BEFD000233B610EE07B681B68DE
:1012F000FA7B1A703B6901333B617B6901337B6187
:101300003A687B6913441B78FB73FB7B002B02D08C
:101310003B690F2BEAD9FB7B002BD4D100BF1C37D4
:10132000BD4680BC704700BF3C480020FC47002001
:1013300080B487B000AFF860B9607A6000237B6149
:101340000023FB74FB68274A934204D0FB68264ABB
:10135000934200D000BEBB68002B00D100BE7B686A
:10136000002B00D100BEFB681E4A934203D0FB68ED
:101370001D4A934230D1BB68002B2DD07B68002BD7
:101380002AD0FB681B681B7DFB74FB685A7BFB7CC7
:101390001343DAB2FB685A7315E0FB681A68B96840
:1013A0007B690B441278D2B21A707B6901337B617E
:1013B000FB681B681B7DFB74FB685A7BFB7C13433B
:1013C000DAB2FB685A73FB7C03F00103002B03D0F5
:1013D0007A697B689A42E0D37B6918461C37BD4620
:1013E00080BC70473C480020FC47002080B582B09C
:1013F00000AF78600B467B807B68234A934204D021
:101400007B68224A934200D000BE7B884FF6FF7271
:10141000934200D100BE7B681B4A934203D07B6895
:101420001A4A93422CD17B884FF6FF72934227D001
:101430007B6893F904301846FFF778FE7B681B68D9
:101440001B79D9B27B88DBB203F00F03DAB27B6879
:101450001B680A43D2B21A717B681B6893F8243068
:10146000D9B27B881B09DAB27B681B680A43D2B207
:1014700083F824207B6893F904301846FFF73EFE7A
:1014800000BF0837BD4680BD3C480020FC47002017
:1014900080B584B000AFF860B9601346FB71FB689B
:1014A000234A934204D0FB68224A934200D000BEF4
:1014B000BB68002B00D100BEFB79C02B00D900BE59
:1014C000FB681B4A934203D0FB681A4A93422BD114
:1014D000BB68002B28D0FB79C02B25D8FB68BA68E5
:1014E0001A62FB681B681B7ADBB25BB203F03F0336
:1014F0005AB297F9073013435AB2FB681B68D2B24D
:101500001A72FB6893F904301846FFF70FFEFB6868
:101510001B68043300211846FFF722FEFB6893F98D
:1015200004301846FFF7EAFD00BF1037BD4680BD06
:101530003C480020FC470020684620F007018D460B
:1015400089B500AF044800F0ADF900BFBD46BDE865
:1015500089408546704700BF3C480020684620F01F
:1015600007018D4689B500AF044800F09BF900BF24
:10157000BD46BDE889408546704700BFFC47002056
:1015800080B588B000AF786039607B684B4A934281
:1015900004D07B684A4A934200D000BE7B68474A29
:1015A000934204D07B68464A934240F082807B6835
:1015B0003A689A6002F04EFD7B68404A934203D13C
:1015C000404B1B68FB6102E03F4B1B68FB61FB6902
:1015D000DA003B68B2FBF3F3BB61BB695B087B617C
:1015E0007B699B093B613B699B017A69D31AFB606C
:1015F0003B69DB01BA69D21AFB685B00D31AFA684F
:101600001344FB603B69B3F5803F00D300BE3B69E8
:10161000B3F5803F4DD23B69012B2AD97B681B680B
:101620000C3307211846FFF79BFD3B691A0A7B68BC
:101630001B68D2B21A717B681B683A69D2B21A7001
:101640007B681B680C3307211846FFF7A6FD7B68F3
:101650001B68303307211846FFF782FDFB68FF2B1C
:1016600000D900BE7B681B68FA68D2B283F83C20C0
:101670001FE07B681B680C3307211846FFF770FDDD
:101680003B691A0A7B681B68D2B21A717B681B68B7
:101690003A69D2B21A707B681B680C33072118466E
:1016A000FFF77BFD7B681B68303307211846FFF787
:1016B00074FD00BF2037BD4680BD00BF3C48002000
:1016C000FC470020F4460020F846002080B584B096
:1016D00000AFF860B9601346FB71FB686D4A934236
:1016E00004D0FB686C4A934200D000BEFB68694A94
:1016F000934216D1FB684FF080421A60FB680A22C1
:101700001A71664B9B6C654A43F0800393640A2010
:10171000FFF70CFD614B9B6C604A23F080039364E0
:1017200014E0FB685E4A1A60FB680B221A715B4B7F
:101730009B6C5A4A43F4807393640B20FFF7F6FCCA
:10174000564B9B6C554A23F480739364FB681B686B
:1017500000221A71FB681B6800221A72FB681B6862
:10176000083301211846FFF7FBFCFB681B680833B0
:1017700002211846FFF7F4FCFB681B6808330021C0
:101780001846FFF7EDFCFB681B6810330421184670
:10179000FFF703FDFB681B68103305211846FFF7B0
:1017A000FCFCFB681B68343301211846FFF7F5FC8D
:1017B000FB681B68343300211846FFF7EEFCFB681A
:1017C0001B68383301211846FFF7E7FCFB681B68EC
:1017D000303305211846FFF7E0FCFB681B68303307
:1017E00006211846FFF7D9FCFB681B683033072138
:1017F0001846FFF7D2FCFB681B68383303211846F4
:10180000FFF7CBFCFB681B68002283F84420FB68D1
:101810001B68002283F84820FB681B68002283F8BD
:101820004C20B968F868FFF7ABFEFB681B68FA79D3
:101830001A73FB68BA689A60FB68FA791A73FB68D6
:1018400000225A61FB6800221A61FB6800229A613B
:10185000FB6800221A62FB6800225A62FB680022C1
:10186000DA61FB6800229A62FB680022DA62FB6898
:1018700000221A63FB6800225A63FB6800229A6305
:10188000FB680022DA63FB6800225A7300BF10373E
:10189000BD4680BD3C480020FC470020008003403E
:1018A0000000014080B584B000AF78607B687D4A5D
:1018B000934204D07B687C4A934200D000BE7B6890
:1018C000784A934204D07B68774A934240F0DA80AA
:1018D0007B681B681B7ADBB203F00F03FB73FB7B97
:1018E0000C2B00F2CD8001A252F823F02119002028
:1018F000811A00203F190020991900205D1900204D
:10190000811A00207B190020811A0020811A0020F2
:10191000811A0020811A0020811A00205D19002000
:101920007B689B6A002B00D100BE7B689B6A002B02
:1019300000F0AA807B689B6A78689847A4E07B687F
:101940005B6A002B00D100BE7B685B6A002B00F055
:101950009D807B685B6A7868984797E07B681B6A24
:10196000002B00D100BE7B681B6A002B00F090802A
:101970007B681B6A786898478AE07B68DB69002B84
:1019800000D100BE7B68DB69002B00F083807B68A0
:10199000DB69786898477DE07B681B682833002105
:1019A0001846FFF717FC0346002B0CD07B68DB6A58
:1019B000002B00D100BE7B68DB6A002B03D07B6864
:1019C000DB6A786898477B681B68283301211846D2
:1019D000FFF700FC0346002B0CD07B681B6B002B31
:1019E00000D100BE7B681B6B002B03D07B681B6B98
:1019F000786898477B681B68283302211846FFF7F0
:101A0000E9FB0346002B0CD07B685B6B002B00D1FD
:101A100000BE7B685B6B002B03D07B685B6B7868D8
:101A200098477B681B68283303211846FFF7D2FBD1
:101A30000346002B0CD07B689B6B002B00D100BEB3
:101A40007B689B6B002B03D07B689B6B7868984707
:101A50007B681B68283304211846FFF7BBFB03464D
:101A6000002B19D07B68DB6B002B00D100BE7B689C
:101A7000DB6B002B10D07B68DB6B786898470BE042
:101A800000BE0AE000BF08E000BF06E000BF04E0BF
:101A900000BF02E000BF00E000BF00BF1037BD463E
:101AA00080BD00BF3C480020FC47002080B586B0C8
:101AB00000AF78607B68354A934204D07B68344A33
:101AC000934200D000BE7B681B69002B00D100BE92
:101AD0007B685B69002B00D100BE7B682B4A934278
:101AE00003D07B682A4A93424CD17B681B69002B48
:101AF00048D07B685B69002B44D07B681B681B7DEA
:101B0000FB737B685A7BFB7B1343DAB27B685A73A7
:101B1000FB7B03F02003002B24D010233B617B6868
:101B20005A697B689B69D31ABB60BB680F2B01D8CD
:101B3000BB683B6100237B6110E07B681A697B68AE
:101B40009B691A447B681B6812781A707B689B69D2
:101B50005A1C7B689A617B6901337B617A693B69B6
:101B60009A42EAD37B689A697B685B699A4209D199
:101B70007B6800225A617B681B6804330121184688
:101B8000FFF70BFB00BF1837BD4680BD3C48002067
:101B9000FC47002080B582B000AF0F4B5B68FB7143
:101BA0000D4B9B68DAB2FB791340FB71FB7903F0B4
:101BB0000203BB71BB79002B01D000F0E5F8FB7983
:101BC00003F001037B717B79002B01D000F006F854
:101BD00000BF0837BD4680BD0060014080B584B0BD
:101BE00000AF624B1B78022B3DD0052B68D0012B38
:101BF00040F0AA805E4B1B889BB2002B2FD05D4B20
:101C00001A685B4B1B889BB21946104600F00AFA13
:101C1000F860574B1B889BB21A46FB6893420FD261
:101C2000534B1B889AB2FB689BB2D31A9AB2504BA3
:101C30001A80504B1A68FB6813444E4A136090E0B8
:101C40004B4B00221A804C4B1B68002B03D0474B98
:101C500002221A7085E0454B03221A7081E000BE13
:101C600000F0BAF97DE0444B1B68002B24D0434BB5
:101C70001A68414B1B681946104600F0D3F9B8604A
:101C80003D4B1B68BA689A420CD23B4B1A68BB6842
:101C9000D31A394A1360394B1A68BB681344374A60
:101CA00013605EE0364B9B68354A23F00103936076
:101CB0002E4B03221A7054E000BE00F08DF950E064
:101CC0002D4B1B68002B1BD12E4B1B68002B14D0F7
:101CD0002C4B1B68294898470246274B1A60264B15
:101CE0001B68002B0CD1264B9B68254A23F001036F
:101CF00093601E4B03221A7002E000BE00F06CF9E4
:101D00001D4B1B68002B09D11D4B9B681C4A23F0FF
:101D100001039360154B03221A7022E0174B1A68D7
:101D2000154B1B681946104600F07CF97860124B81
:101D30001A687B68D31A104A1360104B1A687B68C4
:101D400013440E4A13600CE00D4B9B680C4A23F0C1
:101D500001039360002000F01FF9044B00221A7069
:101D600000BF00BF1037BD4680BD00BF61470020E7
:101D700044470020404700204C47002048470020AF
:101D8000006001405C47002080B584B000AF7C4B10
:101D90001B69FB81FB8923F4FF4323F07F03BB8195
:101DA000FB89FB72774B1B78052B00F2D68001A2D2
:101DB00052F823F0CD1D0020471F0020471F0020B0
:101DC000251E0020731E00201B1F0020BB89002B36
:101DD00000F0CA80FB7AF12B06D0FB7ABB72BB7A8B
:101DE000184600F04FF9BFE0674B00221A80674B9E
:101DF0001B68654A128892B21344FA7A1A70624BD1
:101E00001B889BB201339AB25F4B1A805F4B1B68F1
:101E10005D4A128892B2134400221A70594B042270
:101E20001A70A1E0BB89002B00F0A080FB7A7B72C6
:101E3000574B1B78DBB27A7A9A4215D1524B00226B
:101E40001A80524B1B68504A128892B213447A7A15
:101E50001A704D4B1B889BB201339AB24A4B1A80C1
:101E6000484B04221A7081E07B7A184600F00AF988
:101E70007CE0BB89002B06D0FB7A3B723B7A18468C
:101E800000F000F974E0414B1A683F4B1B889BB28D
:101E9000013B13441B78F12B16D13C4B1B683A4A8B
:101EA000128892B21344FA7A1A70384B1A68364B79
:101EB0001B889BB2013B13441B78184600F0E2F8E4
:101EC000304B00221A7053E02F4B1B889AB2314BD3
:101ED0001B889A4210D2FB7AFB712C4B1B682A4A52
:101EE000128892B21344FA791A70274B1B889BB25E
:101EF00001339AB2244B1A80234B1B889AB2254B8C
:101F00001B889A4234D1204B1B889BB2184600F0A4
:101F100043F81C4B00221A702AE0BB89002B0BD11E
:101F20001A4B1B680133FA7A1A70022000F034F859
:101F3000144B00221A701EE0FB7ABB71BB79184665
:101F400000F0A0F817E0BB89002B13D0FB7A7B715F
:101F50007B79184600F096F80CE0002000F01CF8A1
:101F6000084B00221A7006E000BF04E000BF02E048
:101F700000BF00E000BF00BF1037BD4680BD00BFFE
:101F80000060014061470020564700205047002074
:101F90003E4700205447002080B582B000AF034682
:101FA000FB800A4B1B68002B0CD0084B1B68084AAF
:101FB0001268F98810469847044B00221A60054BB6
:101FC00000221A7000BF0837BD4680BD5847002068
:101FD000504700206047002080B582B000AF0E4B14
:101FE0001B78DBB2002B13D00C4B1B889BB218461E
:101FF000FFF7D2FF0A4B1B68094A43F00103136045
:10200000074B1B6803F001037B607B68002BF7D153
:1020100000BF0837BD4680BD6047002056470020FE
:102020000060014080B485B000AF78603960144B27
:102030001B68134A23F0040313600023FB60104B5A
:102040005B6803F00103BB600DE07A68FB68134432
:102050001A780B4B1A61FB680133FB60084B5B6815
:1020600003F00103BB60BB68002B03D0FA683B6838
:102070009A42EAD3FB6818461437BD4680BC7047C5
:102080000060014080B582B000AF0346FB71064B93
:102090001B68002B04D0044B1B68FA791046984744
:1020A00000BF0837BD4680BD6447002080B483B0C0
:1020B00000AF0346FB71FB7903F01F02064997F955
:1020C00007305B09012000FA02F241F8232000BF2B
:1020D0000C37BD4680BC704700E100E080B483B09F
:1020E00000AF0346FB71FB7903F01F02074997F924
:1020F00007305B09012000FA02F2203341F8232067
:1021000000BF0C37BD4680BC704700BF00E100E057
:1021100080B483B000AF0346FB71FB7903F01F026C
:10212000074997F907305B09012000FA02F2603392
:1021300041F8232000BF0C37BD4680BC704700BF6C
:1021400000E100E080B584B000AF78607B68314A80
:10215000934204D07B68304A934200D000BE7B6833
:1021600093F904301846FFF7B9FF842200217868FC
:1021700002F0C6F87B6801225A620023FB810AE064
:10218000FB897A680633DB0013444FF0FF325A6054
:10219000FB890133FB81FB89072BF1D97B681D4A41
:1021A000934215D17B681D4A1A607B6802221A711E
:1021B0001B4B9B6C1A4A43F4007393640220FFF795
:1021C000A7FF174B9B6C164A23F40073936414E02B
:1021D0007B68144A1A607B6803221A71104B9B6C4F
:1021E0000F4A43F4806393640320FFF791FF0C4B85
:1021F0009B6C0B4A23F4806393647B681B681A68AA
:102200007B681B6822F000421A6000BF1037BD4691
:1022100080BD00BF004900207C4800200010004025
:10222000008003400010014080B58AB000AF7860A4
:102230007B681B681B687B627B681B689B693B62D1
:102240007B681B685B68FB617B681B689B6ABB6182
:102250007B681B681B6B7B617B681B685B6B3B61EE
:102260007B681B68DB69FB607B68354A93421DD144
:102270007B68344A1A607B6802221A71324B9B6C6D
:10228000314A43F4007393640220FFF741FF2E4B61
:102290009B6C2D4A23F4007393647B681B681A6857
:1022A0007B681B6822F000421A601CE07B68274AAA
:1022B0001A607B6803221A71234B9B6C224A43F4F9
:1022C000806393640320FFF723FF1F4B9B6C1E4A20
:1022D00023F4806393647B681B681A687B681B68BF
:1022E00022F000421A607B6A23F001037B627B6864
:1022F0001B687A6A1A607B681B683A6A9A617B6815
:102300001B68FA695A607B681B681A687B681B68DF
:1023100042F001021A607B681B68BA699A627B68A6
:102320001B687A691A637B681B683A695A637B6821
:102330001B68FA68DA6100BF2837BD4680BD00BF60
:1023400000490020001000400080034000100140C0
:1023500080B586B000AFF8607A603B600B46FB72D8
:10236000FB68454A934204D0FB68444A934200D03C
:1023700000BEFB7A072B00D900BE97F82030202B37
:1023800000D900BE3B68012B00D800BE3B68B3F506
:10239000007F00D900BE3B6803F00103002B00D092
:1023A00000BEFB6893F904301846FFF797FEFB6800
:1023B000002283F88020FB681B681A68FB681B6892
:1023C00022F001021A60FB681B681A68FB681B6830
:1023D00042F002021A60FB681B681A68FB681B68FF
:1023E00042F001021A60FB7A072B3AD87B68002B77
:1023F0000BD07B68B3F1007F07D07B68B3F1807F9F
:1024000003D07B68B3F1407F0BD1FB7A7A6842F04E
:10241000505242F48172F9680633DB000B445A6073
:102420000AE0FB7A7A6842F0405242F48172F9681D
:102430000633DB000B445A60FB7AFA680633DB0094
:10244000134497F820201A723B685B08013B7B61BC
:10245000FB7A7A69D1B2FA680633DB0013440A4684
:102460005A72FB6893F904301846FFF71FFE00BF4D
:102470001837BD4680BD00BF004900207C480020C1
:1024800080B584B000AF78600B46FB707B68354A3E
:10249000934204D07B68344A934200D000BE7B68EC
:1024A0001B681B6803F00203022B00D000BEFB7800
:1024B0007A680633DB0013445B68B3F1FF3F00D159
:1024C00000BE7B6893F904301846FFF707FE7B686F
:1024D0001B689B6803F00403FB60FB68002B02D0C1
:1024E0007868FFF7A1FE7B681B681A687B681B6829
:1024F00022F001021A60FB787A6812687968063364
:10250000DB000B445B681360FB787A680633DB0002
:1025100013445A7A7B681B689A61FB787A680633A1
:10252000DB0013441A7A7B681B685A607B681B685F
:102530001A687B681B6842F001021A607B681B689E
:10254000D969FB7801229A407B681B680A43DA61EB
:102550007B6893F904301846FFF7A8FD00BF1037D9
:10256000BD4680BD004900207C48002080B584B075
:1025700000AF78600B46FB707B681C4A934204D026
:102580007B681B4A934200D000BE7B681B681B68B7
:1025900003F00203022B00D000BE7B6893F90430E5
:1025A0001846FFF79BFD7B681B689B6803F00403DC
:1025B000FB60FB68002B02D07868FFF735FE7B6874
:1025C0001B68D969FB78012202FA03F3DA437B68BE
:1025D0001B680A40DA617B6893F904301846FFF7FC
:1025E00065FD00BF1037BD4680BD00BF004900201B
:1025F0007C48002080B485B000AF786039607B688B
:10260000274A934204D07B68264A934200D000BEFA
:102610007B681B681B6803F00203022B00D000BE1E
:102620007B681B681B6823F47F0323F47F437A686D
:10263000126843F4807313607B681B68DA6A7B68F6
:102640001B6842F00C02DA627B681B683A685A61C8
:102650007B681B689B6803F00103BB6005E07B6837
:102660001B689B6803F00103BB60BB68002BF6D0BE
:102670007B681B689B6803F00203FB6005E07B68D6
:102680001B689B6803F00203FB60FB68002BF6D01D
:102690007B681B681B6918461437BD4680BC7047B1
:1026A000004900207C48002080B58EB000AFF86063
:1026B000B9603B601346FB800023FB8600237B85CB
:1026C000FB68744A934204D0FB68734A934200D07B
:1026D00000BEFB681B681B6803F00203022B00D0DE
:1026E00000BEFA88B7F8403013447B847B8C002B03
:1026F00002D10123FB6201E07B8CFB62FB681B685B
:10270000DA6AFB681B6842F00C02DA62FB681B683D
:102710009B6803F00403FB61FB69002B02D0F8689F
:10272000FFF782FDFB681B681A68FB681B6822F0D4
:1027300001021A60FB681B681B6823F47F0222F405
:102740007F42FB6A1B0223F07F4323F0FF03F968FB
:10275000096813430B60FB681B6808225A60FB681A
:102760001B681A68FB681B6842F001021A60FB686C
:102770001B689B6803F040037B6209E0FB681B68F1
:102780001B697B61FB681B689B6803F040037B62ED
:102790007B6A002BF2D00023BB8600237B86BA8E97
:1027A000FB889A420DD2BB8EBA6813441A78FB6834
:1027B0001B685A61BB8E0133BB867B8D01337B85E1
:1027C0005FE0BA8E7B8C9A425BD2FB681B6800226A
:1027D0005A61BB8E0133BB867B8D01337B8550E014
:1027E000FB681B689B6803F040037B627B6A002BDD
:1027F0001BD1FB681B681B697B61FA8EFB889A42C0
:102800000DD37A8EB7F840309A4205D279697B8E23
:102810003A681344CAB21A707B8E01337B86FB8EF2
:102820000133FB867B8D013B7B85FB681B689B68C6
:1028300003F48073BB61BB69002B22D17B8D032B1A
:102840001FD8BA8EFB889A420DD2BB8EBA68134449
:102850001A78FB681B685A61BB8E0133BB867B8D7F
:1028600001337B850DE0BA8E7B8C9A4209D2FB68DE
:102870001B6800225A61BB8E0133BB867B8D0133FE
:102880007B85FA8E7B8C9A42AAD300BF3837BD462F
:1028900080BD00BF004900207C48002080B485B086
:1028A00000AF78600023FB600DE07B689A687B686E
:1028B0001B6913441A787B681B685A617B681B6923
:1028C0005A1C7B681A617B681B689B6803F48073E1
:1028D000002B05D17B681A697B68DB689A42E4D3D8
:1028E0007B681A697B68DB689A421BD30DE07B68C2
:1028F0005A697B68DB6913441A787B681B685A61E4
:102900007B68DB695A1C7B68DA617B681B689B68A3
:1029100003F48073002B05D17B68DA697B689B69BF
:102920009A42E4D37B685B6A002B1DD07B681A69EE
:102930007B68DB689A4217D37B68DA697B689B699E
:102940009A4211D306E07B681B6800225A61FB683B
:102950000133FB607B681B689B6803F48073002B6A
:1029600002D1FB681F2BEED900BF1437BD4680BCD7
:10297000704780B584B000AF78607B6893F8803092
:10298000022B15D10CE07B681B681B69FB607B6820
:102990005B6F002B04D07B685B6FFA68104698472A
:1029A0007B681B689B6803F04003002BEBD02FE093
:1029B0007B6893F88030012B23D116E07B681B687D
:1029C0001B69FB607B681A6B7B68DB6A9A4207D2E3
:1029D000F9687B689A6A7B681B6B1344CAB21A70E9
:1029E0007B681B6B5A1C7B681A637B681B689B683F
:1029F00003F04003002BE1D00AE07B681B681B69F1
:102A0000FB607B681B689B6803F04003002BF4D0DD
:102A100000BF1037BD4680BD80B586B000AF78607E
:102A20007B681B6820337B617B68984A934204D0A3
:102A30007B68974A934200D000BE7B691B6803F015
:102A40000203002B4ED07B6893F88030022B15D107
:102A50000CE07B681B681B69FB607B685B6F002B6D
:102A600004D07B685B6FFA68104698477B681B68E8
:102A70009B6803F04003002BEBD02FE07B6893F8BA
:102A80008030012B23D116E07B681B681B69FB603B
:102A90007B681A6B7B68DB6A9A4207D2F9687B68AD
:102AA0009A6A7B681B6B1344CAB21A707B681B6BF3
:102AB0005A1C7B681A637B681B689B6803F04003A1
:102AC000002BE1D00AE07B681B681B69FB607B6818
:102AD0001B689B6803F04003002BF4D07B681B68E5
:102AE0000222DA607B691B6803F00103002B11D01E
:102AF0007B6893F88030022B05D17B681B687A686D
:102B0000926F5A6102E07868FFF7C8FE7B681B6825
:102B10000122DA607B691B6803F01003002B20D0D0
:102B20007868FFF726FF7B681B6A002B0AD07B685A
:102B30001B6A7A68906A7A68126B114698477868BF
:102B4000FFF7ACFE7B6801225A627B681B689A6AB9
:102B50007B681B6822F010029A627B681B68102257
:102B6000DA607B691B6803F00403002B0ED07B68DE
:102B70001B68DA6A7B681B6842F00402DA627868D4
:102B8000FFF752FB7B681B680422DA607B691B68D5
:102B900003F00803002B2DD07B681B68DA6A7B6882
:102BA0001B6842F00802DA627B6893F88030022BDF
:102BB00011D17B681B681B6823F47F0323F47F43D8
:102BC0007A68126843F4807313607B681B687A68C4
:102BD000926F5A610AE07B6893F88030012B05D12F
:102BE0007B6800221A617868FFF758FE7B681B68D3
:102BF0000822DA607B691B6803F02003002B41D0B8
:102C00007868FFF7B6FE7B681B6B3B617B681B6ACD
:102C1000002B17D07B6800225A627B6800225A6121
:102C20007B6800229A617B680022DA617B681B68FE
:102C30001022DA607B681B689A6A7B681B6842F026
:102C400010029A627B6800221A617B681B68DA6A4C
:102C50007B681B6842F00C02DA627868FFF71EFEA0
:102C60007B6800221A637B68DB6F002B06D07B68D1
:102C7000DB6F7A68926A3969104698477B681B68EF
:102C80002022DA6000BF1837BD4680BD0049002011
:102C90007C480020684620F007018D4689B500AFCA
:102CA0000448FFF7B9FE00BFBD46BDE88940854630
:102CB000704700BF00490020684620F007018D469C
:102CC00089B500AF0448FFF7A7FE00BFBD46BDE8C9
:102CD00089408546704700BF7C48002080B483B09F
:102CE00000AF0346FB71FB7903F01F02074997F918
:102CF00007305B09012000FA02F2203341F823205B
:102D000000BF0C37BD4680BC704700BF00E100E04B
:102D100080B483B000AF78607B6893F86830002B94
:102D200003D07B689B6901229A6000BF0C37BD46C7
:102D300080BC704790B585B000AF78600123FB730D
:102D40007B68E74A934204D07B68E64A934200D00E
:102D500000BE7B685B691B79FB72FB7ADBB2083BC8
:102D6000D02B00F2D78301A252F823F0B13000201B
:102D700015350020153500201535002015350020AB
:102D8000153500201535002015350020B130002004
:102D9000153500201535002015350020153500208B
:102DA0001535002015350020153500204D31002047
:102DB000153500201535002015350020153500206B
:102DC0001535002015350020153500202F31002045
:102DD000153500201535002015350020153500204B
:102DE0001535002015350020153500204D31002007
:102DF000153500201535002015350020153500202B
:102E0000153500201535002015350020D331002060
:102E1000153500201535002015350020153500200A
:102E200015350020153500201535002025310020EE
:102E300015350020153500201535002015350020EA
:102E4000153500201535002015350020F131002002
:102E500015350020153500201535002015350020CA
:102E6000153500201535002015350020353200209D
:102E700015350020153500201535002015350020AA
:102E8000153500201535002015350020533200205F
:102E9000153500201535002015350020153500208A
:102EA000153500201535002015350020873200200B
:102EB000153500201535002015350020153500206A
:102EC000153500201535002015350020173300205A
:102ED000153500201535002015350020153500204A
:102EE0001535002015350020153500200F33002042
:102EF000153500201535002015350020153500202A
:102F00001535002015350020153500201733002019
:102F10001535002015350020153500201535002009
:102F20001535002015350020153500200F33002001
:102F300015350020153500201535002015350020E9
:102F40001535002015350020153500204D330020A3
:102F500015350020153500201535002015350020C9
:102F6000153500201535002015350020E3320020EE
:102F700015350020153500201535002015350020A9
:102F80001535002015350020153500204D33002063
:102F90001535002015350020153500201535002089
:102FA000153500201535002015350020E3320020AE
:102FB0001535002015350020153500201535002069
:102FC000153500201535002015350020A3330020CD
:102FD0001535002015350020153500201535002049
:102FE00015350020153500201535002065340020EA
:102FF0001535002015350020153500201535002029
:1030000015350020153500201535002065340020C9
:103010001535002015350020153500201535002008
:1030200015350020153500201535002065340020A9
:1030300015350020153500201535002015350020E8
:10304000153500201535002015350020E534002009
:1030500015350020153500201535002015350020C8
:10306000153500201535002015350020E5340020E9
:1030700015350020153500201535002015350020A8
:103080001535002015350020153500201535002098
:103090001535002015350020153500201535002088
:1030A0001535002015350020153500203D34002051
:1030B0007B689B6900225A617B685A687B685B6900
:1030C000D2B21A727B689B697A68D26AC3F800210F
:1030D0007B68DB6A002B07D17B6800229A620AE0DA
:1030E00084490020F84900207B68DB6A012B02D16B
:1030F0007B6800229A637B6893F87130002B03D0C1
:103100007B68002283F871207B681A7A7B6893F8C9
:1031100072309A4200F01D827B6893F872207B68BF
:103120001A7216E27B689B6901225A611CE27B6875
:103130009B6901221A617B68022283F83C207B682C
:1031400000221A727868FFF7E3FD0DE27B689A6A45
:103150007B685B6A9A420CD27B681A6A7B689B6ABE
:10316000581C796888621A447B685B6912781A7205
:10317000FAE17B681B7A032B07D17B680122DA62B4
:103180007B689B6901225A61EEE17B6800221A721A
:103190007B681B7C03F00103BB737B68BA7B83F8FD
:1031A0007020BB7B002B07D17B689B6901221A61D1
:1031B0007868FFF7ADFD07E07B6893F9113018469A
:1031C000FFF78CFD0023FB737B68002283F83C2013
:1031D000CAE17B689B6901221A617B68022283F83D
:1031E0003C207B6800221A727868FFF791FDBBE1F2
:1031F0007B685B6B012B04D97B689B6901229A6019
:10320000B2E17B685B6B012B04D17B689B69002278
:103210009A60A9E17B689B6901229A607B689B693F
:1032200001221A617B68002283F83C207B6800221F
:103230001A7299E17B689B6901221A617B680222FC
:1032400083F83C207B6800221A727868FFF760FDE3
:103250008AE17B685A697B68196B7B689B6B5C1C95
:10326000786884630B44127AD2B21A707B689A6BC6
:103270007B685B6B013B9A42C0F06D817B689B6908
:1032800000229A6067E17B685A697B68196B7B68EA
:103290009B6B0B44127AD2B21A707B681B7C03F0D2
:1032A0000103BB737B68BA7B83F87020BB7B002B68
:1032B00007D17B689B6901221A617868FFF728FDB6
:1032C00007E07B6893F911301846FFF707FD0023EC
:1032D000FB737B6800221A727B68002283F83C2013
:1032E00042E17B689B6901229A607B6800221A7226
:1032F0007B68002283F85C207B6893F87130002B98
:1033000000F02B817B689B6901225A6125E17B6873
:10331000012283F871207B6804221A727B680022E4
:103320009A657B680022DA607B689B695B69002B89
:1033300007D07B689B6900225A617B68012283F871
:1033400071207B68012283F85C200DE17B681B6D96
:10335000002B1AD07B689A6D7B685B6D9A4214D201
:103360007B685B691B7A7B737B681A6D7B689B6DDE
:10337000581C7968886513447A7B1A707B68DB680F
:103380001A027B7B1A447B68DA607B689A6D7B68E3
:103390005B6D9A42C0F0E3807B689B6900229A6073
:1033A000DDE07B681B7A042B31D17B689A6D7B68EA
:1033B0001B6E9A4203D17B68DA687B68DA647B68AB
:1033C0005B6E002B1ED07B685B6E7A68116D7A682D
:1033D000926D92B27868984703463B733B7B002B13
:1033E00007D17868FFF794FC7B689B6901229A609B
:1033F00013E07B689B6900229A607B68002283F857
:1034000068200AE07B689B6901229A6005E07B687E
:103410000022DA647868FFF77BFC7B68002283F87F
:103420005C207B6893F87130002B03D07B689B692C
:1034300001225A617B6800221A7295E07B680022A3
:103440001A727B680022DA647B6893F85C30DBB226
:10345000012B03D17B68022283F85C207868FFF798
:1034600057FC81E0FB7ADBB2A82B16D17B680522E2
:103470001A727B680022DA607B68012283F85C2084
:103480007B689B695B69002B07D07B689B69002286
:103490005A617B68012283F871207B68DA6C7B6853
:1034A0009B6C9A4204D37B685B69FF221A720BE023
:1034B0007B685A6C7B68DB6C581C7968C8641A445A
:1034C0007B685B6912781A727B68DA6C7B689B6C2C
:1034D0009A4246D37B689B6900229A607B680022EF
:1034E000DA643EE07B680022DA647B689B69012233
:1034F0009A607B68002283F85C207B6893F87130C7
:10350000002B03D07B689B6901225A617B680022F3
:103510001A7229E07B689B6900225A617B6800224D
:103520001A727B680022DA647B6893F83C30DBB265
:10353000012B03D17B68022283F83C207B6893F83F
:103540005C30DBB2012B0ED17B68022283F85C2059
:1035500009E000BF08E000BF06E000BF04E000BFD4
:1035600002E000BF00E000BFFB7B002B03D07B68C4
:103570009B690022DA607B685B691B79FB7200BF84
:103580001437BD4690BD00BF684620F007018D4648
:1035900089B500AF0448FFF7CDFB00BFBD46BDE8CD
:1035A00089408546704700BF84490020684620F066
:1035B00007018D4689B500AF0448FFF7BBFB00BF8C
:1035C000BD46BDE889408546704700BFF8490020E8
:1035D00080B485B000AFF860B9607A60FB704D4888
:1035E0004D4B1A68F97813469B001344DB010344E2
:1035F00003F5E27319604949474B1A6813469B006B
:1036000013449B000B440433FA681A604349424B4D
:103610001A6813469B0013449B000B440833BA6896
:103620001A603E493C4B1A6813469B0013449B00AA
:103630000B440C331B683948374A11681A0C1204C2
:103640000B469B000B449B0003440C331A607B68C1
:10365000B3F5803F0FD97B68A3F58033304A1361FF
:10366000BB6803F580332E4AD360FB6803F58033D3
:103670002B4A93601AE02949274B1A6813469B008E
:1036800013449B000B440C331B687A6892B21146BA
:103690002248214A1268194313469B0013449B0099
:1036A00003440C3319601E4B00221A611B491A4B4C
:1036B0001A6813469B0013449B000B440C331B6891
:1036C0001648154A126843F4E00113469B00134460
:1036D0009B0003440C3319600E490F4B1A681346C4
:1036E0009B001344DB010B4403F5E07301221A60D5
:1036F0000849094B1A6813469B001344DB010B442D
:1037000003F5E67300221A6000BF1437BD4680BC83
:10371000704700BF00002842804700200040014061
:1037200068470020684620F007018D4689B500AF44
:10373000354A364B1B6803F52873012142F82310E4
:103740003349324B1A6813469B0013449B000B44C9
:103750000C331B682E482D4A126823F4E0011346EF
:103760009B0013449B0003440C331960274B1B68D8
:103770000133264A1360254B1B68042B02D1234BCF
:1037800000221A60234B1B69002B17D0224B1B68A9
:10379000042B03D1204B00221A6004E01E4B1B684F
:1037A00001331D4A13601B4B98681A4BD968194B9B
:1037B0001A69184B1B7DFFF70BFF1EE01449134BD2
:1037C0001A6813469B0013449B000B440C331B6880
:1037D00003F4E003002B10D10C4B00221A600E4BB7
:1037E00000221A600B4B01221A700A4B5B68002BF7
:1037F00003D0084B5B680120984700BFBD46BDE879
:1038000089408546704700BF000028428447002059
:10381000004001406847002080470020684620F0B3
:1038200007018D4681B583B000AF384B1B683B6004
:103830003B6803F470633B603B68002B2FD0344936
:10384000344B1A6813469B001344DB010B4403F509
:1038500002731B68002B0AD02F4B02221A702E4BCA
:103860005B68002B03D02C4B5B68022098472849EB
:10387000284B1A6813469B001344DB010B4403F5E5
:1038800003731B68002B0AD0234B03221A70224BB0
:103890005B68002B03D0204B5B68032098471B4BD1
:1038A0001B683B603B6803F470433B603B68002B44
:1038B0000AD0194B04221A70174B5B68002B03D0F7
:1038C000154B5B680420984700237B6014E0104987
:1038D0007A6813469B001344DB010B4403F5E47341
:1038E00001221A600A4A7B6803F52873012142F815
:1038F00023107B6801337B607B68032BE7D900BF13
:103900000C37BD46BDE88140854670470040014008
:1039100000002842844700206847002080B483B01C
:1039200000AF0346FB71FB7903F01F02064997F9CC
:1039300007305B09012000FA02F241F8232000BFA2
:103940000C37BD4680BC704700E100E080B483B016
:1039500000AF0346FB71FB7903F01F02074997F99B
:1039600007305B09012000FA02F2203341F82320DE
:1039700000BF0C37BD4680BC704700BF00E100E0CF
:1039800080B483B000AF0346FB71FB7903F01F02E4
:10399000074997F907305B09012000FA02F260330A
:1039A00041F8232000BF0C37BD4680BC704700BFE4
:1039B00000E100E080B582B000AF1A4B9B6C194A61
:1039C00043F480139364174B9B6C164A43F0F073D7
:1039D000936400237B6012E0134A7B68134493F9DD
:1039E00000301846FFF7B2FF0F4A7B68134493F983
:1039F00000301846FFF7C4FF7B6801337B607B68AB
:103A00001F2BE9D9074B9B6C064A23F0F073936494
:103A1000044B9B6C034A23F48013936400BF083764
:103A2000BD4680BD008003405445002080B485B071
:103A300000AF03463960FB71FB79FB60FB681F2B0D
:103A400000D900BEFB681F2B05D8054AFB6852F859
:103A500023303A681A6000BF1437BD4680BC7047F7
:103A6000D444002080B584B000AF0346FB71FB79DD
:103A7000FB60FB681F2B00D900BEFB681F2B15D80D
:103A80000C4AFB6852F823301B68BB60094AFB688C
:103A900052F82330BA6842F008021A60064AFB68FE
:103AA000134493F900301846FFF738FF00BF103772
:103AB000BD4680BDD44400205445002080B485B06C
:103AC00000AF0346FB71FB79FB60FB681F2B00D93D
:103AD00000BEFB681F2B06D8064A0121FB6801FACD
:103AE00003F3C2F88030BFF34F8F00BF1437BD46D9
:103AF00080BC70470030014080B483B000AF786074
:103B00000B46FB707B6803F070427B685B0123F01F
:103B10007E4323F01F031343FA789200134403F10A
:103B200000731A460123136000BF0C37BD4680BCEA
:103B30007047000080B584B000AF0D4BD3F89C31C6
:103B4000FB60FB6803F00103BB60BB68002B01D086
:103B500000F06EF8FB6803F010037B607B68002BBD
:103B600001D000F007F800BF1037BD4680BD00BF90
:103B70000010044080B584B000AF0023FB60294BE7
:103B8000B3F964301A4613469B0013449B00283354
:103B9000244A1344BB60234BB3F964309BB2013316
:103BA0009BB21AB21F4BA3F864201E4BB3F96430CA
:103BB000012B03DD1B4B0022A3F8642000211A48CF
:103BC000FFF79AFF194BD3F894311B0CDBB2FB6063
:103BD000144BB3F960309BB201339BB21AB2114B54
:103BE000A3F860200F4B5B6D002B13D0BB681B68E4
:103BF0007B60BB685B68C3F30B03043B3B60094B12
:103C00005B6D002B06D0074B5B6DBA681269396893
:103C100078689847FB68002BB1D100BF1037BD46CC
:103C200080BD00BF8847002094110440001004406C
:103C300080B584B000AF0023BB60364BB3F95A3077
:103C4000B3F1FF3F00D100BE324BB3F95C30B3F1AA
:103C5000FF3F00D100BE2F4BB3F85A30FB812D4BF4
:103C6000B3F958309BB201339BB21AB2294BA3F877
:103C70005820284B1B6D002B0DD0264B196DB7F922
:103C80000E20244813469B0013449B00034410332A
:103C90001B68184688471F4BB3F95C30B7F90E20F4
:103CA0009A420CD11B4B4FF6FF72A3F85A20194BC6
:103CB0004FF6FF72A3F85C200123BB601FE0FB8975
:103CC00001339BB2FB81B7F90E30012B01DD0023DC
:103CD000FB81104AFB89A2F85A30B7F90E200D4932
:103CE00013469B0013449B000B4404331B6803F0F2
:103CF00000437B607B68002B01D10123BB60002166
:103D00000548FFF7F9FEBB68002BA8D000BF1037AD
:103D1000BD4680BD884700208811044080B584B02E
:103D200000AFF860B9607A603B60FB68BA681A60FF
:103D3000FB681B68083300211846FDF7C6F9FB68CD
:103D40001B680C3300211846FDF7BFF9FB681B68A0
:103D500079681846FDF789F93B68002B00D100BE51
:103D6000FB681B68043339681846FDF77EF9FB6869
:103D70001B68103300211846FDF777F9FB681B68B4
:103D8000183300211846FDF770F9FB681B682033D3
:103D900000211846FDF769F9FB681B6828330021EC
:103DA0001846FDF762F9FB681B683033002118469E
:103DB000FDF75BF9FB681B68383300211846FDF7F7
:103DC00054F9FB681B68403300211846FDF74DF994
:103DD000FB681B68483300211846FDF746F9FB686D
:103DE0001B68503300211846FDF73FF9FB681B683C
:103DF000583300211846FDF738F9FB681B6860331B
:103E000000211846FDF731F9FB681B686833002173
:103E10001846FDF72AF9FB681B6870330021184625
:103E2000FDF723F9FB681B68783300211846FDF77E
:103E30001CF9FB681B68803300211846FDF715F953
:103E4000FB681B68883300211846FDF70EF900BF98
:103E50001037BD4680BD000080B584B000AF7860EB
:103E60000B46FB70FB78002B00D100BEFB78102BBB
:103E700000D900BEFB78002B32D0FB78102B2FD856
:103E8000FB78194AD35CFB73FB78082B14D87B684A
:103E90001B6808331846FDF71AF90346BB73BA7B53
:103EA000FB7B1343BB737B681B680833BA7B1146EB
:103EB0001846FDF70AF913E07B681B680C331846B7
:103EC000FDF705F90346BB73BA7BFB7B1343BB735A
:103ED0007B681B680C33BA7B11461846FDF7F5F872
:103EE00000BF1037BD4680BD7445002080B584B04A
:103EF00000AF78600B46FB70FB78002B00D100BE52
:103F0000FB78102B00D900BEFB78002B36D0FB7855
:103F1000102B33D8FB781B4AD35CFB73FB78082B40
:103F200016D87B681B6808331846FDF7D0F803469F
:103F3000BB73FB7BDB43DAB2BB7B1340BB737B6899
:103F40001B680833BA7B11461846FDF7BEF815E02A
:103F50007B681B680C331846FDF7B9F80346BB7342
:103F6000FB7BDB43DAB2BB7B1340BB737B681B6814
:103F70000C33BA7B11461846FDF7A7F800BF10377F
:103F8000BD4680BD7445002080B586B000AFF860A6
:103F90000B467A60FB72FB7A002B00D100BEFB7AE5
:103FA000102B00D900BEFB7A002B3AD0FB7A102BE5
:103FB00037D87B68002B05D1FB7A1946F868FFF7E4
:103FC00095FF2EE0FB681A68FB7A184951F82330F8
:103FD000134400211846FDF748F8FB681A68FB7A7D
:103FE000134951F82330134479681846FDF73DF81A
:103FF000FB7A0F4A52F823307B61FB681A687B69B1
:1040000013441846FDF763F80346FB747B68DBB284
:10401000FA7C9A4200D000BEFB7A1946F868FFF796
:104020001BFF00BF1837BD4680BD00BF884500207C
:10403000CC45002080B500AF00F0FAF8044B5B6976
:10404000034A43F400735361FCF7F4F900BF80BDE9
:1040500000ED00E080B588B000AF304BD3F8983069
:1040600003F08063FB61FB69002B4CD12B4BD3F831
:10407000983003F48053BB61BB69002B15D1284BEA
:10408000284A1A60284B274A1A60284B254A1A608A
:10409000274B284A1A60284B284A1A60284B214A85
:1040A0001A60284B1F4A1A6034E0274A3B1D92E8E9
:1040B000030083E80300194BD3F89C309B0903F0FD
:1040C00007037B613A1D7B6913441B78FB74FB7CFF
:1040D000012B0AD0022B0DD0002B0FD100F038F8A5
:1040E000F860F86800F052F814E04FF4004000F077
:1040F0004DF80FE0154800F049F80BE0134800F0C8
:1041000045F800BF06E000F023F8F860F86800F01A
:104110003DF8FFE700BF2037BD4680BD008003406B
:10412000F046002000E1F505F4460020F8460020A6
:10413000FC46002040787D010047002008AF2F009A
:1041400004470020084700201046002040420F008E
:1041500080B483B000AF0A4BD3F8503103F00403AE
:104160003B603B68002B02D1064B7B6001E0064BB5
:104170007B607B6818460C37BD4680BC704700BF2B
:104180000080034040787D0180F0FA0280B483B063
:1041900000AF78600C4A7B6813600C4A7B68136040
:1041A0000B4A7B6813600B4B0B4A1A600B4A7B6807
:1041B00013600B4A7B6813600A4A7B68136000BF78
:1041C0000C37BD4680BC7047F0460020F446002006
:1041D000F8460020FC46002040787D010047002082
:1041E000044700200847002080B483B000AF0E4B86
:1041F000D3F84C313B603B684FF60202934204D047
:104200003B680A4A934203D005E001237B6005E046
:1042100002237B6002E000237B6000BF7B681846BE
:104220000C37BD4680BC70470080034002F8010097
:1042300080B582B000AFFFF7D7FF78607B68012BB5
:1042400002D100F007F800E000BF00BF0837BD460C
:1042500080BD000080B400AF094BD3F89830084A05
:1042600043F48073C2F89830054BD3F89830044A71
:1042700023F08063C2F8983000BFBD4680BC704711
:104280000080034070B500260C4D0D4C641BA4103B
:10429000A64209D100F0D4F900260A4D0A4C641B4D
:1042A000A410A64205D170BD55F8043B98470136CD
:1042B000EEE755F8043B98470136F2E758460020F0
:1042C00058460020584600205C460020931E222BB2
:1042D00010B50C4604D900231C460B70204610BDB7
:1042E0000A2A09D1002807DA2D230B700121404248
:1042F000214400F00DF8F1E70021F9E7FFF7E6BFF0
:1043000003460244934200D1704703F8011BF9E7CA
:10431000F0B58BB007460C466D461C4B03F1200CE4
:104320002E4618685968083303C663453546F7D1E9
:1043300018681B7930603371931E222B4FF00001F7
:1043400004D921700C4620460BB0F0BD651EB7FBAA
:10435000F2F602FB16730DF1280C634413F8283CA7
:10436000BA4201F1010005F8013F0CD9002362189F
:104370002354C81A8342E6DAE05C1578E55402F863
:1043800001090133F5E701463746E0E7184600200A
:104390007F7F7F7F7F0000001F111F0000021F0032
:1043A0001915120015151F0007041F0017151D0011
:1043B0001F151D00011D03001F151F0007051F000D
:1043C0001E051E001F150A000E1111001F110E0000
:1043D0001F1515001F0505001F0505001F041F0000
:1043E000111F1100111F01001F041B0010101F00DE
:1043F0001F021F001F011E000E110E001F050200EC
:104400000E191E001F051A0012150900011F0100D8
:104410001F101F000F100F001F081F001B041B00A0
:10442000071C0700191513007561727420696E6905
:104430007469616C697A6564210A0D004E6F6B695D
:104440006120746573742073746172746564210AE9
:104450000D0000004E6F6B696120746573742066F7
:10446000696E6973686564210A0D0000007C121290
:104470007C000000007E52522C000000008804FAEC
:10448000FA0488000060114A4A116000F0F0F0F070
:10449000F0F000007F7F7F7F1C0A1C003E2A140082
:1044A0002050696E2039206973206C6F770A0D00E7
:1044B0002050696E203920697320686967680A0D89
:1044C000000000006164723A20000000203D2000DE
:1044D0000A0D000000300140043001400830014066
:1044E0000C300140103001401430014018300140C0
:1044F0001C30014020300140243001402830014070
:104500002C3001403030014034300140383001401F
:104510003C300140403001404430014048300140CF
:104520004C3001405030014054300140583001407F
:104530005C3001406030014064300140683001402F
:104540006C300140703001407430014078300140DF
:104550007C30014032333435363738393A3B3C3DD4
:104560003E3F404142434445464748494A4B4C4DF3
:104570004E4F5051000102040810204080010204F7
:104580000810204080000000000000001000000023
:10459000180000002000000028000000300000008B
:1045A00038000000400000004800000050000000FB
:1045B000580000006000000068000000700000006B
:1045C000780000008000000088000000000000006B
:1045D000140000001C000000240000002C0000005B
:1045E000340000003C000000440000004C000000CB
:1045F000540000005C000000640000006C0000003B
:10460000740000007C000000840000008C000000AA
:1046100000010001020203033031323334353637F2
:1046200038396162636465666768696A6B6C6D6E70
:104630006F707172737475767778797A0000000004
:10464000F8B500BFF8BC08BC9E467047F8B500BF7F
:10465000F8BC08BC9E46704719050020F1040020F4
:10466000984300209C430020A0430020A443002046
:10467000A8430020AC430020B0430020B4430020F6
:10468000B8430020BC430020C0430020C4430020A6
:10469000C8430020CC430020D0430020D443002056
:1046A000D8430020DC430020E0430020E443002006
:1046B000E8430020EC430020F0430020F4430020B6
:1046C000F8430020FC430020004400200444002064
:1046D000084400200C440020104400201444002012
:1046E000184400201C4400202044002024440020C2
:1046F00000E1F50500E1F50500E1F50540787D01F3
:1047000008AF2F0000E1F50500E1F505000000000D
:040000052000019145
:00000001FF
